:020000040800F2
:10000000083900209D01000899860008C1360008C3
:100010002D670008810A000815B3000800000000E1
:10002000000000000000000000000000C59B000868
:10003000410B000800000000398800088DA000086E
:10004000B7010008B7010008B7010008B7010008B0
:10005000B7010008B7010008B7010008B7010008A0
:10006000B7010008B7010008B7010008B701000890
:10007000B7010008B7010008B7010008B701000880
:10008000B7010008B7010008B7010008B701000870
:10009000B7010008B7010008B7010008852700086C
:1000A000B7010008B7010008B7010008B701000850
:1000B000F5A0000805A10008B7010008B701000875
:1000C000B7010008B7010008B7010008B701000830
:1000D000B7010008B7010008B7010008B701000820
:1000E000B7010008B7010008B7010008B701000810
:1000F000B7010008B7010008B7010008B701000800
:10010000B7010008B7010008B7010008B7010008EF
:10011000BDAA0008B7010008B7010008B701000830
:10012000B7010008B7010008B7010008B7010008CF
:10013000B7010008B7010008B7010008B7010008BF
:10014000B7010008B7010008B7010008B7010008AF
:10015000B7010008B7010008B7010008B70100089F
:10016000B7010008B7010008B7010008B70100088F
:10017000B7010008B7010008B7010008B70100087F
:10018000B7010008B7010008DFF80CD000F050F804
:100190000048004711B7000808390020064880478A
:1001A00006480047FEE7FEE7FEE7FEE7FEE7FEE75C
:1001B000FEE7FEE7FEE7FEE791A0000889010008E0
:1001C00040EA01039B0703D009E008C9121F08C0D9
:1001D000042AFAD203E011F8013B00F8013B521E59
:1001E000F9D27047D2B201E000F8012B491EFBD2D0
:1001F00070470022F6E710B513460A460446194632
:10020000FFF7F0FF204610BD421C10F8011B00292B
:10021000FBD1801A704730B504460020034600E049
:100220005B1C934203D2E05CCD5C401BF8D030BD38
:10023000064C074D06E0E06840F0010394E8070033
:1002400098471034AC42F6D3FFF7A2FF709A0F081C
:10025000909A0F0870B501EB020410F8015B15F0DD
:10026000070301D110F8013B2A1106D110F8012B28
:1002700003E010F8016B01F8016B5B1EF9D12B074D
:1002800005D40023521E0FD401F8013BFAE710F801
:10029000013B02F10202A1EB030303E013F8015B4F
:1002A00001F8015B521EF9D5A142D6D3002070BDE2
:1002B00010B51F2003F006FF002003F073FE0BF0C3
:1002C0002BF81F2004F058FA4FF6FF7004F042FBA1
:1002D000002003F00FFF17A1012003F041FF1BA135
:1002E000022003F03DFF1FA1032003F039FF04208B
:1002F00003F000FF21A1052003F032FF25A1062015
:1003000003F02EFF29A1072003F02AFF082003F0A5
:10031000F1FE2CA1092003F023FF0BF005F84FF6A6
:10032000FF7003F0CFFE01F07FF9012003F03AFEE9
:1003300010BD0000202020202020204D32345352B8
:100340002020202020202020000000002020204409
:10035000656D6F6E7374726174696F6E20202020FA
:100360000000000020202056657273696F6E2031F6
:100370002E332E30202020200000000020202020BE
:1003800020204D4D59205465616D202020202020D3
:1003900000000000202020434F5059524947485444
:1003A0002032303134202020000000002053544DF2
:1003B0006963726F656C656374726F6E69637320D5
:1003C00000000000207777772E73742E636F6D2FF7
:1003D0006E66632D726669640000000010B51F2010
:1003E00003F070FE002003F0DDFD0AF095FF1F20F2
:1003F00004F0C2F94FF6FF7004F0ACFA18A1032024
:1004000003F0AEFE1CA1042003F0AAFE20A10520EB
:1004100003F0A6FE24A1062003F0A2FE4FF4FA602A
:100420000BF030F94FF4A073F0220021084604F0DD
:100430004FFA234A0021084604F09EFA214A00217F
:10044000A02004F099FA0AF06FFF4FF6FF7003F056
:1004500039FE01F0E9F8012003F0A4FD10BD000011
:1004600020202020596F757220616E74656E6E6158
:100470002020202000000000202064657369676E42
:10048000206D6164652065617379202000000000A3
:100490002020202020202077697468202020202020
:1004A0002020202000000000202020204D41545218
:1004B00049582D4D32345352202020200000000096
:1004C00050280D0855540E0810B5FF2400BF3220E7
:1004D0000BF0D8F8601EC4B206480078012801D09D
:1004E000002CF4D10CB9002010BD00200149087087
:1004F0000120F9E70009002010B50121052008F0CE
:10050000CBFA0121C80408F0F1FA10BD0EB5F421B0
:100510000648FFF76EFE06A000F09CFAFFF7D4FF36
:100520000021684600F04AF80EBD00004009002096
:1005300041542A50300D00000EB5FFF7E7FF05A02B
:1005400000F088FAFFF7C0FF0021684600F036F897
:100550000EBD000041542A500D0000001CB50220C1
:100560008DF804008DF8050000208DF806000220AB
:100570008DF807008002009069460E4802F072FD77
:100580004FF48060009069460A4802F06BFD082035
:10059000009002208DF8050001208DF80400002055
:1005A0008DF806008DF807006946034802F05AFDF1
:1005B0001CBD0000000802400000024070B5054666
:1005C0000C4605480068001B821E04480119284695
:1005D000FFF7F6FD70BD000004090020B9080020F7
:1005E00010B5044604A000F035FAFFF76DFF0621B0
:1005F0002046FFF7E3FF10BD41542A423F0D0000A3
:1006000010B50446032295A12046FFF704FE08B961
:10061000012010BD032292A12046FFF7FCFD08B97E
:100620000220F6E704228FA12046FFF7F4FD08B967
:100630000320EEE704228DA12046FFF7ECFD08B968
:100640000420E6E704228BA12046FFF7E4FD08B969
:100650000520DEE7022289A12046FFF7DCFD08B96C
:100660000620D6E7032286A12046FFF7D4FD08B96D
:100670000720CEE7042283A12046FFF7CCFD08B96E
:100680000820C6E7042281A12046FFF7C4FD08B96F
:100690000920BEE704227FA12046FFF7BCFD08B970
:1006A0000A20B6E704227DA12046FFF7B4FD28B951
:1006B000F4217C48FFF79DFD0B20AAE704227AA1D4
:1006C0002046FFF7A8FD08B90C20A2E7042278A174
:1006D0002046FFF7A0FD48B9241D77480068021F97
:1006E00021467048FFF76CFD0D2092E7042273A1AC
:1006F0002046FFF790FD50B9241D6F480068021F87
:10070000214668483430FFF75BFD0E2081E7042264
:100710006CA12046FFF77FFD50B9241D6648006894
:10072000021F21465F486830FFF74AFD0F2070E73F
:10073000042266A12046FFF76EFD50B9241D5E48D5
:100740000068021F214657489C30FFF739FD1020F2
:100750005FE704225FA12046FFF75DFD50B9241D2D
:1007600055480068021F21464E48A430FFF728FD77
:1007700011204EE7042259A12046FFF74CFD50B945
:10078000241D4D480068021F21464648AC30FFF743
:1007900017FD12203DE7042252A12046FFF73BFD42
:1007A00050B9241D44480068021F21463D48E030EE
:1007B000FFF706FD13202CE704224CA12046FFF78B
:1007C0002AFD08B9142024E704224AA12046FFF795
:1007D00022FD08B915201CE7042248A12046FFF796
:1007E0001AFD08B9162014E7032246A12046FFF798
:1007F00012FD08B917200CE7032243A12046FFF79A
:100800000AFD08B9182004E7032240A12046FFF79B
:1008100002FD08B91920FCE604223DA12046FFF79D
:10082000FAFC08B91A20F4E604223BA12046FFF79F
:10083000F2FC08B91B20ECE6032239A12046FFF7A1
:10084000EAFC08B91C20E4E6032236A12046FFF7A3
:10085000E2FC08B91D20DCE60020DAE62A5031006F
:100860002A5030003A2A4330000000003A2A43312F
:10087000000000003A2A4332000000002A4E000027
:100880003A2A42003A2A5A30000000003A2A5A31E5
:10089000000000003A2A5A32000000003A2D4D3183
:1008A00000000000400900203A2D4D3000000000FB
:1008B0003A2D413100000000FC0800203A2D413261
:1008C000000000003A2D4133000000003A2D413471
:1008D000000000003A2D4135000000003A2D41365D
:1008E000000000003A2D4137000000003A2D43314E
:1008F000000000003A2D4332000000003A2D43333F
:10090000000000003A2B43003A2B49003A2B4F00DD
:100910003A2B4230000000003A2B42310000000028
:100920003A2B56003A2B530000B595B0FFF7E4FD83
:1009300008220B21234802F05FFC08220A212148EB
:1009400002F05AFCFFF70AFE00F076F84FF49640EA
:1009500011900020ADF84800ADF84A00ADF84C0009
:10096000ADF850000C20ADF84E0011A916480AF061
:10097000FBFA012240F2255113480AF05BFA0121EB
:1009800011480AF0FFF840F2DC500AF07BFE00F05C
:100990002DF801280FD10D4908700DA000F05AF86C
:1009A000FFF792FD002101A8FFF708FEF4210E4891
:1009B000FFF71FFC04E000200449087015B000BDDB
:1009C0000120FBE700080240004C0040B80800206E
:1009D00041542A414D323453522D444953434F56CA
:1009E0004552590D000000004009002030B591B07B
:1009F000FF250EA000F02EF800BF04200AF042FEF2
:100A0000681EC5B20B480078012801D0002DF4D132
:100A10000DB9002407E000200649087001240021D8
:100A200001A8FFF7CBFD204611B030BD41542A503C
:100A3000300D00000009002010B50820044908838B
:100A400001200AF01FFE08200149488310BD000064
:100A50000000024010B504460BE000BF80210748AB
:100A60000AF0D8F80028F9D014F8011B03480AF05E
:100A7000B5FB20780028F0D110BD0000004C0040EC
:100A800000BFFEE7FEB502460B4600200021002411
:100A900000BF17E0002010E0555C154E16F81060FE
:100AA000B54208D1124D05EB40056D780DF80450A4
:100AB000651CECB203E0451CE8B21028ECDB00BF7B
:100AC0004D1CE9B29942E5D300200EE01DF810500C
:100AD00005F00F0645006D1C1DF8055066F31F1547
:100AE000C0F105069555451CE8B20628EEDBFEBDB3
:100AF0005A800F0830B595B00020149000246D4640
:100B000014A809F0E1FE122208A12846FFF758FBBD
:100B1000284609F081FD0446012C02D100F062F95B
:100B200001E000F0F9FA15B030BD0000636F6D2EE2
:100B30006E66632E6D3234737264656D6F000000F3
:100B40007047000001B582B0002001904FF0E02016
:100B5000006940F001004FF0E02108610A49029865
:100B6000086002E008F072FB01900748006840B19D
:100B70000198022805D00198032802D00198012885
:100B8000F0D101980EBD00000C00002010B50E48F9
:100B900008F0B2FF0446012C12D100200B49087066
:100BA0000B48007840B90B48007828B90A4800780B
:100BB00010B9002003F0D2FF012000F065FE02E032
:100BC000002000F061FE10BD30090020000300206D
:100BD000FE020020FF0200200103002010B50E4895
:100BE00003F045F90446012C12D100200B4908708E
:100BF0000B48007840B90B48007828B90A480078BB
:100C000010B9002003F0AAFF012001F0AFF802E0C4
:100C1000002001F0ABF810BD30090020FE020020DA
:100C2000FF020020000300200103002010B50E4841
:100C300008F076FF0446012C12D100200B49087001
:100C40000B48007840B90B48007828B90A4800786A
:100C500010B9002003F082FF012000F015FE02E031
:100C6000002000F011FE10BD30090020010300201B
:100C7000FE020020FF0200200003002010B50E48F5
:100C800003F009F90446012C12D100200B49087029
:100C90000B48007840B90B48007828B90A4800781A
:100CA00010B9002003F05AFF012001F05FF802E0C4
:100CB000002001F05BF810BD30090020FF02002089
:100CC000FE020020000300200103002010B50020D8
:100CD00005F0B8F8012003F041FF1F2003F0F2F9FE
:100CE000002003F05FF90AF017FB002003F044FD39
:100CF0004FF6FF7003F02EFE16A1002003F030FA2D
:100D00001F2003F039FD4FF6FF7003F023FE17A1FB
:100D1000032003F025FA1BA1042003F021FA1FA1F0
:100D2000052003F01DFA23A1062003F019FA002084
:100D300003F022FD25A1092003F012FA0AF0F4FACB
:100D40004FF6FF7003F0BEF900F06EFC012003F0D7
:100D500029F910BD20204D323453522D44495343BC
:100D60004F5645525920202000000000202020200E
:100D700020204D3234535220524620202020202063
:100D8000000000002020686173206265656E2064A9
:100D9000697361626C6564200000000020202020DF
:100DA00067657420636C6F736520746F202020204A
:100DB0000000000020616E74656E6E612069732012
:100DC0006E6F2075736520200000000050726573FF
:100DD00073206B657920746F2072657475726E2054
:100DE0000000000010B5002003F0C6FC4FF6FF70B5
:100DF00003F0B0FD1F2003F065F91CA1002003F0F3
:100E0000AFF91F2003F0B8FC4FF6FF7003F0A2FD0E
:100E10001CA1022003F0A4F920A1032003F0A0F9F3
:100E200024A1042003F09CF928A1052003F098F9DF
:100E30002CA1062003F094F930A1072003F090F9CB
:100E4000002003F099FC33A1092003F089F9012067
:100E500003F0A8F80AF068FA002003F0A3F84FF6B0
:100E6000FF7003F02FF900F0DFFB10BD20204D32A2
:100E70003453522D444953434F5645525920202054
:100E800000000000202020414152207265636F72F3
:100E900064206861732020200000000020626565E6
:100EA0006E20646F776E6C6F6164656420696E207C
:100EB00000000000204D323453522E20506C6561EA
:100EC0007365207761766520000000002020796F2F
:100ED00075722070686F6E65206E656172202020CB
:100EE00000000000616E74656E6E6120746F206C8E
:100EF00061756E6368206F720000000020646F7778
:100F00006E6C6F6164204D323453522041707020FA
:100F1000000000005072657373206B657920746F58
:100F20002072657475726E20000000002DE9F0419A
:100F300004460025002600271F2003F0C3F80020E8
:100F400003F01AFC4FF6FF7003F004FD002003F0DD
:100F500029F80AF0E1F958A1002003F001F91F2057
:100F600003F00AFC4FF4FC6003F0F4FC58A10120EC
:100F700003F0F6F85CA1042003F0F2F860A107206A
:100F800003F0EEF84FF6FF7003F0E4FC84E0204637
:100F9000FFF73AF910B32046FFF736F9142812D9B3
:100FA0002046FFF731F90F38A8420CD92046FFF749
:100FB0002BF9401B00F0FF0861194246022003F0A4
:100FC000E7F86D1C0AE02046FFF71EF900F0FF0865
:100FD00042462146022003F0DBF8002504F14000E0
:100FE000FFF712F948B304F14000FFF70DF9142898
:100FF00016D904F14000FFF707F90F38B0420FD9B6
:1010000004F14000FFF700F9801B00F0FF0804F135
:10101000400081194246052003F0BAF8761C0CE026
:1010200004F14000FFF7F0F800F0FF08424604F139
:101030004001052003F0ACF8002604F1A400FFF7FE
:10104000E3F848B304F1A400FFF7DEF8142816D93A
:1010500004F1A400FFF7D8F80F38B8420FD904F113
:10106000A400FFF7D1F8C01B00F0FF0804F1A400B2
:10107000C1194246082003F08BF87F1C0CE004F1F4
:10108000A400FFF7C1F800F0FF08424604F1A401F4
:10109000082003F07DF8002708F0D8F800283FF476
:1010A00076AF4FF6FF7003F00DF800F0BDFA0120A7
:1010B00002F078FFBDE8F0812020202020202020B1
:1010C000456D61696C202020202020202020000018
:1010D000546F3A2020202020202020202020202073
:1010E00020202020202000005375626A6563743A36
:1010F0002020202020202020202020202020000030
:101100004D6573736167653A2020202020202020E0
:10111000202020202020000010B5002003F02CFB10
:101120004FF6FF7003F016FC1F2002F0CBFF1CA14E
:10113000002003F015F81F2003F01EFB4FF6FF7090
:1011400003F008FC1CA1022003F00AF820A10320F0
:1011500003F006F824A1042003F002F828A10520DA
:1011600002F0FEFF2CA1062002F0FAFF30A10720BA
:1011700002F0F6FF002003F0FFFA33A1092002F08D
:10118000EFFF012002F00EFF0AF0CEF8002002F07F
:1011900009FF4FF6FF7002F095FF00F045FA10BD11
:1011A00020204D323453522D444953434F5645521B
:1011B000592020200000000020204E444546206E8B
:1011C0006F742073746F726564202020000000002B
:1011D0002020506C6561736520636865636B2074C3
:1011E000686520200000000020204E4643207068E3
:1011F0006F6E65206973206E6F7420200000000000
:10120000202020636C6F736520746F204D3234533F
:10121000522020200000000020616E74656E6E6117
:101220002C206C656176696E6720524600000000D4
:1012300020202073657373696F6E206F70656E6513
:1012400064202020000000005072657373206B65DD
:101250007920746F2072657475726E200000000032
:101260002DE9F04104460025002600271F2002F04A
:1012700029FF002003F080FA4FF6FF7003F06AFBAD
:10128000002002F08FFE0AF047F858A1002002F07B
:1012900067FF1F2003F070FA4FF4FC6003F05AFB65
:1012A00058A1022002F05CFF5CA1052002F058FF6B
:1012B00060A1082002F054FF4FF6FF7003F04AFBD4
:1012C00084E02046FEF7A0FF10B32046FEF79CFF07
:1012D000142812D92046FEF797FF0F38A8420CD9E0
:1012E0002046FEF791FF401B00F0FF0861194246BF
:1012F000032002F04DFF6D1C0AE02046FEF784FF3C
:1013000000F0FF0842462146032002F041FF00257D
:1013100004F11400FEF778FF48B304F11400FEF75F
:1013200073FF142816D904F11400FEF76DFF0F386F
:10133000B0420FD904F11400FEF766FF801B00F0E5
:10134000FF0804F1140081194246062002F020FF34
:10135000761C0CE004F11400FEF756FF00F0FF08C5
:10136000424604F11401062002F012FF002604F1A7
:101370002800FEF749FF48B304F12800FEF744FFB8
:10138000142816D904F12800FEF73EFF0F38B842A2
:101390000FD904F12800FEF737FFC01B00F0FF084B
:1013A00004F12800C1194246092002F0F1FE7F1C19
:1013B0000CE004F12800FEF727FF00F0FF0842468A
:1013C00004F12801092002F0E3FE002707F03EFFA8
:1013D00000283FF476AF4FF6FF7002F073FE00F086
:1013E00023F9012002F0DEFDBDE8F081202020205D
:1013F00047656F6C6F636174696F6E2020202020D9
:10140000000000004C617469747564653A20202006
:101410002020202020202020000000004C6F6E673C
:1014200069747564653A2020202020202020202027
:1014300000000000496E666F726D6174696F6E3AEC
:1014400020202020202020200000000010B50024B3
:1014500000BF19E0042C02D102F006FE98B10C483E
:1014600050F8340078B10A4B53F83420094B03EBA1
:1014700084035B88DB1C99B2064B33F824309B1C39
:1014800098B203F079FA641C0C2CE3D310BD000071
:10149000100000207000002030B589B004460D46D1
:1014A0001F2002F00FFE002003F066F94FF6FF70D8
:1014B00003F050FA002002F075FD09F02DFF24A181
:1014C000002002F04DFE1F2003F056F9BCB101AA26
:1014D0001021284602F0F6F823A1032002F040FE76
:1014E000102201A9042002F053FE102205A90520B4
:1014F00002F04EFE22A1062002F032FE13E026A1E9
:10150000032002F02DFE2AA1042002F029FE2EA1C4
:10151000052002F025FE32A1062002F021FE36A1B0
:10152000072002F01DFE002003F026F938A1092053
:1015300002F016FE09F0F8FE4FF6FF7002F0C2FD51
:1015400000F072F8012002F02DFD09B030BD00005E
:1015500020204D323453522D444953434F56455267
:101560005920202000000000202020204E657720F8
:1015700050617373776F7264202020200000000098
:1015800020202020206163746976617465642020C6
:1015900020202020000000002020202041637469CA
:1015A0006F6E2061626F727465642020000000001D
:1015B00020205468652070617373776F72642068AF
:1015C00061732020000000006265656E206D6F640D
:1015D0006966696564206F6E205246200000000035
:1015E000736964652C207573652053757065725539
:1015F00073657220000000006D6F646520746F20B9
:10160000756E6C6F636B204D3234535200000000D6
:101610005072657373206B657920746F20726574E6
:1016200075726E200000000070B5002400251F2098
:1016300003F0A2F84FF6FF7003F08CF94FF6FF703D
:1016400002F040FD1C4A12682046116802F088FD35
:10165000A41C4FF6FF7003F08FF81F2003F07AF9F7
:101660000AE015480068406800EB0516A0B2316832
:1016700002F076FD6D1CA41C0F480068007AA84299
:10168000EFD84FF4FC6003F077F84FF6FF7003F0EB
:1016900061F90948006840680849097800EB0110C1
:1016A000074908600A4612681168044A1278521CF9
:1016B000500002F055FD70BD6C08002003030020AF
:1016C0006408002070B50446002003F055F84FF67A
:1016D000FF7003F03FF91F2002F0F4FC1AA1002074
:1016E00002F03EFD1F2003F047F84FF6FF7003F0B5
:1016F00031F92046FEF788FDC5B22A462146022070
:1017000002F046FD16A1032002F02AFD1AA10520D1
:1017100002F026FD1EA1062002F022FD002003F0AB
:101720002BF821A1092002F01BFD012002F03AFC58
:1017300009F0FAFD002002F035FC4FF6FF7002F0D0
:10174000C1FCFFF771FF70BD20204D323453522D84
:10175000444953434F564552592020200000000071
:10176000202073746F72656420696E204D3234538B
:1017700052202020000000002020202057616974A2
:10178000696E6720666F7220202020200000000014
:1017900020202020204E46432070686F6E65202058
:1017A00020202020000000005072657373206B65BC
:1017B0007920746F2072657475726E2000000000CD
:1017C00010B5002002F0D8FF4FF6FF7003F0C2F80A
:1017D0001F2002F077FC0EA1002002F0C1FC1F20A8
:1017E00002F0CAFF4FF6FF7003F0B4F80EA1032019
:1017F00002F0B6FC12A1042002F0B2FC16A10520F2
:1018000002F0AEFC1AA1062002F0AAFC10BD0000F6
:1018100020204D323453522D444953434F564552A4
:1018200059202020000000002020202053746F72D7
:10183000696E6720376B42202020202000000000C6
:101840002020202020202056636172642020202048
:101850002020202000000000202020202020696E71
:10186000204D323453522020202020200000000040
:1018700020202020202020202E2E2E20202020203E
:10188000202020200000000010B504461F2002F098
:1018900019FC002002F070FF4FF6FF7003F05AF8B9
:1018A000002002F07FFB09F037FD16A1002002F0B6
:1018B00057FC1F2002F060FF012C08D117A1042063
:1018C00002F04EFC1BA1052002F04AFC07E01FA11C
:1018D000042002F045FC23A1052002F041FC002079
:1018E00002F04AFF25A1092002F03AFC09F01CFD94
:1018F0004FF6FF7002F0E6FBFFF796FE012002F0C4
:1019000051FB10BD20204D323453522D44495343D6
:101910004F56455259202020000000004C696D6947
:10192000746174696F6E20686173206265656E20F2
:101930000000000020202020202072656D6F766559
:10194000642020202020202000000000204C696D11
:1019500069746174696F6E20686173206E6F7420A2
:1019600000000000202020206265656E2072656DF9
:101970006F7665642020202000000000507265739F
:1019800073206B657920746F2072657475726E2098
:10199000000000002DE9F041044600250026002744
:1019A0001F2002F08FFB002002F0E6FE4FF6FF70D2
:1019B00002F0D0FF002002F0F5FA09F0ADFC58A1CA
:1019C000002002F0CDFB1F2002F0D6FE4FF4FC6099
:1019D00002F0C0FF58A1022002F0C2FB5CA105206A
:1019E00002F0BEFB60A1082002F0BAFB4FF6FF70C8
:1019F00002F0B0FF84E02046FEF706FC10B320465C
:101A0000FEF702FC142812D92046FEF7FDFB0F3822
:101A1000A8420CD92046FEF7F7FB401B00F0FF0858
:101A200061194246032002F0B3FB6D1C0AE0204618
:101A3000FEF7EAFB00F0FF0842462146032002F0D1
:101A4000A7FB002504F11000FEF7DEFB48B304F10C
:101A50001000FEF7D9FB142816D904F11000FEF788
:101A6000D3FB0F38B0420FD904F11000FEF7CCFBC6
:101A7000801B00F0FF0804F1100081194246062087
:101A800002F086FB761C0CE004F11000FEF7BCFBB4
:101A900000F0FF08424604F11001062002F078FB36
:101AA000002604F1D800FEF7AFFB48B304F1D800DC
:101AB000FEF7AAFB142816D904F1D800FEF7A4FB00
:101AC0000F38B8420FD904F1D800FEF79DFBC01BB8
:101AD00000F0FF0804F1D800C1194246092002F0C5
:101AE00057FB7F1C0CE004F1D800FEF78DFB00F0E3
:101AF000FF08424604F1D801092002F049FB002703
:101B000007F0A4FB00283FF476AF4FF6FF7002F019
:101B1000D9FAFFF789FD012002F044FABDE8F0810F
:101B20002020202020202020534D53202020202022
:101B3000202020200000000050686F6E65204E7548
:101B40006D6265723A2020202020202000000000D5
:101B5000534D53206D6573736167653A20202020D3
:101B60002020202000000000496E73747275637499
:101B7000696F6E3A202020202020202000000000E5
:101B80002DE9F04104460025002600271F2002F021
:101B900099FA002002F0F0FD4FF6FF7002F0DAFE35
:101BA000002002F0FFF909F0B7FB58A1002002F075
:101BB000D7FA1F2002F0E0FD4FF4FC6002F0CAFEED
:101BC00058A1012002F0CCFA5CA1042002F0C8FA6E
:101BD00060A1072002F0C4FA4FF6FF7002F0BAFECF
:101BE00084E02046FEF710FB10B32046FEF70CFB06
:101BF000142812D92046FEF707FB0F38A8420CD94B
:101C00002046FEF701FB401B00F0FF086119424629
:101C1000022002F0BDFA6D1C0AE02046FEF7F4FA3D
:101C200000F0FF0842462146022002F0B1FA0025EA
:101C300004F15000FEF7E8FA48B304F15000FEF753
:101C4000E3FA142816D904F15000FEF7DDFA0F3834
:101C5000B0420FD904F15000FEF7D6FA801B00F015
:101C6000FF0804F1500081194246052002F090FA65
:101C7000761C0CE004F15000FEF7C6FA00F0FF08F5
:101C8000424604F15001052002F082FA002604F5D4
:101C9000F070FEF7B9FA48B304F5F070FEF7B4FA45
:101CA000142816D904F5F070FEF7AEFA0F38B842D2
:101CB0000FD904F5F070FEF7A7FAC01B00F0FF087B
:101CC00004F5F070C1194246082002F061FA7F1C49
:101CD0000CE004F5F070FEF797FA00F0FF084246BA
:101CE00004F5F071082002F053FA002707F0AEFA6D
:101CF00000283FF476AF4FF6FF7002F0E3F9FFF7EC
:101D000093FC012002F04EF9BDE8F0812020202054
:101D10002020202020555249202020202020202033
:101D2000202000005552492070726F746F636F6CF1
:101D30003A20202020202020000000005552492079
:101D4000636F6E74656E743A20202020202020205E
:101D50000000000055524920696E666F726D617413
:101D6000696F6E3A202020200000000010B5044664
:101D70001F2002F0A7F9002002F0FEFC4FF6FF70D2
:101D800002F0E8FD002002F00DF909F0C5FA1CA1EF
:101D9000002002F0E5F91F2002F0EEFC44B11EA184
:101DA000042002F0DDF922A1052002F0D9F913E0A8
:101DB00025A1032002F0D4F929A1042002F0D0F9D2
:101DC0002DA1052002F0CCF931A1062002F0C8F9BE
:101DD00035A1072002F0C4F9002002F0CDFC38A1A3
:101DE000092002F0BDF909F09FFA4FF6FF7002F0EA
:101DF00069F9FFF719FC012002F0D4F810BD0000CA
:101E000020204D323453522D444953434F564552AE
:101E10005920202000000000202020202020506198
:101E20007373776F72642020202020200000000050
:101E300020686173206265656E2064697361626CFD
:101E40006564202000000000202020204163746988
:101E50006F6E2061626F7274656420200000000064
:101E600020205468652070617373776F72642068F6
:101E700061732020000000006265656E206D6F6454
:101E80006966696564206F6E20524620000000007C
:101E9000736964652C207573652053757065725580
:101EA00073657220000000006D6F646520746F2000
:101EB000756E6C6F636B204D32345352000000001E
:101EC0005072657373206B657920746F207265742E
:101ED00075726E200000000070B504461F2002F0ED
:101EE000F1F8002002F048FC4FF6FF7002F032FDDE
:101EF000002002F057F809F00FFA6CA1002002F060
:101F00002FF91F2002F038FC4FF4FC6002F022FD94
:101F100003226CA12046FEF77EF978B914226AA14B
:101F2000022002F035F914226DA1032002F030F9ED
:101F3000142271A1032002F02BF9ABE004F10A0096
:101F4000FEF762F9C5B22A4604F10A01022002F046
:101F50001FF914226EA104F10A00FEF75CF90028B3
:101F600073D04FF6FF7002F0F5FC04F15A00FEF753
:101F70004BF9C5B22A4604F15A01042002F008F9CF
:101F800004F1AA00FEF740F9C5B22A4604F1AA01FD
:101F9000052002F0FDF804F5F570FEF735F9E0B91B
:101FA00004F5E170FEF730F958B904F5CD70FEF78D
:101FB0002BF9C5B22A4604F5CD71072002F0E8F8E6
:101FC00016E004F5E170FEF71FF9C5B22A4604F5E4
:101FD000E171072002F0DCF80AE004F5F570FEF785
:101FE00013F9C5B22A4604F5F571072002F0D0F8BE
:101FF00004F5A570FEF708F958B904F1FA00FEF7E8
:1020000003F9C5B22A4604F1FA01082002F0C0F82B
:102010000AE004F5A570FEF7F7F8C5B22A4604F504
:10202000A571082002F0B4F804F26220FEF7ECF883
:1020300060B904F21220FEF7E7F8C5B22A4604F2AE
:102040001221092002F0A4F80BE022E004F2622041
:10205000FEF7DAF8C5B22A4604F26221092002F03E
:1020600097F83148FEF7D0F805462A462E4904F184
:102070000A00FEF7D0F830B92C4A19214FF48270CB
:1020800002F07AFC05E02A4A19214FF4827002F02E
:1020900073FC00BF09F048F94FF6FF7002F012F828
:1020A000FFF7C2FA012001F07DFF70BD2020202043
:1020B0002020205643415244202020202020202050
:1020C00000000000332E300020205663617264202F
:1020D00056657273696F6E20332E30200000000049
:1020E000206E6F7420737570706F727465642077E2
:1020F0006974682000000000202020207468697343
:10210000206669726D7761726520202000000000F2
:102110004E444546206973206E6F742061205663DB
:102120006172642000000000E501002003AC030898
:10213000BD7103082DE9F04399B000240025002665
:1021400000271F2001F0BEFF002001F02BFF09F047
:10215000E3F8002002F010FB4FF6FF7002F0FAFBEC
:10216000D7A1002001F0FCFFDBA1092001F0F8FF5E
:102170001F2002F001FB92E1DD48FEF745F8002840
:1021800039D0DCA0016800918188ADF80410807915
:102190008DF80600D648FEF737F880464246D44907
:1021A0000DF10700FEF70CF8D148FEF72DF80D28C9
:1021B00014D9CF48FEF728F80838A0420ED9CC48E9
:1021C000FEF722F8C01D001B00F0FF080DEB040114
:1021D0004246022001F0DCFF641C10E00024C448E9
:1021E000FEF712F8C01D00F0FF08424669460220C3
:1021F00001F0CEFF03E0C1A1022001F0B1FFBC4815
:102200003430FEF701F8002839D0C2A103C9CDE966
:102210000001B7483430FDF7F7FF80464246B44925
:10222000343102A8FDF7CCFFB1483430FDF7ECFFA4
:102230000C2816D9AE483430FDF7E6FFC01FA8427F
:102240000FD9AB483430FDF7DFFF0830401B00F0FA
:10225000FF080DEB05014246032001F099FF6D1CBC
:1022600011E00025A2483430FDF7CEFF083000F021
:10227000FF0842466946032001F08AFF03E0A8A157
:10228000032001F06DFF9A486830FDF7BDFF00287C
:102290003FD0A9A0016800918188ADF80410807931
:1022A0008DF8060092486830FDF7AEFF8046424642
:1022B0008F4968310DF10700FDF782FF8C486830C7
:1022C000FDF7A2FF0D2816D989486830FDF79CFF5D
:1022D0000838B0420FD986486830FDF795FFC01D19
:1022E000801B00F0FF080DEB06014246042001F0C0
:1022F0004FFF761C11E000267D486830FDF784FF13
:10230000C01D00F0FF0842466946042001F040FF6E
:1023100003E08BA1042001F023FF75489C30FDF7FA
:1023200073FF002845D08CA0016800918188ADF82A
:10233000041080798DF806006D489C30FDF764FF2D
:10234000804642466A499C310DF10700FDF738FF8F
:1023500067489C30FDF758FFC01D6946084480A1BE
:10236000097801706248A430FDF74EFF814660484D
:102370009C30FDF749FF0830694600EB01084A46EA
:102380005B49A4314046FDF71BFF5948A430FDF7D7
:102390003BFF00F1010956489C30FDF735FF4844EA
:1023A000C01D00F0FF0842466946052001F0F0FE1E
:1023B00003E06CA1052001F0D3FE4D48AC30FDF7E1
:1023C00023FF88B36DA0016800918188ADF80410E7
:1023D00080798DF806004648AC30FDF715FF804641
:1023E00042464349AC310DF10700FDF7E9FE404894
:1023F000AC30FDF709FF0D2817D93D48AC30FDF78B
:1024000003FF0838B84210D93948AC30FDF7FCFE5C
:10241000C01DC01B00F0FF080DEB0701424606205F
:1024200001F0B6FE7F1C12E00DE000273048AC3012
:10243000FDF7EAFEC01D00F0FF084246694606208F
:1024400001F0A6FE03E04FA1062001F089FE284816
:10245000E030FDF7D9FEF0B150A00168009180880E
:10246000ADF804002248E030FDF7CEFE804642463B
:102470001F49E0310DF10600FDF7A2FE1C48E030D7
:10248000FDF7C2FE801D00F0FF08424669460720A6
:1024900001F07EFE03E043A1072001F061FE06F09B
:1024A000D5FE00283FF468AE4FF6FF7001F00AFE3B
:1024B000FFF7BAF8012001F075FD19B0BDE8F0830F
:1024C0002020536F6E6720496E666F726D6174696C
:1024D0006F6E2020000000005072657373206B65E2
:1024E0007920746F2072657475726E200000000090
:1024F000400900205469746C653A20005469746C7A
:10250000653A20202020202020202020202020206C
:10251000000000004172746973743A2000000000EA
:102520004172746973743A202020202020202020DA
:102530002020202000000000416C62756D3A2000D0
:10254000416C62756D3A2020202020202020202020
:10255000202020200000000050697374653A20009C
:102560002F00000050697374653A2020202020203D
:1025700020202020202020200000000047656E72CF
:10258000653A200047656E72653A202020202020A1
:1025900020202020202020200000000054696D65AC
:1025A0003A20000054696D653A2020202020202028
:1025B00020202020202020200000000010B504460C
:1025C0001F2001F07FFD002002F0D6F84FF6FF70CB
:1025D00002F0C0F9002001F0E5FC08F09DFE16A114
:1025E000002001F0BDFD1F2002F0C6F8012C08D12B
:1025F00017A1042001F0B4FD1BA1052001F0B0FDDE
:1026000007E01FA1042001F0ABFD23A1052001F08C
:10261000A7FD002002F0B0F825A1092001F0A0FDDF
:1026200008F082FE4FF6FF7001F04CFDFEF7FCFF54
:10263000012001F0B7FC10BD20204D323453522D43
:10264000444953434F564552592020200000000072
:102650004C696D69746174696F6E20686173206282
:1026600065656E2000000000202020202020656E7F
:1026700061626C6564202020202020200000000082
:10268000204C696D69746174696F6E206861732094
:102690006E6F7420000000002020202020626565FD
:1026A0006E20656E61626C65642020200000000071
:1026B0005072657373206B657920746F2072657436
:1026C00075726E200000000010B52848007800B92F
:1026D00010BD4FF6FF7002F04FF81F2002F03AF9DC
:1026E0002348006840682349097800EB011022491B
:1026F00008600A46126811681E4A1278521C50007F
:1027000001F02EFD1A480068007A401E1949097828
:10271000884203DC00201749087004E0154800785F
:10272000401C144908704FF4FC6002F025F84FF685
:10273000FF7002F00FF90E48006840680D490978F3
:1027400000EB01100C4908600A4612681168094A3A
:102750001278521C500001F003FD0648007807492A
:10276000074A1278885400BFB2E700000203002035
:102770006C0800200303002064080020600800208B
:102780000403002010B5402000F032F828B10120E9
:102790000C490860402000F017F8802000F028F86D
:1027A00020B1FFF791FF802000F00EF84FF4007089
:1027B00000F01EF828B108F051FD4FF4007000F051
:1027C00003F810BD0000002010B50446E00DC00560
:1027D00001D104B104E040F22311034808F033FFB3
:1027E0000248046010BD0000B0810F08143C014095
:1027F00070B504460025012C3AD0022C38D0042CA8
:1028000036D0082C34D0102C32D0202C30D0402C94
:102810002ED0802C2CD0B4F5807F29D0B4F5007F49
:1028200026D0B4F5806F23D0B4F5006F20D0B4F576
:10283000805F1DD0B4F5005F1AD0B4F5804F17D07B
:10284000B4F5004F14D0B4F5803F11D0B4F5003F7B
:102850000ED0B4F5802F0BD0B4F5002F08D0B4F50E
:10286000801F05D0B4F5001F02D0B4F5800F00D151
:1028700004E04FF48671064808F0E5FE054800685C
:10288000204201D0012500E00025284670BD00004F
:10289000B0810F08143C014070B504460025207932
:1028A00010B12079042800D103E08321354808F0D5
:1028B000CAFE6079082805D060790C2802D06079BA
:1028C000102800D103E084212E4808F0BCFE2068C7
:1028D000C00DC00502D1206800B103E08521294860
:1028E00008F0B1FEA07910B1A079012800D103E071
:1028F0008621244808F0A7FE234DA07990B32846EE
:1029000000682168884329460860081D006821681E
:102910008843291D086020790544286821680843F8
:102920002860194808300068216888431649083132
:102930000860081D00682168884313490C3108604D
:10294000607910280FD1081F0068216808430E49DC
:1029500008310860081D0068216808430A490C31E5
:1029600008600EE007E0084D60790544286821689A
:102970000843286005E020790544286821688843D9
:10298000286070BDB0810F08003C0140002101604B
:1029900001710C21417100218171704710B5094806
:1029A00007F0D2F80446012C08D10749087000202E
:1029B00002F0ECF80120FFF701FE02E00020FFF733
:1029C000FDFD10BD30090020000300207FB500F0A0
:1029D00071FE0546002414E0E8B20DF80400C5F3CA
:1029E0000721601C0DF80010C5F30741A01C0DF86D
:1029F0000010290EE01C0DF8001005EB0525201D28
:102A000084B2102CE8DB69460F4801F058FA0646FC
:102A1000012E13D10D490870002002F0B7F80024F0
:102A200005E01DF804000A490855601C84B2102C0A
:102A3000F7DB69460120FEF72FFD03E06946002021
:102A4000FEF72AFD7FBD000030090020FE020020B5
:102A50002009002010B5094807F08AF80446012C27
:102A600008D107490870002002F090F80120FFF714
:102A7000A5FD02E00020FFF7A1FD10BD30090020F8
:102A8000010300207FB500F015FE0546002414E088
:102A9000E8B20DF80400C5F30721601C0DF8001022
:102AA000C5F30741A01C0DF80010290EE01C0DF81D
:102AB000001005EB0525201D84B2102CE8DB6946CB
:102AC0000F4801F012FA0646012E13D10D49087085
:102AD000002002F05BF8002405E01DF8040008491E
:102AE0000855601C84B2102CF7DB69460120FEF704
:102AF000D3FC03E069460020FEF7CEFC7FBD00005A
:102B000030090020FF02002010B5FDF715FD02205E
:102B100002F03CF81F2001F0D5FA002001F042FA43
:102B200008F0FAFB002001F027FE4FF6FF7001F0DD
:102B300011FF11A1002001F013FB15A1092001F0E4
:102B40000FFB1F2001F018FE4FF6FF7001F002FF8F
:102B500015A1042001F004FB19A1052001F000FBE0
:102B600008F0E2FB4FF6FF7001F0ACFAFEF75CFDF7
:102B7000012001F017FA10BD20204D323453522DA0
:102B8000444953434F56455259202020000000002D
:102B90005072657373206B657920746F2072657451
:102BA00075726E20000000002020204E65772064A2
:102BB00065766963652063616E2020200000000057
:102BC00020202020206265207061697265642020C9
:102BD000202020200000000070B596B00020159045
:102BE0000024002501AE15A807F06EFE12227FA179
:102BF0003046FDF7E5FA304607F00EFD00210520CE
:102C000006F0CAFF1F2001F05DFA002001F0CAF9AA
:102C100008F082FB002001F0AFFD4FF6FF7001F0DD
:102C200099FE77A1002001F09BFA7BA1092001F019
:102C300097FA1F2001F0A0FD4FF6FF7001F08AFE09
:102C40007BA1022001F08CFA7FA1032001F088FA19
:102C500083A1042001F084FA87A1052001F080FA05
:102C60004FF4784001F076FE4123402291210C2060
:102C700001F014FB412340229121582001F00EFB6A
:102C8000412340229121A42001F008FB412340224E
:102C90009121F02001F002FB95E005E000F086F9BB
:102CA0000546022D00D105E04021794800F06CFB7B
:102CB0000028F3D100BF022D00D187E014F0070FE8
:102CC0000AD14FF4FC6001F045FE412340229121DE
:102CD0000C2001F0E3FA67E004F0070001280AD1B4
:102CE0004FF4FC6001F036FE412340229121582030
:102CF00001F0D4FA58E004F0070002280AD14FF49A
:102D0000FC6001F027FE412340229121A42001F024
:102D1000C5FA49E004F0070003280AD14FF4FC602B
:102D200001F018FE412340229121F02001F0B6FA73
:102D30003AE004F0070004280AD14FF4784001F08B
:102D400009FE4123402291210C2001F0A7FA2BE03B
:102D500004F0070005280AD14FF4784001F0FAFD8D
:102D6000412340229121582001F098FA1CE004F000
:102D7000070006280AD14FF4784001F0EBFD41230B
:102D800040229121A42001F089FA0DE004F007000F
:102D9000072809D14FF4784001F0DCFD412340229F
:102DA0009121F02001F07AFA641C05E000F0FEF8B1
:102DB0000546022D00D105E04021354800F0E4FA37
:102DC0000128F3D100BF022D7FF467AF00BF0021BF
:102DD000012006F0E1FE4FF6FF7001F073F9FEF7F7
:102DE00023FC012001F0DEF816B070BD636F6D2E7C
:102DF0006E66632E6D3234737264656D6F00000011
:102E000020204D323453522D444953434F5645529E
:102E100059202020000000005072657373206B65FC
:102E20007920746F2072657475726E200000000046
:102E30002020202057616974696E6720666F7220B8
:102E400020202020000000002020206170706C698C
:102E5000636174696F6E20746F2020200000000091
:102E60002067656E657261746520696E7465727243
:102E7000757074200000000077697468204D32344A
:102E800053522047504F206C696E652000000000AF
:102E90000000024010B5012002F0D4FF012001F033
:102EA00075FE1F2001F00EF9002001F07BF808F0FC
:102EB00033FA002001F060FC4FF6FF7001F04AFD8C
:102EC00016A1002001F04CF91F2001F055FC4FF62F
:102ED000FF7001F03FFD17A1032001F041F91BA194
:102EE000042001F03DF91FA1052001F039F923A1CB
:102EF000062001F035F9002001F03EFC25A1092053
:102F000001F02EF908F010FA4FF6FF7001F0DAF830
:102F1000FEF78AFB012001F045F810BD20204D325C
:102F20003453522D444953434F5645525920202083
:102F3000000000002020202020204D323453522059
:102F40005246202020202020000000002020686120
:102F500073206265656E20656E61626C6564202019
:102F6000000000002020202067657420636C6F73D0
:102F70006520746F202020200000000020616E7406
:102F8000656E6E6120666F7220616374696F6E207A
:102F9000000000005072657373206B657920746FB8
:102FA0002072657475726E200000000010B5002458
:102FB0004021054800F0E8F900B9012406F046F97F
:102FC00000B10224204610BD0000024010B50446A6
:102FD0000CB1012C00D104E04FF48571084808F0D1
:102FE00032FB34B10748006840F48070054908603E
:102FF00005E00448006820F480700249086010BDB4
:10300000D4800F08003C024010B50446ECB1012CFE
:103010001BD0022C19D0032C17D0042C15D0052C52
:1030200013D0062C11D0072C0FD0082C0DD0092C52
:103030000BD00A2C09D00B2C07D00C2C05D00D2C52
:1030400003D00E2C01D00F2C00D103E0FB2103484C
:1030500008F0F9FA02490C7010BD0000D4800F0886
:10306000003C02402DE9F04104460D4600260027B1
:10307000B046554884421DD0544884421AD0544822
:10308000844217D05348844214D05348844211D00C
:10309000524884420ED0524884420BD05148844258
:1030A00008D05148844205D05048844202D050484C
:1030B000844200D103E0CF214E4808F0C4FA00203A
:1030C00010B9286800B103E0D0214A4808F0BBFAE3
:1030D000287940B12879012805D02879022802D022
:1030E0002879032800D103E0D121424808F0ABFA47
:1030F000E87928B1E879012802D0E879022800D1DE
:1031000003E0D2213B4808F09EFA002657E0012058
:1031100000FA06F7286800EA0708B8454ED120688B
:103120007200032191408843206028797100884013
:103130002168084320602879012802D028790228D4
:1031400030D1687940B16879012805D068790228C2
:1031500002D06879032800D103E0E421254808F073
:1031600072FAA0687200032191408843A0606879D8
:1031700071008840A1680843A060A87910B1A879BF
:10318000012800D103E0EB211A4808F05CFA6168DD
:103190000120B040814361606168A879B04080B28D
:1031A00001436160E0687200032191408843E06060
:1031B000E87971008840E1680843E060761C102ED1
:1031C000A5D3BDE8F08100000000024000040240E9
:1031D00000080240000C02400010024000140240AF
:1031E00000180240001C024000200240002402405F
:1031F00000280240FC810F082DE9F04106460D46EB
:1032000014460027B846544886421DD0534886428B
:103210001AD05348864217D05248864214D052489A
:10322000864211D0514886420ED0514886420BD07A
:103230005048864208D05048864205D04F488642C2
:1032400002D04F48864200D104E040F249214D4867
:1032500008F0F9F9EDB1012D1BD0022D19D0032D85
:1032600017D0042D15D0052D13D0062D11D0072D04
:103270000FD0082D0DD0092D0BD00A2D09D00B2D04
:1032800007D00C2D05D00D2D03D00E2D01D00F2D04
:1032900000D104E040F24A213A4808F0D4F9A4B33E
:1032A000092C32D08CB384B37CB374B3012C2CD0F2
:1032B0002BD0022C29D028D027D0032C25D0042CA9
:1032C00023D022D021D0052C1FD01ED0092C1CD0F9
:1032D000062C1AD0092C18D0072C16D015D014D0D3
:1032E000082C12D011D010D0092C0ED00DD00A2CE1
:1032F0000BD00AD00B2C08D00C2C06D005D00D2CEE
:1033000003D00F2C01D00C2C00D104E040F24B2153
:103310001C4808F098F96807C00E04FA00F7E91095
:1033200006F1200050F821006907CA0E0F219140D4
:103330008843EA1006F1200141F82200E91006F165
:10334000200050F8210040EA0708E91006F12000AB
:1033500040F82180BDE8F0810000024000040240F6
:1033600000080240000C024000100240001402401D
:1033700000180240001C02400020024000240240CD
:1033800000280240FC810F0870B505460C46002657
:103390002E4885421DD02E4885421AD02D488542A0
:1033A00017D02D48854214D02C48854211D02C4886
:1033B00085420ED02B4885420BD02B48854208D041
:1033C0002A48854205D02A48854202D029488542AC
:1033D00000D104E04FF4A471274808F034F9012C1F
:1033E00025D0022C23D0042C21D0082C1FD0102C47
:1033F0001DD0202C1BD0402C19D0802C17D0B4F518
:10340000807F14D0B4F5007F11D0B4F5806F0ED05A
:10341000B4F5006F0BD0B4F5805F08D0B4F5005F51
:1034200005D0B4F5804F02D0B4F5004F00D104E0D0
:1034300040F24911104808F006F92869204201D0ED
:10344000012600E00026304670BD0000000002406A
:103450000004024000080240000C0240001002403C
:103460000014024000180240001C024000200240EC
:103470000024024000280240FC810F0870B5044679
:103480000D46194884421DD0184884421AD0184865
:10349000844217D01748844214D01748844211D070
:1034A000164884420ED0164884420BD015488442F8
:1034B00008D01548844205D01448844202D01448EC
:1034C000844200D104E04FF4DA71124808F0BBF8EE
:1034D000002008B905B104E040F2B5110D4808F02C
:1034E000B2F8658370BD0000000002400004024095
:1034F00000080240000C024000100240001402408C
:1035000000180240001C024000200240002402403B
:1035100000280240FC810F0870B504460D4619488A
:1035200084421DD0184884421AD01848844217D0CB
:103530001748844214D01748844211D01648844258
:103540000ED0164884420BD01548844208D0154846
:10355000844205D01448844202D01448844200D1E9
:1035600004E040F29F11124808F06DF8002008B9FD
:1035700005B104E04FF4D0710D4808F064F82583DC
:1035800070BD00000000024000040240000802403C
:10359000000C0240001002400014024000180240DB
:1035A000001C02400020024000240240002802408B
:1035B000FC810F0870B505460C4616463148854219
:1035C0001DD0314885421AD03048854217D0304846
:1035D000854214D02F48854211D02F4885420ED005
:1035E0002E4885420BD02E48854208D02D48854272
:1035F00005D02D48854202D02C48854200D104E0F8
:103600004FF4E5712A4808F01EF8012C25D0022C51
:1036100023D0042C21D0082C1FD0102C1DD0202CFE
:103620001BD0402C19D0802C17D0B4F5807F14D03B
:10363000B4F5007F11D0B4F5806F0ED0B4F5006FF3
:103640000BD0B4F5805F08D0B4F5005F05D0B4F5B9
:10365000804F02D0B4F5004F00D104E040F2CB110E
:10366000134807F0F0FF0EB1012E00D104E04FF433
:10367000E6710F4807F0E7FF0EB12C8300E06C8382
:1036800070BD00000000024000040240000802403B
:10369000000C0240001002400014024000180240DA
:1036A000001C02400020024000240240002802408A
:1036B000FC810F0801480068704700007408002072
:1036C00000BFFEE730B50346002400BF1BE01D78B5
:1036D00028090A2803DA00F13005157002E000F12C
:1036E00037051570521C1D7805F00F000A2803DA03
:1036F00000F13005157002E000F137051570521C1D
:103700005B1C651CECB28C42E1DB30BD70B504463D
:103710000D461248844205D01148844202D0114817
:10372000844200D104E040F2E1110F4807F08BFF22
:103730000DB1012D00D104E04FF4F1710A4807F0FA
:1037400082FF25B1208840F48060208004E020883A
:103750004FF6FF310840208070BD0000005400404B
:1037600000580040005C004048820F082DE9F047F7
:1037700005460C460027B9460026B0463448854227
:1037800005D03448854202D03348854200D104E058
:1037900040F28D41314807F056FFA4F5C020823831
:1037A0003CD0B4F1021F39D0A4F50600803835D0E2
:1037B000B4F5020F32D0B4F5901F2FD0A4F500302D
:1037C00040382BD0B0F5000028D010F5E00025D00F
:1037D000A4F5C020843821D0B0F500001ED010F52B
:1037E000E0001BD0102C19D01D48844216D0A4F53F
:1037F000E020823812D0A4F54030801E0ED03E3832
:103800000CD0A4F5E020843808D0001D06D0A4F523
:103810004030083802D0B4F5806F00D104E040F2A7
:103820008E410E4807F00FFFB5F814902E8B36042A
:1038300049EA060020F07F4707EA0400A04202D1CF
:103840004FF0010801E04FF000084046BDE8F08766
:103850000054004000580040005C004048820F08BF
:103860000100030070B504460D4600260F4884424F
:1038700005D00F48844202D00E48844200D104E0B3
:1038800040F23E510C4807F0DEFE42F2FF000542D6
:1038900001D105B104E040F23F51074807F0D3FEE3
:1038A00025F07F46F043A08270BD00000054004028
:1038B00000580040005C004048820F0870B5044684
:1038C0000D461248844205D01148844202D0114866
:1038D000844200D104E04FF49E710F4807F0B3FE1C
:1038E0000DB1012D00D104E040F23D110A4807F06E
:1038F000AAFE25B1208840F00100208004E0208845
:103900004FF6FE710840208070BD0000005400405A
:1039100000580040005C004048820F0810B5044683
:103920001A48844205D01A48844202D01948844279
:1039300000D103E08C21184807F085FE134884422B
:1039400009D10121480505F0FBF800214FF40010D2
:1039500005F0F6F818E00E48844209D101218805E7
:1039600005F0EEF800214FF4800005F0E9F80BE0D7
:103970000848844208D10121C80505F0E1F800217A
:103980004FF4000005F0DCF810BD000000540040CA
:1039900000580040005C004048820F0870B50446A3
:1039A0000D461248844205D01148844202D0114885
:1039B000844200D104E04FF4C9710F4807F043FE80
:1039C0000DB1012D00D104E040F293110A4807F037
:1039D0003AFE25B1208840F48070208004E02088E1
:1039E0004FF6FF610840208070BD00000054004089
:1039F00000580040005C004048820F0870B5044643
:103A00000D461248844205D01148844202D0114824
:103A1000844200D104E04FF4D5710F4807F013FE43
:103A20000DB1012D00D104E040F2AB110A4807F0BE
:103A30000AFE25B1208840F40070208004E0208830
:103A40004FF6FF510840208070BD00000054004038
:103A500000580040005C004048820F087CB50546D5
:103A60000C4600260020019000903448854205D085
:103A70003348854202D03348854200D104E040F209
:103A8000F341314807F0DFFDB4F5000F38D0B4F54D
:103A9000800F35D0B4F5001F32D0B4F5801F2FD081
:103AA000B4F5802F2CD0B4F5003F29D0B4F5803F79
:103AB00026D02648844223D02548844220D0B4F121
:103AC000102F1DD0234884421AD02348844217D097
:103AD0002248844214D02248844211D0A4F180505C
:103AE00080380DD040300BD0303009D0083007D0AE
:103AF000001D05D0801C03D01948FF38844200D136
:103B000004E040F2F441104807F09DFD0095200FBD
:103B1000019024F07F44019818B10098143000906F
:103B200003E0240C009818300090009800682042B0
:103B300001D0012600E0002630467CBD0054004044
:103B400000580040005C004048820F0800800010D0
:103B500000400010000800100004001000020010D7
:103B6000000100102DE9FF4705460C460026B1462E
:103B70000427DFF874815D48854205D05C488542A2
:103B800002D05C48854200D103E0BB215A4807F0CF
:103B90005AFD206820B159492068884200D803E0C6
:103BA000BC21554807F04FFDA08828B1A088022805
:103BB00002D0A0880A2800D103E0BD214E4807F0BA
:103BC00042FDE088B0F5804F04D0E088A0F53F4189
:103BD000FF3900D103E0BE21474807F034FD2089BA
:103BE000B0F5806F00DA03E0BF21434807F02BFDFA
:103BF0006089B0F5806F01D0608900B903E0C02111
:103C00003D4807F020FDA089B0F5804F03D0A08982
:103C1000B0F5404F00D103E0C121374807F013FD54
:103C2000AE884FF6C0700640684605F007F8DDF82C
:103C300008803348B8FBF0F01FFA80F946EA09061D
:103C4000AE8028884FF6FE710840288000262D4956
:103C5000206888420CD820684000B8FBF0F087B29A
:103C6000042F00DA04273E4309F10100288427E0ED
:103C7000E088A0F53F41FF3906D1206800EB400005
:103C8000B8FBF0F087B209E0206800EBC00101EB5F
:103C90000010B8FBF0F087B247F480473805000DFC
:103CA00001D147F0010747F4004006434FF49670F6
:103CB00009FB00F04FF47A7190FBF1F0401C28846E
:103CC000AE83288840F0010028802E884FF6F5301A
:103CD0000640A0886189084306432E80A089218977
:103CE00008432881BDE8FF8700127A000054004095
:103CF00000580040005C004048820F08801A06000F
:103D000040420F00A086010038B505460C46002051
:103D100000901648854205D01548854202D01548C6
:103D2000854200D104E040F23541134807F08BFC96
:103D30007CB1042C0DD0082C0BD00C2C09D0102CED
:103D400007D0142C05D0182C03D01C2C01D0202C0B
:103D500000D104E040F23641074807F074FC0095BA
:103D60000098204400900098008838BD005400401E
:103D700000580040005C004048820F0810B504461F
:103D80000848844205D00848844202D0074884424B
:103D900000D104E04FF44171054807F054FC208A3B
:103DA000C0B210BD0054004000580040005C00400C
:103DB00048820F0870B504460E4615460F488442E7
:103DC00005D00F48844202D00E48844200D104E05E
:103DD0004FF4E3710C4807F036FC0DB1012D00D112
:103DE00004E040F2C711084807F02DFC15B146F079
:103DF000010601E006F0FE06268270BD0054004078
:103E000000580040005C004048820F0870B504462E
:103E10000D460848844205D00748844202D007482E
:103E2000844200D104E040F2F721054807F00BFC82
:103E3000258270BD0054004000580040005C0040E6
:103E400048820F0838B50446684601F02DFD4FF64C
:103E5000FF71BDF8000001F037FF204601F0B6FA0F
:103E60000546BDF8000001F03DFA284638BD38B5DA
:103E70000446684601F018FD0021BDF8000001F07D
:103E800023FF204601F02AFB0546BDF8000001F0A3
:103E900029FA284638BD38B50446684601F004FDC5
:103EA0000021BDF8000001F00FFF204601F08CFB5F
:103EB0000546BDF8000001F015FA284638BDF8B5F2
:103EC00004460D46684601F0EFFC0021BDF80000F5
:103ED00001F0FAFE2946204601F0E6FB0646BDF851
:103EE000000001F0FFF93046F8BDF8B504460D4674
:103EF000684601F0D9FC0021BDF8000001F0E4FEA5
:103F00002946204601F046FC0646BDF8000001F0B7
:103F1000E9F93046F8BD70471CB50121022004F0D4
:103F2000BBFD0121880304F035FE402000900020F5
:103F30008DF804008DF8070069461948FFF792F8DC
:103F40008020009069461648FFF78CF820200090EA
:103F500069461348FFF786F84FF480700090694671
:103F60000F48FFF77FF84FF40070009069460C4847
:103F7000FFF778F80821012005F026FE0521012031
:103F800005F022FE0721012005F01EFE0921012077
:103F900005F01AFE0621012005F016FE1CBD0000EA
:103FA000000402401CB504466846FEF7EFFC4CB91D
:103FB0004FF43070009000208DF806006846FEF740
:103FC0006BFC12E04FF43070FEF7FEFB00208DF822
:103FD00004004FF4307000900C208DF80500012093
:103FE0008DF806006846FEF757FC1CBD08B54FF477
:103FF000C06004F0CDFB1C208DF8000002208DF87D
:1040000001008DF8020001208DF80300684604F0DD
:1040100045FB1D208DF8000002208DF801008DF871
:10402000020001208DF80300684604F037FB3420BD
:104030008DF8000001208DF801008DF802008DF848
:104040000300684604F02AFB17208DF800000220C8
:104050008DF8010000208DF8020001208DF803008A
:10406000684604F01BFB08BD01480078704700005B
:10407000B80800200146044850F82100012800D16A
:1040800070470020FCE70000F43400200146087867
:1040900000F0C000C02801D1002070471020FCE7CC
:1040A00010B504462CB94FF480510548FFF7E6F9E6
:1040B00004E04FF480510248FFF72EFA10BD0000D3
:1040C0000004024070B505460024F0234FF4A072AE
:1040D0000021084600F0FCFB00F0E4FC00BF03E018
:1040E000284600F0C9FC641CB4F5963FF8D300F0F4
:1040F000C9FC70BDF8B50646002408A00068009011
:10410000002508E09DF800202946304600F014F80C
:10411000681C85B2641C142CF4D3F8BD2000000088
:10412000704770B504460D4616463246294620466D
:10413000FFF740FA70BD000070B505460E46144604
:10414000A4F12000C4B204EB4400044901EB0012C6
:104150003146284600F046F870BD000088830F08FD
:104160002DE9F04107460C460025002608E022789C
:1041700031463846FFF7E0FF701C86B2641C6D1CA8
:1041800020780028F3D1142DF1D3BDE8F081000090
:104190002DE9F84380460D461646002410A000681D
:1041A00000900027142E00DD142608E02A783946F6
:1041B0004046FFF7C1FF781C87B26D1C641CB442F7
:1041C000F4D300BF9DF8002039464046FFF7B4FF06
:1041D000781C87B2641C142CF4D3BDE8F88300006B
:1041E000200000002DE9F04780460E4617460025C6
:1041F0000024A146A24608EB48004FF6FF7101EAF1
:10420000C00A084600EA061900224FF480512048EF
:10421000FFF787FF5146484600F0B6FA00F042FC2F
:1042200000BF2CE0B9F5987F14D000240FE037F8D8
:1042300015000121A140084204D11648008800F071
:104240001BFC03E01448008800F016FC641C112CD1
:10425000EDD313E000240FE037F815000121A14051
:10426000084204D10B48008800F006FC03E00A482D
:10427000008800F001FC641C102CEDD36D1C192D7E
:10428000D0D3012211030248FFF74BFFBDE8F087AE
:1042900000040240B6080020B40800202DE9F041D7
:1042A00007460D4690461E46002408E0281981B2B4
:1042B00000234246384600F007F8601C84B2B4423E
:1042C000F4DDBDE8F08100002DE9F0478046894625
:1042D00014461E460027012536B92B46224649467C
:1042E000404600F089FA06E0601C83B22A4649463F
:1042F000404600F081FA00F0D5FB002704E00548B5
:10430000008800F0B9FB7F1C601C6843B842F6D8F7
:10431000BDE8F087B40800202DE9F04105460E46BF
:1043200017461C4600233A4631462846FFF7CCFF85
:10433000301981B200233A462846FFF7C5FF012312
:10434000224631462846FFF7BFFFE91988B201230C
:1043500022463146FFF7B8FFBDE8F08110B5FFF700
:10436000DFFE00F091F9322007F07CF900F002F84E
:1043700010BD000010B50020FFF792FE782007F076
:1043800071F9CA2000F03CFBC32000F057FB7820F5
:1043900007F068F9112000F033FB782007F062F98C
:1043A000CF2000F02DFB002000F048FBAA2000F0F9
:1043B00045FBB02000F042FB782007F053F9EF20D6
:1043C00000F01EFB032000F039FB802000F036FBDC
:1043D000022000F033FB782007F044F9ED2000F0D4
:1043E0000FFB672000F02AFB032000F027FB1220C0
:1043F00000F024FB812000F021FB782007F032F947
:10440000E82000F0FDFA842000F018FB112000F0F5
:1044100015FB7A2000F012FB782007F023F9CB205F
:1044200000F0EEFA392000F009FB2C2000F006FB2A
:10443000002000F003FB342000F000FB022000F01D
:10444000FDFA782007F00EF9EA2000F0D9FA66208C
:1044500000F0F4FA002000F0F1FA782007F002F9F9
:10446000F72000F0CDFA202000F0E8FA782007F0DD
:10447000F9F8CA2000F0C4FA832000F0DFFA022025
:1044800000F0DCFA002000F0D9FA782007F0EAF812
:10449000EA2000F0B5FA002000F0D0FA002000F089
:1044A000CDFA782007F0DEF8C02000F0A9FA182035
:1044B00000F0C4FA782007F0D5F8C12000F0A0FA87
:1044C000112000F0BBFAC52000F09AFA3E2000F05F
:1044D000B5FA152000F0B2FA782007F0C3F83620BC
:1044E00000F08EFA282000F0A9FA782007F0BAF838
:1044F000B12000F085FA002000F0A0FA1B2000F0A7
:104500009DFA102000F09AFA342000F079FA782011
:1045100007F0A8F8B62000F073FA0A2000F08EFA2F
:10452000822000F08BFA272000F088FA262000F085
:1045300067FA012000F082FAF22000F061FA002010
:1045400000F07CFAE02000F05BFA0F2000F076FA31
:104550003A2000F073FA362000F070FA0B2000F0D9
:104560006DFA0D2000F06AFA062000F067FA4C2080
:1045700000F064FA912000F061FA312000F05EFA58
:10458000082000F05BFA102000F058FA042000F038
:1045900055FA112000F052FA0C2000F04FFA0020DA
:1045A00000F04CFAE12000F02BFA002000F046FA6F
:1045B000062000F043FA0A2000F040FA052000F03F
:1045C0003DFA122000F03AFA092000F037FA2C20C8
:1045D00000F034FA922000F031FA3F2000F02EFA79
:1045E000082000F02BFA0E2000F028FA0B2000F033
:1045F00025FA2E2000F022FA332000F01FFA0F20B7
:1046000000F01CFA3A2000F0FBF9552000F016FAF1
:10461000782007F027F82A2000F0F2F9002000F0B7
:104620000DFA002000F00AFA012000F007FA3F20FE
:1046300000F004FA2B2000F0E3F9002000F0FEF96E
:10464000002000F0FBF9002000F0F8F9EF2000F066
:10465000F5F92C2000F0D4F94FF40061084805F07A
:1046600045F8002404E00748008800F0E7F9641CDE
:10467000B4F5963FF7DB292000F0C2F910BD000029
:1046800000380040B608002000B587B001210220A4
:1046900004F02CFA0121042004F028FA01218803F7
:1046A00004F024FA05220D213048FEF7A5FD05226D
:1046B0000E212E48FEF7A0FD05220F212B48FEF704
:1046C0009BFD4FF46040009002208DF805008DF8AE
:1046D000040000208DF806008DF807006946234885
:1046E000FEF7C0FC4FF48050009001208DF80400CC
:1046F00000208DF806008DF8070069461B48FEF77C
:10470000B1FC4020009002208DF8050001208DF8BA
:10471000040000208DF8060069461548FEF7A2FC4B
:10472000144805F01FF84FF44040ADF808004FF46E
:104730008270ADF80A000020ADF80C000220ADF840
:104740000E000120ADF810004002ADF8120000206C
:10475000ADF81400ADF8160002A9064805F0FCF803
:104760000121044804F084FF07B000BD00040240AA
:10477000000802400038004001B5BDF800000149C2
:10478000088008BDB608002070B504460D4600211B
:10479000184804F0ABFF2A2000F032F9200A00F09C
:1047A0004DF9E0B200F04AF904F11000C0F307201F
:1047B00000F044F904F11001C8B200F03FF92B20D9
:1047C00000F01EF9280A00F039F9E8B200F036F9D5
:1047D00005F11800C0F3072000F030F905F11801C9
:1047E000C8B200F02BF9292000F00AF92C2000F0C3
:1047F00007F970BD003800402DE9F04704460D462A
:1048000016461F464FF4A0784FF0F00900212F48BC
:1048100004F06CFF2A2000F0F3F8444501DA214649
:1048200000E04146080A00F009F9444501DA214652
:1048300000E04146C8B200F001F9A119491E414506
:1048400002DAA119491E00E04146C1F3072000F039
:10485000F5F8A119491E414502DAA119491E00E0E7
:104860004146C8B200F0EAF82B2000F0C9F84D45E7
:1048700001DA294600E04946080A00F0DFF84D4514
:1048800001DA294600E04946C8B200F0D7F8E91934
:10489000491E494502DAE919491E00E04946C1F3BB
:1048A000072000F0CBF8E919491E494502DAE91959
:1048B000491E00E04946C8B200F0C0F8292000F0C7
:1048C0009FF82C2000F09CF8BDE8F08700380040ED
:1048D0002DE9F04104460D4616461F4600211C48AE
:1048E00004F004FF3019401EB0F5A07F2EDA7819CD
:1048F000401EF0282ADA2A2000F082F8200A00F070
:104900009DF8E0B200F09AF83119491EC1F3072072
:1049100000F094F83119491EC8B200F08FF82B202E
:1049200000F06EF8280A00F089F8E8B200F086F886
:104930007919491EC1F3072000F080F87919491E42
:10494000C8B200F07BF80120BDE8F0810020FBE751
:104950000038004001B5BDF800000149088008BDDD
:10496000B408002010B5F0234FF4A07200210846CF
:10497000FFF7AEFF10BD00002DE9F74F8246144649
:104980004FF00008C3460025002600272078451C6C
:104990006078461C15FB06FB00F084F833462A4677
:1049A00050460199FFF794FF28B900F06BF8FFF724
:1049B000D9FFBDE8FE8F2C2000F022F84FF40061F3
:1049C0000E4804F093FE671D4FF000080DE0388894
:1049D0004FEA1029387809EB00201FFA80F9484681
:1049E00000F02CF8BF1C08F10108D845EFD300F007
:1049F00049F8FFF7B7FF00BFDBE7000000380040D1
:104A000010B50446002240210A48FFF78AFB002027
:104A1000FFF746FB2146084804F06AFF00BF8021EB
:104A2000054804F011FF0028F9D10120FFF738FBF9
:104A300010BD0000000802400038004010B50446D8
:104A4000012240210A48FFF76CFB0020FFF728FBFA
:104A50002146084804F04CFF00BF8021054804F0BF
:104A6000F3FE0028F9D10120FFF71AFB10BD00006A
:104A7000000802400038004010B504462046FFF709
:104A8000DDFF10BD10B5012211030448FEF792FDB1
:104A90000021034804F02AFE10BD0000000402407B
:104AA0000038004010B50021054804F01FFE292001
:104AB000FFF7A6FF2C20FFF7A3FF00F003F810BDBF
:104AC0000038004010B50021074804F00FFE002216
:104AD0004FF480510548FEF76DFD4FF40061024828
:104AE00004F004FE10BD0000003800400004024045
:104AF0001CB504460F4951F82400012103F0CCFFF6
:104B00000D4830F81400009002208DF805000120B7
:104B10008DF8040000208DF806008DF80700074985
:104B200051F824006946FEF79DFA0020044941F837
:104B300024001CBD70830F0880830F08A00800208C
:104B4000F434002010B5002404E02046FFF7D0FF25
:104B5000601CC4B2042CF8DB10BD0000084951F8F9
:104B6000201001290AD1074931F81010064A52F8DD
:104B7000202051830021024A42F820107047000093
:104B8000F434002080830F08A0080020074951F862
:104B9000201051B9064931F81010064A52F8202069
:104BA00011830121014A42F820107047F43400209B
:104BB00080830F08A008002010B500240AE02046DA
:104BC000FFF7E4FF642006F05DFD2046FFF7C6FF17
:104BD000601CC4B2042CF2DB10BD00002DE9F04FC4
:104BE000CBB04FF0000B00204A90002700266D4606
:104BF00000240CE02046FFF73DFA18B101208F4950
:104C0000085502E000208D490855601CC4B2042CF0
:104C1000F0DB0DF1D80A4AA805F056FE122288A151
:104C20005046FBF7CDFA504605F0F6FC0021022075
:104C300004F0B2FF1F20FFF745FA0020FFF79CFDAC
:104C40004FF6FF70FFF786FE0020FFF7ABF981A15A
:104C50000020FFF785FA85A10920FFF781FA06F009
:104C60005BFB1F20FFF788FD4FF6FF70FFF772FE1A
:104C700084A10320FFF774FA88A10420FFF770FADB
:104C80008CA10520FFF76CFA284605F061FD8346EC
:104C90000026AFE0012E08D14FF47A7006F0F2FC46
:104CA000284605F055FD83460026BBF1010F17D0BD
:104CB000002612E04FF47A780BE0642006F0FEFC48
:104CC000A8F101001FFA80F8FEF770F9064606B158
:104CD00002E0B8F1000FF0D100BF002ED9D1E9E712
:104CE000002726E007EB870101EBC702A91D01EBB6
:104CF00042014888FFF740FD07EB870101EBC7023F
:104D0000A91D01EB42018888FFF724FE07EB87020B
:104D100002EBC703AA1D02EB4302911D07EB8702BA
:104D200002EBC703AA1D12F81300FFF719FA781C4B
:104D3000C7B2082FD6DB287930B1012807D0022866
:104D400008D003280CD108E04FF0000908E041F238
:104D5000883905E040F6C41902E04FF4FA7900BF43
:104D600000BF00240FE0285D10F0010F02D12046A3
:104D7000FFF7F4FE285D10F0010F02D02046FFF788
:104D800005FF601CC4B2042CEDDB002630E00024DB
:104D90002BE0285D00F0020002281FD1B9F1000FBE
:104DA0001CD02046FFF766F918B12046FFF7D6FE63
:104DB00002E02046FFF7EAFEC8460BE0642006F05A
:104DC0007DFCA8F101001FFA80F8FEF7EFF8064617
:104DD00006B102E0B8F1000FF0D102E0FEF7E6F80C
:104DE000064606B103E0601CC4B2042CD1DB00BF50
:104DF000002ECCD0022E7FF44DAF4FF6FF70FFF7A0
:104E000061F9FCF711FC0021012004F0C5FE00242B
:104E10000BE00A48005D18B12046FFF7B7FE02E03C
:104E20002046FFF79BFE601CC4B2042CF1DB01207E
:104E3000FFF7B8F84BB0BDE8F08F0000580800202D
:104E4000636F6D2E6E66632E6D3234737264656DA2
:104E50006F00000020204D323453522D44495343FB
:104E60004F564552592020200000000050726573B3
:104E700073206B657920746F2072657475726E2073
:104E8000000000002020202057616974696E6720AF
:104E9000666F72202020202000000000202020616A
:104EA00070706C69636174696F6E20746F2020206C
:104EB00000000000757064617465204D32345352F7
:104EC00020636F6E74656E740000000030B589B0A9
:104ED000FBF732FB01A8FBF783FB01A8FBF794F972
:104EE0000546294601A8FBF7CDFD002406E001A8F0
:104EF000015D04F12700274A1154641C062CF6D3E7
:104F0000244805F0E1FC1F20FFF7DCF80020FFF744
:104F100049F806F001FA0020FFF72EFC4FF6FF706B
:104F2000FFF718FD1CA10020FFF71AF91F20FFF75B
:104F300023FC4FF6FF70FFF70DFD1DA10220FFF7C8
:104F40000FF921A10320FFF70BF925A10420FFF79A
:104F500007F929A10520FFF703F92DA10620FFF786
:104F6000FFF831A10720FFF7FBF80020FFF704FC52
:104F700033A10920FFF7F4F806F0D6F94FF6FF70D9
:104F8000FFF7A0F8FCF750FB0120FFF70BF809B082
:104F900030BD00007C02002020204D323453522DC1
:104FA000444953434F5645525920202000000000E9
:104FB00020204D3234535220636F6E6669677572DC
:104FC000656420200000000020202077697468209C
:104FD000426C7565746F6F746820202000000000BB
:104FE0002020202020706172616D657465727320CD
:104FF00020202020000000002020506C6561736597
:105000002067657420636C6F7365202000000000CA
:105010002020746F20616E74656E6E6120666F7201
:10502000202020200000000020202020202070616F
:105030006972696E67202020202020200000000077
:105040005072657373206B657920746F207265747C
:1050500075726E200000000030B5ADF55D7D002555
:1050600001AC05220CA12046FBF7AAF80B220CA1EB
:1050700004F15000FBF7A4F8204605F051FC05466A
:10508000012D03D109A0FCF71DFB01E0FCF744F85A
:105090000DF55D7D30BD000074656C3A00000000C8
:1050A0003036313233343536373800002020202076
:1050B00050686F6E65206E756D62657220202020CD
:1050C0000000000070B5ADF55C7D00256C46114810
:1050D000FBF79AF8461C32460E492046FBF770F85B
:1050E0000D48FBF791F8461C32460B4904F150007D
:1050F000FBF766F8204605F013FC0546012D03D1A9
:1051000006A0FCF7DFFA01E0FCF706F80DF55C7D80
:1051100070BD0000A0000020AC0000202020202056
:105120002020202055524C202020202020202020EC
:10513000000000000FB42DE9F0410646DDE90B4503
:105140000020208016F0010F0FD03A48007808B9EF
:10515000012000E00020374908700846007840F040
:1051600002012288501C2080A9543248007810F097
:10517000080F05D0304801782288501C2080A9549F
:1051800016F0020F05D09DF81C102288501C2080BC
:10519000A95416F0040F05D09DF81D102288501C4C
:1051A0002080A95416F0080F05D09DF81E10228803
:1051B000501C2080A95416F0100F05D09DF81F1028
:1051C0002288501C2080A95416F0200F05D09DF88D
:1051D00020102288501C2080A95416F0400F0BD0BC
:1051E0009DF82020238858190999FAF7E9FF2088AB
:1051F0009DF820100844208016F0800F05D007A8E5
:10520000017B2288501C2080A95416F4807F0DD089
:105210002178284600F08CF807462288501C208010
:10522000AF54390A2288501C2080A954BDE8F001EF
:105230005DF814FB7A080020790800202DE9FF4171
:1052400005460F46254E032D03DD142004B0BDE8AE
:10525000F08100202249087024204870280A8870B4
:10526000CD7010200871102288683946FAF7A8FF1F
:1052700003A8CDE901061A48C068009018480EC876
:1052800040F27F10FFF756FFBDF80C10C8B2314650
:1052900001F0C2F884B20CB1012000E0002000B19E
:1052A0001AE000F01FFC84B20CB1012000E00020E5
:1052B00000B111E03146052000F058FE84B20CB177
:1052C000012000E0002000B106E00521304600F09A
:1052D00041FC04462046B9E71120B7E7530B0020F4
:1052E000440A002070B5044600250F480068A0421B
:1052F0000FD100F03BF80546B5F5104F01D0012065
:1053000000E0002000B10CE00848074908600120D7
:1053100070BD054800680549884201D10120F7E7C2
:1053200000BF0020F4E700007C080020EFBEADDEE7
:10533000F8B504460D4646F26330009000BF14F8FD
:10534000016B6946304601F047F9681EC0B205009E
:10535000F5D1BDF80000F8BD1FB500200090019008
:10536000029003906846FEF76DFD1FBD38B515A08D
:10537000006800906946032001F04EF804460CB125
:10538000012000E0002000B116E000F0ABFB044675
:105390000CB1012000E0002000B10DE069460320BF
:1053A00000F0E4FD04460CB1012000E0002000B153
:1053B00002E04FF4104038BD01210348FEF71EFB08
:1053C0001120F8E7C2E0B4000058004070B5044670
:1053D000012522461021032001F010F9B0F5104FED
:1053E00014D1012000F016F8022000F013F801207B
:1053F00000F086F8022000F083F821460120FFF734
:105400001DFF21460220FFF719FF00E00025284676
:1054100070BD00007FB50446224E012C04D0022C42
:1054200002D0142004B070BDA2201F4908702620AD
:105430004870200A8870CC7003A8CDE901060846A0
:10544000C068009008460EC840F21F10FFF772FEB9
:10545000BDF80C10C8B2314600F0DEFF85B20DB1C8
:10546000012000E0002000B11AE000F03BFB85B213
:105470000DB1012000E0002000B111E0314605200F
:1054800000F074FD85B20DB1012000E0002000B1F4
:1054900006E00521304600F05DFB05462846C1E7E1
:1054A0001120BFE7530B0020440A002070B50546C9
:1054B0000124094A1021032001F0A0F8B0F5104F93
:1054C00006D10220FFF7A6FF022000F019F800E045
:1054D0000024204670BD0000520C002070B5044628
:1054E000012522461021022001F088F8B0F5104F66
:1054F00003D1012000F004F800E00025284670BD2B
:105500007FB50446224E012C04D0022C02D0142078
:1055100004B070BD00201F49087026204870200A82
:105520008870CC7003A8CDE901060846C0680090D9
:1055300008460EC840F21F10FFF7FCFDBDF80C1026
:10554000C8B2314600F068FF85B20DB1012000E01D
:10555000002000B11AE000F0C5FA85B20DB10120BB
:1055600000E0002000B111E03146052000F0FEFC13
:1055700085B20DB1012000E0002000B106E0052158
:10558000304600F0E7FA05462846C1E71120BFE79C
:10559000530B0020440A002070B505460124094A37
:1055A0001021032001F02AF8B0F5104F06D1012098
:1055B000FFF730FF0120FFF7A3FF00E000242046A3
:1055C00070BD0000520C002070B504460125224633
:1055D0001021022001F012F8B0F5104F03D1022083
:1055E000FFF78EFF00E00025284670BD7FB504461A
:1055F000224E012C04D0022C02D0142004B070BD25
:10560000A2201F49087028204870200A8870CC709A
:1056100003A8CDE901060846C068009008460EC8F8
:1056200040F21F10FFF786FDBDF80C10C8B23146DE
:1056300000F0F2FE85B20DB1012000E0002000B1C3
:105640001AE000F04FFA85B20DB1012000E0002011
:1056500000B111E03146052000F088FC85B20DB1A3
:10566000012000E0002000B106E00521304600F0F6
:1056700071FA05462846C1E71120BFE7530B002009
:10568000440A002070B5044601252246102102205C
:1056900000F0B4FFB0F5104F03D10220FFF7A6FFD2
:1056A00000E00025284670BD70B504460D46012671
:1056B00022461021022000F0A1FFB0F5104F07D1C3
:1056C00029460120FFF7BAFD012000F005F800E0AF
:1056D0000026304670BD00007FB50446224E012CE6
:1056E00004D0022C02D0142004B070BD00201F4949
:1056F000087028204870200A8870CC7003A8CDE973
:1057000001060846C068009008460EC840F21F1007
:10571000FFF710FDBDF80C10C8B2314600F07CFE5A
:1057200085B20DB1012000E0002000B11AE000F0C8
:10573000D9F985B20DB1012000E0002000B111E0DF
:105740003146052000F012FC85B20DB1012000E0C9
:10575000002000B106E00521304600F0FBF90546C7
:105760002846C1E71120BFE7530B0020440A002060
:1057700070B50446012522461021022000F03EFFAC
:10578000B0F5104F03D10120FFF730FF00E00025F6
:10579000284670BD70B505460E462A4610210220E7
:1057A00000F02CFFB0F5104F08D131460220FFF772
:1057B00045FD0220FFF790FF012400E00024204671
:1057C00070BD2DE9FC4106460024F2222146641CEE
:1057D0000DF801202146641C0DF801600221684685
:1057E000FFF7A6FD0746FAB22146641C0DF801201A
:1057F0003A0A2146641C0DF801202046694600F053
:105800000BFE85B20DB1012000E0002000B11BE0CD
:1058100000F068F985B20DB1012000E0002000B170
:1058200012E06946052000F0A1FB85B20DB1012010
:1058300000E0002000B107E00521684600F08AF989
:1058400005462846BDE8FC811120FBE72DE9F04123
:1058500006460C461746F62C1DDD00BF3A46F621DB
:10586000304600F01DFC054606F1F60086B2F6371C
:10587000A4F1F60084B2F62C02DDB5F5104FEDD0A0
:10588000B5F5104F0DD164B1E1B23A46304600F0A3
:1058900007FC054605E0E1B23A46304600F000FC60
:1058A00005462846BDE8F081014606480088A0F577
:1058B0005E42AD3A04D0034800880880012070475A
:1058C0000020FCE78008002038B5262000906946BB
:1058D000012000F0A1FD044600F04AFA04460CB194
:1058E000012000E0002000B105E014B94FF41040A1
:1058F00038BDA0B2FCE701210248FEF77FF8112075
:10590000F6E700000058004000B587B001210320F1
:1059100003F0C2F80121880503F0E8F84FF4406075
:10592000059002208DF819008DF8180001208DF8DF
:105930001A0000208DF81B0005A92548FDF792FBF1
:1059400004220A212248FDF757FC04220B2120489B
:10595000FDF752FC4020059002208DF81900002030
:105960008DF8180001208DF81B0005A91948FDF7D6
:1059700079FB8020059002208DF8190001208DF818
:10598000180000208DF81A0005A91248FDF76AFBDF
:105990001148FDF7C3FF0020ADF808004BF6FF707B
:1059A000ADF80A000020ADF80C004FF48060ADF8AF
:1059B0000E000001ADF810000848019001A906484A
:1059C000FEF7D0F801210448FDF778FF07B000BDCD
:1059D000000402400000024000580040801A060007
:1059E00010B5FFF791FF00F009F800F0D9F8032097
:1059F00000F00BF9FFF7BAFC10BD000000200649CB
:105A0000087048708870C8700871002102480173DE
:105A10000249816070470000440A0020540A0020B7
:105A20002DE9F04105460F4600244FF47A76FFF742
:105A3000D7FFFFF749FF044607E0012005F022FEEB
:105A4000FFF742FF0446701E86B2B4F5104F01D036
:105A5000002EF2D1B4F5104F02D00020BDE8F08145
:105A600000F072FB0446B4F5104F01D0012000E0B5
:105A7000002000B131E000F0C9FB0446B4F5104F3E
:105A800001D0012000E0002000B126E02A460F21CD
:105A9000002000F03DFAB0F5104F12D1A87A697AD3
:105AA00040EA01200E490880FFF760FC0446B4F587
:105AB000104F01D0012000E0002000B10DE00120D6
:105AC000CCE7FFF753FC0446B4F5104F01D001209A
:105AD00000E0002000B100E000BF0020BEE70000B1
