:020000040800F2
:1000000000500020A9620008150B0008190B000819
:100010001D0B0008210B0008250B00080000000044
:10002000000000000000000000000000290B000894
:100030002D0B000800000000310B0008350B0008F4
:10004000016300080163000801630008510700080C
:1000500001630008016300080163000801630008F0
:1000600001630008016300080163000801630008E0
:1000700001630008016300080163000801630008D0
:1000800001630008016300080163000801630008C0
:10009000016300080163000801630008390B0008D0
:1000A00001630008016300080163000801630008A0
:1000B0007D0B0008910B0008016300080163000834
:1000C0000163000801630008016300080163000880
:1000D0000163000801630008016300080163000870
:1000E0000163000801630008016300080163000860
:1000F0000163000801630008016300080163000850
:10010000016300080163000801630008016300083F
:10011000016300080163000801630008016300082F
:10012000016300080163000801630008016300081F
:1001300000000000000000000000000000000000BF
:1001400000000000000000000000000000000000AF
:10015000000000000000000000000000000000009F
:10016000000000000000000000000000000000008F
:10017000000000000000000000000000000000007F
:10018000000000000000000000000000000000006F
:10019000000000000000000000000000000000005F
:1001A000000000000000000000000000000000004F
:1001B000000000000000000000000000000000003F
:1001C000000000000000000000000000000000002F
:1001D000000000000000000000000000000000001F
:0401E0005FF8E0F1F3
:1001E40010B5054C237833B9044B13B10448AFF36D
:1001F40000800123237010BD78040020000000005B
:10020400E077000808B5064B1BB106480649AFF372
:1002140000800648036813B1054B03B1984708BD35
:1002240000000000E07700087C0400207404002033
:1002340000000000154B002B08BF134B9D46A3F58F
:10024400803A00218B460F461348144A121A06F0CE
:100254008FF80F4B002B00D098470E4B002B00D08B
:1002640098470020002104000D000D48002802D00A
:100274000C4806F049F906F053F82000290005F06F
:10028400E5FE06F03DF800BF000008000000000095
:10029400000000000000000078040020EC040020AE
:1002A4000D6500081965000870B54FF4C06082B090
:1002B400012401F087FA022501A81C238DF80430DB
:1002C4008DF805508DF806508DF8074001F084FA3A
:1002D40001A81D238DF804308DF805508DF80650C3
:1002E4008DF8074001F078FA01A834238DF8043022
:1002F4008DF805408DF806408DF8074001F06CFA42
:1003040001A814238DF8043000268DF805408DF8DB
:1003140006408DF8074001F05FFA01A813238DF819
:1003240004308DF805408DF807408DF8066001F023
:1003340053FA172301A88DF805508DF806608DF83F
:1003440007408DF8043001F047FA02B070BD00BFD9
:1003540018B90448012103F089BB0248012103F0C4
:1003640087BB00BF000C014000B5082083B0012109
:1003740003F0E0FF012103221423ADF80410054823
:100384008DF8062001A98DF8073003F0F1FA03B0C7
:100394005DF804FB000C014008B5FFF7E5FF4FF0E2
:1003A40000600121BDE8084003F0D0BF0320012113
:1003B40003F0CCBFF0B585B0002401A94FF47A77DF
:1003C40048264FF08040ADF80870ADF80460ADF8F1
:1003D4000A40ADF8064004F019FD21464FF0804074
:1003E40005F0FCF94FF08040012105F0BFFA114DF2
:1003F40001210A464FF0804004F0E6FF01A9284697
:10040400ADF80870ADF80460ADF80A40ADF80640E8
:1004140004F0FCFC2846214605F0E0F928460121B9
:1004240005F0A4FA012128460A4604F0CDFF05B0E0
:10043400F0BD00BF0004004008B50320012103F013
:1004440085FFBDE80840FFF7B5BF00BF70B51F4C7E
:1004540084B048234FF47A720025064601A94FF070
:100464008040ADF80430ADF808202680ADF80A507D
:10047400ADF8065004F0CAFC29464FF0804005F060
:10048400ADF94FF08040012105F070FA01210A46D0
:100494004FF0804004F098FF29464FF0804004F06C
:1004A40075FF29464FF0804005F0E4F94FF0804095
:1004B400012104F06BFF218889B20029FBD14FF0A0
:1004C400804004F063FF04B070BD00BF94040020BA
:1004D40070B51E4C84B047230246012500264FF018
:1004E400804001A9ADF808302280ADF80450ADF881
:1004F4000A60ADF8066004F089FC31464FF0804094
:1005040005F06CF929464FF0804005F02FFA2A4691
:1005140029464FF0804004F057FF31464FF08040A9
:1005240004F034FF31464FF0804005F0A3F929462A
:100534004FF0804004F02AFF218889B20029FBD1C2
:100544004FF0804004F022FF04B070BD94040020FA
:1005540070B5174C174E84B0482300254FF47A72B7
:10056400204601A9ADF80430ADF808207560ADF857
:100574000A50ADF8065004F049FC2046294605F01F
:100584002DF92046012105F0F1F901210A46204602
:1005940004F01AFF2046294604F0F8FE20462946B6
:1005A40005F068F92046012104F0F0FE04B070BDA6
:1005B4000004004094040020014B5868704700BFB9
:1005C400940400200023034A03485360194604F0AE
:1005D400DDBE00BF940400200004004070B51C4C34
:1005E40082B002461C230026012501A822808DF832
:1005F40004308DF805608DF806608DF8075001F021
:10060400EBF829464FF0804005F0B0F931464FF041
:10061400804005F02FF929464FF0804004F0B6FEE3
:10062400218889B20029FBD14FF0804004F0AEFE4E
:1006340002231C21012201A88DF804108DF8053035
:100644008DF806308DF8072001F0C6F802B070BDB1
:1006540094040020044B1A8892B21AB11A88013A01
:1006640092B21A80704700BF94040020034B5A686A
:10067400013202D05A6801325A6070479404002053
:1006840030B40568029C45B10A681444A3420DDCE9
:1006940000220B6030BC026070470B681C1B944244
:1006A40004DC01230A6030BC036070470C6030BC7A
:1006B400704700BF70B50C4C0C4D82B00126284623
:1006C400214600960022EE23FFF7DAFF281D00964C
:1006D400211D0022D723FFF7D3FF94E8090043EA42
:1006E400002080B202B070BD9C04002004000020F1
:1006F40010B5154C82B0012304F1080004F10C017B
:10070400009300221F23FFF7BBFF022304F1100014
:1007140004F11401009300223F23FFF7B1FF0323E8
:1007240004F11800009304F11C0100221F23FFF7B9
:10073400A7FF6069E268E369400140EAC220184308
:1007440080B202B010BD00BF9C04002008B5012097
:1007540003F002FF00B908BD012003F00DFF0B4BAD
:100764001A6A01323C2A04D01A62BDE8084003F038
:10077400C9BE5A6A01323C2A08BF002200215A62CB
:100784001962BDE8084003F0BDBE00BF9C04002010
:1007940008B530484FF4807103F054F970B92D480E
:1007A4004FF4807103F04EF90028F8D02A4B1A6AEE
:1007B40001323B2A00DD00221A6208BD25482021AF
:1007C40003F040F968B92348202103F03BF90028DD
:1007D400F9D0214B1A6A013A002AEDDC3B221A6255
:1007E40008BD1C484FF4007103F02CF980B9194876
:1007F4004FF4007103F026F90028F8D0164B5A6A1A
:10080400013A002A01DD5A6208BD3B225A6208BD42
:100814001048802103F016F978B90E48802103F0BE
:1008240011F90028F9D00C4A536A01333B2B01DC3F
:10083400536208BD0023536208BD0648402103F0FB
:1008440001F930B90348402103F0FCF80028F9D03D
:1008540008BD08BD000C01409C04002025494B6ADA
:1008640070B46BB930234370302303703A23837020
:100874000B6A1BBB302303713023C37070BC7047F9
:100884001D4CDA1784FB0365C2EBA50202EB82055B
:10089400A3EB450330334370002AE5D084FB0253B5
:1008A400D517C5EBA30303EB8303A2EB430230325A
:1008B4003A23027083700B6A002BDBD00E49DA17DF
:1008C40081FB0364C2EBA40202EB8204A3EB4403A6
:1008D40030330371002ACFD081FB0243D417C4EB19
:1008E400A30303EB8303A2EB43023032C27070BC58
:1008F400704700BF9C04002067666666013A70B4C6
:1009040017D40D4D302604E0845412F1FF321946F9
:100914000FD385FB0143CC17C4EBA30303EB830480
:10092400A1EB440430340029EED1865412F1FF3295
:10093400EFD270BC704700BF676666660C4A0D4B09
:100944001168A3FB01214909B1F1807F30B40ED2B3
:10095400094B0A4A4D1EF024002107205D6082F8ED
:1009640023409960186082F8231030BC7047FEE77A
:10097400440000201F85EB5110E000E000ED00E092
:1009840010B582B00446684602F0D4F8A4B14FF41E
:10099400307002F0FDF800244FF430710C22012372
:1009A40068468DF8044000918DF805208DF80630D6
:1009B40002F080F802B010BD4FF4307368468DF831
:1009C4000640009302F076F802B010BD10B5224C38
:1009D40082B00820012103F0ADFC4022204601A989
:1009E4000423ADF804208DF8073002F0C1FF20463F
:1009F40001A98023ADF8043002F0BAFF204601A912
:100A04002023ADF8043002F0B3FF204601A94FF4CF
:100A14008073ADF8043002F0ABFF4FF4007320464E
:100A240001A9ADF8043002F0A3FF0120082103F06E
:100A34007DF80120052103F079F80120072103F056
:100A440075F80120092103F071F80120062103F053
:100A54006DF802B010BD00BF000C014000B54FF4AA
:100A6400C06083B000F0AEFE01230321002201A880
:100A74008DF804108DF805308DF807308DF80620B8
:100A840000F0AAFE03B05DF804FB00BF08B5012125
:100A94004FF0C05003F05AFC012003F0AFFA01F00C
:100AA400CBF84FF4407003F0E3FB012003F0E8FBC4
:100AB40003F030FD03F026FD0120014603F0AEFCF7
:100AC40003F020FD4FF2244003F0E8FCBDE80840A9
:100AD40003F018BD08B5FFF7C1FFFFF7D7FF0120EA
:100AE400014603F09BFC03F00DFD01214FF0C050C3
:100AF40003F02CFC012003F081FA002001F0ACF893
:100B0400802001F0B5F8BDE8084003F06FBC00BFD9
:100B1400704700BFFEE700BFFEE700BFFEE700BF6F
:100B2400FEE700BF704700BF704700BF704700BFBB
:100B3400704700BF08B5402002F01CF898B9802027
:100B440002F018F858B94FF4007002F013F800B925
:100B540008BD4FF40070BDE8084002F019B88020C9
:100B640002F016F8EFE7034B012240201A6002F06E
:100B74000FF8E4E7D404002008B54FF080400121C9
:100B840004F0F4FEBDE80840FFF764BD08B504486E
:100B9400012104F0EBFEBDE80840FFF767BD00BF8C
:100BA4000004004002484FF4805102F061BF00BFCE
:100BB400000C0140704700BF704700BF20B10348DC
:100BC4004FF4805102F052BFFFF7ECBF000C01401C
:100BD40082B0019002B0704782B0084AADF80600B6
:100BE400ADF80410BDF80610054B89B21180BDF8AC
:100BF400042092B21A8002B0704700BFD8040020CB
:100C04000C00002000224FF6FF7302800B80704717
:100C140082B0044BADF80600BDF8062092B21A80EB
:100C240002B07047D804002082B0044BADF806002F
:100C3400BDF8062092B21A8002B070470C00002062
:100C4400704700BF704700BF704700BF704700BFC8
:100C5400704700BF704700BF704700BF704700BFB8
:100C6400704700BF704700BF704700BF704700BFA8
:100C7400704700BF704700BF704700BF704700BF98
:100C8400704700BF10B5402104460022094802F015
:100C9400F1FEFFF787FF2146074803F099FE064857
:100CA400802103F0F3FE0028F9D10120BDE81040B3
:100CB400FFF784BF001001400038004010B5402108
:100CC40004460122094802F0D5FEFFF76BFF2146D6
:100CD400074803F07DFE0648802103F0D7FE002874
:100CE400F9D10120BDE81040FFF768BF00100140B2
:100CF4000038004070B505460C461848002103F042
:100D04008BFE2A20FFF7BEFF280A05F11006FFF725
:100D1400D5FFE8B2FFF7D2FFC6F30720FFF7CEFFF7
:100D2400F0B2FFF7CBFF2B20FFF7ACFF200AFFF751
:100D3400C5FF04F11805E0B2FFF7C0FFC5F30720B3
:100D4400FFF7BCFFE8B2FFF7B9FF2920FFF79AFFCE
:100D54002C20BDE87040FFF795BF00BF003800406D
:100D64002DE9F04105460C462748002190461F46D0
:100D7400B5F5A07F34BF2E464FF4A07603F04CFEA9
:100D84002A20FFF77FFF300AFFF798FFF0B2FFF742
:100D940095FF05EB0800B0F5A07F2BDC013808F1C6
:100DA400FF38C0F307204544FFF788FFE8B2FFF798
:100DB40085FF2B20FFF766FF0020FFF77FFFF02C55
:100DC40034BF2046F020FFF779FFE019F02816DC45
:100DD4000138013FC0F307203C44FFF76FFFE0B246
:100DE400FFF76CFF2920FFF74DFF2C20BDE8F041F1
:100DF400FFF748BF0120FFF761FF4020D7E700203D
:100E0400FFF75CFFF020EBE70038004030B593B00B
:100E1400FFF7C8FE4FF46153002201920193019B36
:100E24002BB1019B013B0193019B002BF9D1CA20FB
:100E3400FFF728FFC320FFF741FF4FF4615300225F
:100E440002920293029B2BB1029B013B0293029BF1
:100E5400002BF9D11120FFF715FF4FF46153002245
:100E640003920393039B2BB1039B013B0393039BCB
:100E7400002BF9D1CF20FFF705FF0020FFF71EFF5D
:100E8400AA20FFF71BFFB020FFF718FF4FF46153B0
:100E9400002204920493049B2BB1049B013B049312
:100EA400049B002BF9D1EF20FFF7ECFE0320FFF7A2
:100EB40005FF8020FFF702FF0220FFF7FFFE4FF43B
:100EC4006153002205920593059B2BB1059B013BC1
:100ED4000593059B002BF9D1ED20FFF7D3FE672086
:100EE400FFF7ECFE0320FFF7E9FE1220FFF7E6FE12
:100EF4008120FFF7E3FE4FF461530022069206932C
:100F0400069B2BB1069B013B0693069B002BF9D154
:100F1400E820FFF7B7FE8420FFF7D0FE1120FFF78B
:100F2400CDFE7A20FFF7CAFE4FF4615300220792E8
:100F34000793079B2BB1079B013B0793079B002B50
:100F4400F9D1CB20FFF79EFE3920FFF7B7FE2C2006
:100F5400FFF7B4FE0020FFF7B1FE3420FFF7AEFE2A
:100F64000220FFF7ABFE4FF461530022089208936E
:100F7400089B2BB1089B013B0893089B002BF9D1DC
:100F8400EA20FFF77FFE6620FFF798FE0020FFF7B8
:100F940095FE4FF46153002209920993099B2BB1EA
:100FA400099B013B0993099B002BF9D1F720FFF71B
:100FB40069FE2020FFF782FE4FF4615300220A925B
:100FC4000A930A9B2BB10A9B013B0A930A9B002BB1
:100FD400F9D1CA20FFF756FE8320FFF76FFE0220E7
:100FE400FFF76CFE0020FFF769FE4FF46153002207
:100FF4000B920B930B9B2BB10B9B013B0B930B9B0A
:10100400002BF9D1EA20FFF73DFE0020FFF756FE42
:101014000020FFF753FE4FF4615300220C920C930F
:101024000C9B2BB10C9B013B0C930C9B002BF9D11B
:10103400C020FFF727FE1820FFF740FE4FF461534E
:1010440000220D920D930D9B2BB10D9B013B0D9333
:101054000D9B002BF9D1C120FFF714FE1120FFF7DF
:101064002DFEC520FFF70EFE3E20FFF727FE1520BC
:10107400FFF724FE4FF4615300220E920E930E9B51
:101084002BB10E9B013B0E930E9B002BF9D1362006
:10109400FFF7F8FD2820FFF711FE4FF461530022FB
:1010A4000F920F930F9B2BB10F9B013B0F930F9B41
:1010B400002BF9D1B120FFF7E5FD0020FFF7FEFD7D
:1010C4001B20FFF7FBFD1020FFF7F8FD3420FFF78E
:1010D400D9FD4FF46153002210921093109B2BB151
:1010E400109B013B1093109B002BF9D1B620FFF706
:1010F400C9FD0A20FFF7E2FD8220FFF7DFFD27206C
:10110400FFF7DCFD2620FFF7BDFD0120FFF7D6FD2C
:10111400F220FFF7B7FD0020FFF7D0FDE020FFF736
:10112400B1FD0F20FFF7CAFD3A20FFF7C7FD3620B7
:10113400FFF7C4FD0B20FFF7C1FD0D20FFF7BEFD37
:101144000620FFF7BBFD4C20FFF7B8FD9120FFF709
:10115400B5FD3120FFF7B2FD0820FFF7AFFD1020E9
:10116400FFF7ACFD0420FFF7A9FD1120FFF7A6FD52
:101174000C20FFF7A3FD0020FFF7A0FDE120FFF7FF
:1011840081FD0020FFF79AFD0620FFF797FD0A2056
:10119400FFF794FD0520FFF791FD1220FFF78EFD68
:1011A4000920FFF78BFD2C20FFF788FD9220FFF725
:1011B40085FD3F20FFF782FD0820FFF77FFD0E200D
:1011C400FFF77CFD0B20FFF779FD2E20FFF776FD5E
:1011D4003320FFF773FD0F20FFF770FD3A20FFF770
:1011E40051FD5520FFF76AFD4FF46153002211921F
:1011F4001193119B2BB1119B013B1193119B002B5C
:10120400F9D12A20FFF73EFD0020FFF757FD00200B
:10121400FFF754FD0120FFF751FD3F20FFF74EFD7E
:101224002B20FFF72FFD0020FFF748FD0020FFF7DC
:1012340045FD0020FFF742FDEF20FFF73FFD2C2086
:10124400FFF720FD09480A4D4FF4006103F0E4FB69
:101254004FF49634288880B2FFF730FD013CF9D171
:101264002920FFF70FFD13B030BD00BF0038004048
:101274000C0000202920FFF705BD00BF2820FFF740
:1012840001BD00BF704700BF02F0F4BBF0B50820F9
:1012940087B0012103F04EF82A4E2B4C1020012177
:1012A40003F048F84FF48040012103F04FF803277E
:1012B4004FF46042304669461823ADF800208DF89B
:1012C40002708DF80330102502F052FB3046694657
:1012D4004FF48053ADF800308DF8035002F048FB12
:1012E400694640231948ADF800308DF802708DF836
:1012F400035002F03DFB204603F064FA012500236D
:101304004FF4404E4FF40072204601A94FF4827707
:101314000226ADF804E0ADF80830ADF81030ADF8B1
:101324001230ADF80E20ADF80670ADF80A60ADF8D5
:101334000C5003F07DFA2046294603F013FB07B056
:10134400F0BD00BF000C0140003800400010014017
:1013540000B583B0FFF79AFF40F6C4130022019250
:101364000193019B2BB1019B013B0193019B002B3A
:10137400F9D1FFF74BFD03B05DF804FB704700BFE4
:1013840010B5094C0021204603F046FB07484FF4F2
:101394008051002202F06EFB20464FF40061BDE84C
:1013A400104003F039BB00BF00380040000C01407E
:1013B40008B506484FF48051012202F05BFB044853
:1013C4000021BDE8084003F027BB00BF000C01402A
:1013D4000038004008B50021064803F01DFB292011
:1013E400FFF750FC2C20FFF74DFCBDE80840FFF749
:1013F400C7BF00BF0038004038B5FFF7EBFF064D0C
:101404004FF49634288880B2FFF758FC013CF9D198
:10141400BDE83840FFF7CCBF0C0000202DE9F843AD
:1014240004464FEA01192048DFF884801F4F4FF427
:101434008051164604EB4404002202F01BFB1FFA01
:1014440089F9E10089B24846FFF754FCFFF7C2FF6F
:101454000025B9F5987F4FF0000417D0735B234142
:10146400DA0754BF3888B8F80000013480B2FFF7B7
:1014740025FC112CF2D10235322DEAD10A484FF461
:1014840080510122BDE8F84302F0F4BA735B2341B2
:10149400DB0754BF3888B8F80000013480B2FFF786
:1014A4000DFC102CF2D1E6E7000C01400C000020EA
:1014B400D8040020203AD3B2034A03EB430302EBDF
:1014C4000312FFF7ABBF00BFF065000838B505464F
:1014D4000024A1B22846034A0134FFF79FFF142CCD
:1014E400F7D138BDF0650008F8B507460E4600246C
:1014F400094D02E0FFF792FF0134335DA3F12002AE
:10150400D2B202EB4202384605EB0212A1B2002B22
:10151400F0D1132CEED9F8BDF06500082DE9F041A7
:10152400142A34BF1546142506460F46EDB1DFF8DC
:10153400408000243A5D203AD2B202EB4202A1B2CA
:1015440008EB021230460134FFF768FFAC42F1D3D6
:10155400ACB221463046064A0135FFF75FFF01343D
:10156400132DA4B2F5D9BDE8F0812C46F1E700BFF4
:10157400F0650008203A2DE9F041D3B2174EDFF8A8
:101584006880174F03EB430305460C4615484FF498
:101594008051002206EB031602F06CFA284621461D
:1015A400FFF7A8FB0025FFF715FF0024735B234119
:1015B400DB0754BF3888B8F80000013480B2FFF765
:1015C4007DFB112CF2D10235322DEED105484FF4BA
:1015D40080510122BDE8F04102F04CBAF0650008E8
:1015E4000C000020000C0140D804002070B5154602
:1015F4007BB901231D44FFF7B3FBFFF7EBFE084E55
:1016040000243088013480B2FFF758FBAC42F8D391
:1016140070BD551CABB20122FFF7A2FBEDE700BF82
:10162400D80400202DE9F0411C460D46002306464F
:101634001746FFF7DBFF291930463A4689B20023E3
:10164400FFF7D4FF3046294622460123FFF7CEFF99
:10165400F0192946224680B20123BDE8F041FFF784
:10166400C5BF00BF2DE9F8438146884617461E468C
:10167400002408EB0401013489B248463A460023A9
:10168400A5B2FFF7B3FFAE42F3D2BDE8F88300BFC3
:10169400FFF714BB2DE9F843161804460D461E48FF
:1016A40000211746984603F0B7F9B6F5A07F04DC8D
:1016B40008EB0509B9F1F00F02DD0020BDE8F8835D
:1016C4002A20FFF7DFFA200AFFF7F8FAE0B2FFF763
:1016D400F5FA701EC0F30720013CFFF7EFFA381942
:1016E400C0B2FFF7EBFA2B20FFF7CCFA280AFFF77A
:1016F400E5FAE8B2FFF7E2FA09F1FF30C0F3072098
:10170400013DFFF7DBFA08EB0500C0B2FFF7D6FA9C
:101714000120BDE8F88300BF0038004038B5054615
:10172400002001464FF4A072F023FFF7B3FFFFF748
:1017340051FE4FF496342846FFF7C0FA013CFAD123
:10174400BDE83840FFF734BE002001464FF4A072D4
:10175400F023FFF79FBF00BF2DE9F04116785478BE
:1017640080460F46013601341546FFF733FE4046E6
:10177400394632462346FFF78DFFB0B12C20FFF7E0
:1017840081FA0F484FF4006103F046F906FB04F6B2
:101794000535002435F8021B080200EB1120013442
:1017A40080B2FFF78BFAA642F4D8FFF701FE0020BF
:1017B40001464FF4A072F023BDE8F041FFF76ABF81
:1017C4000038004040F0BF60024B40F40030D86065
:1017D400704700BF00ED00E0C378F0B463B903784C
:1017E400184A5909203103F01F03012000FA03F3BA
:1017F40042F82130F0BC7047134B4678DA6885789C
:1018040003781049D243C2F302220F27C2F1040421
:1018140027FA02F206FA04F42A40224303F1604351
:1018240003F561431201D2B283F800230378012047
:1018340003F01F025B0900FA02F241F82320F0BC16
:10184400704700BF00E100E000ED00E021F06041DE
:1018540021F07F01014B08439860704700ED00E0E0
:10186400044B1A6919B922EA000018617047104341
:101874001861704700ED00E0044B1A6804280CBF9F
:1018840042F0040222F004021A60704710E000E003
:1018940008B5174B984212D0164B98421BD0164BE2
:1018A400984200D008BD4FF40040012102F05AFDD7
:1018B4004FF400400021BDE8084002F053BD4FF44E
:1018C4000070012102F04EFD4FF400700021BDE8CC
:1018D400084002F047BD4FF48060012102F042FD50
:1018E4004FF480600021BDE8084002F03BBD00BF1A
:1018F4000024014000280140003C0140426891F866
:1019040004C0104BF0B422F470220C688F68CE68C7
:101914004D7922F48072224342EA0C2242608468A8
:1019240047EA06022340134343EA450383600B7CE2
:10193400C26A013BDBB222F4700242EA0353C3627F
:10194400F0BC7047FDF7F1FF00230122027403602D
:10195400037143718360C360704700BF836819B922
:1019640023F001038360704743F0010383607047F1
:10197400836819B923F480738360704743F48073D8
:1019840083607047C9B243681AB923EA0101416010
:101994007047194341607047836843F008038360CC
:1019A400704700BF8068C0F3C0007047836843F08D
:1019B40004038360704700BF8068C0F380007047F1
:1019C400836819B923F4A0038360704743F4A00328
:1019D400836070478068C0F3805070474368013962
:1019E40023F4604343EA413141607047436819B9C5
:1019F40023F400634360704743F40063436070471B
:101A0400092970B41ED9A1F10A0404EB4404C56881
:101A14000726A64003FA04F425EA06032343062A0C
:101A2400C3601CD90C2A28D90D3AC46A02EB82027D
:101A34001F23934024EA030301FA02F21A43C26209
:101A440070BC704701EB410405690726A64003FA00
:101A540004F425EA06032343062A0361E2D8013A83
:101A6400446B02EB82021F23934024EA030301FA2E
:101A740002F21A43426370BC7047073A046B02EBEC
:101A840082021F23934024EA030301FA02F21A4359
:101A9400026370BC704700BF836819B923F48013D4
:101AA4008360704743F4801383607047C06C80B2D6
:101AB400704700BF014B1868704700BF4C240140B9
:101AC400436819B923F480634360704743F4806327
:101AD40043607047436819B923F4805343607047E7
:101AE40043F4805343607047836823F4E04319430D
:101AF40081607047836819B923F400438360704799
:101B040043F4004383607047836819B923F40213D4
:101B14008360704743F40213836070478068C0F3A6
:101B240040507047092970B41BD801EB4104056982
:101B34000726A64003FA04F425EA060323430361B7
:101B4400836B0232C3F30154121BD2B202EB820242
:101B54001F24944023EA040391400B43836370BC25
:101B64007047A1F10A0404EB4404C5680726A640A3
:101B740003FA04F425EA06032343C360E0E700BF45
:101B8400836B013923F4401343EA015181637047A5
:101B940082B0002301930190019B19440191019BA0
:101BA4001A6002B0704700BF82B000230193019015
:101BB400019B283319440191019B186880B202B03B
:101BC400704700BF436823F4400323F400731943B0
:101BD4004160704741628262704700BF436823F0EE
:101BE4001F03194341607047054B9A6818B922F4E2
:101BF40000029A60704742F400029A60704700BF86
:101C040000240140036819420CBF002001207047E2
:101C1400C9430160704700BF4368006810EA11209F
:101C240004D0C9B219420CBF00200120704700BF84
:101C34006FEA11210160704708B5012002F0AAFB88
:101C44000020BDE8084002F0A5BB00BF014B1860AE
:101C5400704700BF04860D42014B1860704700BFF7
:101C640000860D42014B1860704700BF88860D4204
:101C7400044A938D23F460731B041B0C1843908552
:101C8400704700BF006C0040044A938D23F07F032B
:101C94001B041B0C18439085704700BF006C004068
:101CA40082B00022044B01920193019B18440190DD
:101CB400019B196002B07047006C004082B00022A2
:101CC400054B01920193019B18440190019B1888D4
:101CD40080B202B0704700BF006C0040014B18682E
:101CE400C0B27047A0860D42034B9A8E92B242F066
:101CF40001029A86704700BF006C0040014B1868CF
:101D0400C0B27047A4860D42034B9A8E92B242F041
:101D140002029A86704700BF006C004008B50D4B64
:101D240098420BD04FF08060012102F027FB4FF066
:101D340080600021BDE8084002F020BB4FF0007035
:101D4400012102F01BFB4FF000700021BDE80840A8
:101D540002F014BB00640040036823F0020370B473
:101D64000360036843F0010303604368DD0707D49D
:101D74004FF6FF7301E0013B02D04268D407FAD565
:101D8400436813F001035AD08B79012B03680CBF0D
:101D940043F0800323F080030360CB79012B0368B5
:101DA4000CBF43F0400323F0400303600B7A012B84
:101DB40003680CBF43F0200323F0200303604B7A35
:101DC400012B03680CBF43F0100323F010030360DE
:101DD4008B7A012B03680CBF43F0080323F008033C
:101DE4000360CB7A012B03680CBF43F0040323F098
:101DF400040303608A78CE780D794C790B889207B6
:101E040042EA066242EA054242EA0452013B1343B3
:101E1400C361036823F0010303604368D90707D54E
:101E24004FF6FF7301E0013B02D04268D207FAD4B7
:101E3400406800F0010080F0010070BC7047184653
:101E440070BC70473D4B827AD3F8001241F0010117
:101E54002DE9F001C3F800120124D3F81C129440B8
:101E6400E2431140C3F81C12017BC1B9D3F80C72D0
:101E7400B0F80680B0F802C086880588304917405B
:101E8400C3F80C72877A48374CEA084C43F837C0D9
:101E9400837ADB00194445EA06434B60017B012940
:101EA40032D0C37A4BBB254BD3F804121140C3F88C
:101EB40004120389C3B9214BD3F814120A40C3F89E
:101EC4001422437B012B05D11C4BD3F81C22144351
:101ED400C3F81C42194BD3F8002222F00102C3F8C4
:101EE4000022BDE8F0017047012BEAD1134BD3F86F
:101EF40014222243C3F81422E3E7104BD3F804124C
:101F04002143C3F80412D4E70C49B0F80080D1F897
:101F14000C72B0F802C08688C588094B2743C1F803
:101F24000C72877A48374CEA084C41F837C0817AFA
:101F3400C9000B4445EA06415960B2E70064004019
:101F440040660040002310B40221032401220471DE
:101F5400417102808371C371037243728372C372CD
:101F64008370C3705DF8044B704700BF0D4BD3F80A
:101F7400002242F00102C3F80022D3F8002222F426
:101F84007C5222F00E02C3F80022D3F8002242EA67
:101F94000020C3F80002D3F8002222F00102C3F8A3
:101FA4000022704700640040036819B923F48033A9
:101FB4000360704743F48033036070470368A9B932
:101FC40023F080030360D0F8843123F48073C0F8D5
:101FD4008431D0F8943123F48073C0F89431D0F86C
:101FE400A43123F48073C0F8A431704743F0800314
:101FF4000360D0F8843143F48073C0F88431D0F89E
:10200400943143F48073C0F89431D0F8A43143F48C
:102014008073C0F8A43170478368F0B45C01024651
:1020240005D48368180159D50123184601E000231B
:1020340018461C011319D3F8805105F00105C3F8A3
:10204400805191F808C0BCF1000F3DD04D68D3F821
:1020540080614F7A4CEAC50C4CEA06053D43C3F84F
:1020640080518D7A05F00F058D72D3F8845125F0D7
:102074000F05C3F884518E7AD3F884513543C3F8DD
:1020840084514F7B91F80EC0CE7A0D7B3F0447EA12
:102094000C67224447EA060444EA0524C2F888414E
:1020A4004F7C8E7CCD7B0C7C390441EA066129434C
:1020B40041EA0421C2F88C11D3F8802142F00102D4
:1020C400C3F88021F0BC70470D684F7AD3F8806163
:1020D40047EA45553543C3F88051C2E79368DB00AE
:1020E40002D502231846A4E70420F0BC704700BFC1
:1020F40001291AD015D302290FD182680D4B134040
:102104000D4A934206D007D90C4A934202D0094A99
:10211400934204D1012070470BB90220704700207C
:1021240070478268044B1340EAE78268034B13400C
:10213400E6E700BF000003100300000400030008EA
:1021440001290DD007D3022904D1836843F4000385
:10215400836070477047836843F0800383607047EF
:10216400836843F400438360704700BF00EB0113AE
:1021740010B4D3F8B04104F00404E4B21472D4BB34
:10218400D3F8B041640D1460D3F8B04104F00204F4
:102194005472D3F8B44104F00F049472D3F8B441E8
:1021A40000EB0113240AD474D3F8B841D472D3F8E1
:1021B400B841240A1473D3F8B841240C5473D3F8E7
:1021C400B841240E9473D3F8BC41D473D3F8BC4102
:1021D400240A1474D3F8BC4103F5DC73240C54743E
:1021E4005B681B0E937459B103695DF8044B43F0AB
:1021F400200303617047D3F8B041E4085460C3E797
:10220400C3685DF8044B43F02003C360704700BF0C
:1022140021B1036943F0200303617047C36843F0AD
:102224002003C360704700BF31B1012906BF0069B4
:1022340000F0030000207047C06800F003007047FE
:10224400F1B9036823F0030343F001030360436817
:1022540003F00303012B09D04FF6FF7301E0013BA8
:1022640004D0426802F00302012AF8D1406800F069
:102274000300B0F1010CDCF1000050EB0C007047DE
:10228400012903D0022917D000207047036823F0E6
:10229400030303604368990707D04FF6FF7301E017
:1022A400013B02D042689207FAD1436813F0030F4E
:1022B40014BF002001207047036823F0030343F098
:1022C40002030360436803F00303022B09D04FF6B3
:1022D400FF7301E0013B04D0426802F00302022ACA
:1022E400F8D1406800F00300831E584258417047FB
:1022F400036823F0030343F002030360406800F023
:102304000300831E58425841704700BF036823F0FE
:10231400020303604368990707D54FF6FF7301E092
:10232400013B02D042689207FAD4406880F0020070
:10233400C0F34000704700BF806900F07000704730
:102344008069000E704700BF8069C0F30740704782
:1023540043691AB923EA0101416170471943416194
:10236400704700BF11F4700F07D08369C3F31303E0
:102374000B420CBF002001207047CB0107D54368F6
:10238400C3F313030B420CBF0020012070470A0162
:1023940007D58368C3F313030B420CBF002001204D
:1023A40070478B014CBFC3680369C3F313030B422B
:1023B4000CBF0020012070470A4B99420CD08A01BF
:1023C400C1F3130306D44A0109D40A014CBF836044
:1023D40043607047C36070470023836170470361A3
:1023E400704700BF7000F03043690B401ED0402995
:1023F40067D00ED9B1F5006F5CD019D8B1F5007F64
:1024040050D0B1F5806F37D0B1F5807F27D0002050
:10241400704704294AD018D910293DD0202937D033
:102424000829F4D1C068C0F30010704718467047FB
:10243400B1F5803F24D0B1F5003F25D0B1F5004F70
:10244400E5D14068C0F38000704701290BD0022910
:10245400DDD1C06810F0030018BF01207047806907
:1024640000F001007047806800F0013020F08070B7
:10247400003018BF012070478069C0F380007047A6
:102484004068C0F3C00070474068C0F30010704754
:102494000069C0F3C0007047006910F0030018BF62
:1024A400012070478069C0F340007047C068C0F3E2
:1024B400C0007047836913F0700F0CBF0020012027
:1024C40070470069C0F30010704700BFB1F5807F0A
:1024D4001ED00DD9B1F5006F24D013D9B1F5803FCA
:1024E40025D0B1F5003F2ED0B1F5004F1AD070477A
:1024F40008291FD00FD9202922D0402927D1102301
:1025040003617047B1F5007F02D0B1F5806F1DD132
:1025140004234360704701290FD0042918D10823EC
:10252400C36070470022042382614360704708231C
:10253400436070471023C3607047064B8360704745
:102544000823036170471023436070477047704746
:10255400704700BF0101010008B54FF08040012120
:1025640001F00CFF4FF080400021BDE8084001F06D
:1025740005BF00BF064B01881A6810B4448802F0F6
:10258400F30221430A4392B21A605DF8044B704788
:1025940000780040034B186018B9034A1368DB073E
:1025A400FCD4704700000F4200780040014B1860D3
:1025B400704700BF04000F42014B5860704700BFD2
:1025C40000780040014B9860704700BF00780040DD
:1025D400014B5861704700BF00780040014B986977
:1025E400C0B2704700780040014B01221A60704766
:1025F40000020F42014B1860704700BF04020F42F3
:1026040020F07F43000F14BF044A054A126818BF24
:102614001B0C1A420CBF0020012070470C780040AC
:1026240010780040054B19691A69C04320F0030073
:1026340001F0020101430A401A617047007800402A
:10264400034A11681369184018BFC1F3400070476A
:1026540000780040054B19691A69C04320F0030053
:1026640001F0020101430A401A61704700780040FA
:10267400014B01229A60704700300240014B186000
:10268400186870470030024039B1054A00EB8101F7
:1026940050F8043B13608842FAD1014B1868704724
:1026A40000300240014B1868704700BF0030024000
:1026B400014B1871704700BF00300240014B18797C
:1026C400704700BF0030024008B54FF000500121B0
:1026D40001F054FE4FF000500021BDE8084001F025
:1026E4004DBE00BF70B491E860008C68084BC968A7
:1026F4001A6835432C4340F6FE768640214322EA8D
:10270400060201FA00F002431A6070BC704700BF71
:10271400007400400023036043608360C36070471B
:10272400084B39B91A68012101FA00F022EA0000C5
:10273400186070471A68012101FA00F0104318600C
:10274400704700BF00740040094B41B91A684FF448
:10275400805101FA00F022EA0000186070471A68FC
:102764004FF4805101FA00F010431860704700BF25
:1027740000740040084B000939B95A68012101FA74
:1027840000F022EA0000586070475A68012101FAFB
:1027940000F010435860704700740040054B5A68BD
:1027A40018B922F003025A60704742F003025A60DB
:1027B400704700BF00740040064B2AB91A68814074
:1027C40022EA0101196070471A68814011431960B7
:1027D400704700BF0074004082B00022054B019294
:1027E4000193019B083318440190019B196002B0C6
:1027F400704700BF0074004082B00022054B019274
:102804000193019B143318440190019B196002B099
:10281400704700BF007400400828044B0CBF42EA14
:10282400012142EA0141C150704700BF20740040B9
:1028340082B00022064B01920193019B2C3303EBDF
:1028440090000190019B186880B202B0704700BFED
:1028540000740040014B1868000C7047002004E02D
:10286400024B1868C0F30B00704700BF002004E05F
:10287400044B5A6819B922EA0000586070471043A3
:1028840058607047002004E0036833494FF6FE7235
:102894001A4088424FF00003026003604360836083
:1028A400C36044D02D4B984225D02D4B984230D054
:1028B4002C4B984234D02C4B984223D02B4B98422B
:1028C4003BD02B4B98420FD02A4B98423CD02A4BFA
:1028D400984210D0294B98421BD0294B98421FD0C4
:1028E400284B98420ED0704753F87C2C42F070620B
:1028F40043F87C2C704753F8182C42F0F00243F84C
:10290400182C704753F8542C42F4702243F8542C7A
:10291400704753F82C2C42F4706243F82C2C704707
:1029240053F8402C42F4704243F8402C7047164B45
:102934005A6842F00F025A60704753F8682C42F408
:10294400700243F8682C704753F8042C42F00F02CD
:1029540043F8042C704700BF080002401C000240EA
:102964003000024044000240580002406C00024023
:1029740080000240080402401C040240300402406B
:102984004404024058040240000002402DE9F00FC4
:10299400D1F820B0D1F808A0D1F81090D1F8148063
:1029A400D1F818C0CF694E6A05688C6ACA680B688A
:1029B40049684BEA0A0A4AEA090949EA080848EA5E
:1029C4000C0C4CEA07073E4325F4FF45344325F03D
:1029D4007005254305604260BDE8F00F8360C16067
:1029E400704700BF0023036043608360C3600361DA
:1029F40043618361C361036243628362704700BFC2
:102A040029B902684FF6FE731340036070470368E8
:102A140043F001030360704703681AB923EA010114
:102A24000160704719430160704700BF41607047FF
:102A3400406880B2704700BFC3004CBF034B044BD7
:102A44001B6803420CBF00200120704700040240B1
:102A540000000240C3004CBF014B024B586070475A
:102A64000004024000000240C3004CBF034B044B6F
:102A74001B6803420CBF0020012070470004024081
:102A840000000240C3004CBF014B024B586070472A
:102A94000004024000000240044B054900221A6071
:102AA4005A609A60DA605961704700BF00040140BF
:102AB400FFFF0F00837970B42BB31D4B01681E68B0
:102AC40002794579CC4326401E605E6802F180425B
:102AD40002F5823234405C6014682143116002685C
:102AE4009868D14308409860D868102D01EA000125
:102AF400D96014D005F1804303F5823370BC1968A2
:102B04000A431A6070470379016803F1804303F5AF
:102B1400823370BC1A6822EA01021A60704799680D
:102B240011439960D9680A43DA6070BC704700BFEA
:102B34000004014000230C2242710360037183717D
:102B4400704700BF024B1A6910431861704700BFF9
:102B540000040140034B5B6918420CBF00200120B4
:102B6400704700BF00040140014B5861704700BF2B
:102B740000040140054B1A685B69034004D010420D
:102B84000CBF002001207047184670470004014024
:102B9400014B5861704700BF00040140034B1A68A1
:102BA40002F0380210431860704700BF0020024052
:102BB400044B1A6822F008021A601A68104318605D
:102BC400704700BF00200240044B1A6822F0100234
:102BD4001A601A6810431860704700BF0020024052
:102BE400034B0449044A59605A6059645A64704753
:102BF4000020024023016745AB89EFCD024B034916
:102C0400034A59605A607047002002402301674517
:102C1400AB89EFCD024B0349034A59645A647047A8
:102C24000020024023016745AB89EFCD044B1A69AC
:102C340042F080021A611A6D42F080021A657047F0
:102C440000200240024B1A6942F080021A61704768
:102C540000200240024B1A6D42F080021A65704750
:102C640000200240014BD8698008704700200240D0
:102C7400014B186A704700BF00200240024BD8691C
:102C8400C0F34000704700BF00200240024B1868A8
:102C9400C0F34010704700BF0020024000280B4BD7
:102CA40008DB1A6919B922EA000018617047104359
:102CB400186170471A6D20F0004011B11043186577
:102CC400704722EA00001865704700BF00200240E8
:102CD4000128074B08D00028B4BFDB6CDB6818421E
:102CE4000CBF002001207047D86900F00100704734
:102CF40000200240024B0028B4BFD864D86070475B
:102D040000200240084BDA68D1070BD4DA68520776
:102D140001D502207047DB6813F0100F0CBF0420AC
:102D2400032070470120704700200240084BDA68F6
:102D3400D1070BD4DA68520701D502207047DB684B
:102D440013F0100F0CBF04200320704701207047BC
:102D540000200240084BDA6CD1070BD4DA6C52071E
:102D640001D502207047DB6C13F0100F0CBF042058
:102D740003207047012070470020024010B504462C
:102D8400FFF7D4FF012806D13CB1FFF7CFFF01289C
:102D940004F1FF34F8D004B110BD052010BD00BF0C
:102DA40038B51D4CE3694FF4302013F0020F0CBF0B
:102DB400A5250025FFF7E2FF042800D038BD174AF7
:102DC400174BA260A360236943F0200323612369A6
:102DD40043F0400323614FF43020FFF7CFFF042872
:102DE40007D00528EAD0226941F6EF731340236126
:102DF40038BD21690B4A41F6DF730B402361236917
:102E040043F0100323614FF400501580FFF7B6FF21
:102E14000528E8D1D2E700BF00200240230167451E
:102E2400AB89EFCD00F8FF1F70B505464FF4005095
:102E34000E46FFF7A3FF042800D070BD0A4C0B4ACE
:102E44000B4BA260A360236943F0100323614FF48A
:102E540000502E80FFF792FF0528EED0226941F63C
:102E6400EF731340236170BD0020024023016745C6
:102E7400AB89EFCD38B505464FF40050FFF77EFF20
:102E84000428044601D0204638BD214B2149224A5A
:102E940099609A601969ED43EAB241F01001FF2A82
:102EA400196112D01D4B4FF400501A81FFF766FFD1
:102EB40004280AD005280446E5D0154A116941F6CC
:102EC400EF730B401361204638BDC5F30723FF2B76
:102ED40007D0124A4FF400505381FFF74FFF0428E4
:102EE400E8D1C5F30743FF2B07D00C4A4FF4005039
:102EF4009381FFF743FF0428DCD12D0EFF2DDCD096
:102F0400064B4FF40050DD81FFF738FFD2E700BFD6
:102F14000020024023016745AB89EFCD00F8FF1F75
:102F240038B505464FF43020FFF728FF042800D0B9
:102F340038BD1C4C1C4A1D4BA260A360236943F09E
:102F440020032361236943F0400323614FF43020BD
:102F5400FFF714FF042807D00528E9D0226941F6B9
:102F6400DF731340236138BD226941F6DF731340D8
:102F74002361236943F0100323610D4B75B9A52226
:102F84001A804FF43020FFF7F9FE0528D0D0054A07
:102F9400116941F6EF730B40136138BD00221A80AA
:102FA400EFE700BF0020024023016745AB89EFCD66
:102FB40000F8FF1FF8B5124C124D134BA5600746DD
:102FC400A3604FF400500E461546FFF7D7FE0428C1
:102FD40000D0F8BD22690D4B47F0F8073E4342F09C
:102FE4001002354322614FF400505D80FFF7C6FEA6
:102FF4000528EED0226941F6EF7313402361F8BD32
:103004000020024023016745AB89EFCD00F8FF1F84
:1030140038B5164C164A174BA2600546A3604FF408
:103024000050FFF7ABFE042800D038BD236943F0FD
:10303400100323619DB1104A538823F008031B0435
:103044001B0C53804FF40050FFF798FE0528ECD07A
:10305400064A116941F6EF730B40136138BD064B04
:103064005A8892B242F008025A80EBE700200240EC
:1030740023016745AB89EFCD00F8FF1F10B5044667
:10308400FFF754FE012806D13CB1FFF74FFE01289B
:1030940004F1FF34F8D004B110BD052010BD00BF09
:1030A40010B54FF43020FFF7E9FF042800D010BD1D
:1030B400094C236943F004032361236943F040036B
:1030C40023614FF43020FFF7D9FF226941F6FB73E7
:1030D4001340236110BD00BF0020024010B5044618
:1030E400FFF738FE012806D13CB1FFF733FE012873
:1030F40004F1FF34F8D004B110BD052010BD00BFA9
:1031040038B51B4B04469C424FF4302004D8FFF7DB
:10311400B5FF042818D038BDFFF7E0FF0428FAD122
:10312400144D2B6D43F002032B656C652B6D43F03E
:1031340040032B654FF43020FFF7D0FF2A6D41F692
:10314400FD7313402B65E6E70A4D2B6943F0020338
:103154002B616C612B6943F040032B614FF43020E9
:10316400FFF78CFF2A6941F6FD7313402B6138BDCC
:10317400FEFF07080020024010B54FF43020FFF78F
:103184007DFF042800D010BD124C236943F00403D2
:103194002361236943F0400323614FF43020FFF798
:1031A4006DFF226941F6FB73134004282361EAD1C1
:1031B400236D43F004032365236D43F0400323652B
:1031C4004FF43020FFF78AFF226D41F6FB73134062
:1031D400236510BD0020024010B54FF43020FFF7E6
:1031E4007DFF042800D010BD094C236D43F0040377
:1031F4002365236D43F0400323654FF43020FFF72C
:103204006DFF226D41F6FB731340236510BD00BFB3
:103214000020024070B54D4B82B000229842044613
:103224000D4601920AD94A4B9C424FF4005031D0CA
:10323400FFF754FF04281AD002B070BD4FF40050B9
:10324400FFF71CFF0428F7D1424E3269ABB242F0BB
:10325400010232614FF400502380FFF78FFD0428F0
:1032640030D0326941F6FE7313403361E4E7394EDE
:10327400326DABB242F0010232654FF4005023804C
:10328400FFF72CFF042851D0326D41F6FE73134032
:103294003365D1E7FFF7F2FE042836D02D4A1169D1
:1032A40041F6FE730B4013614FF40050FFF716FF15
:1032B400042816D0274A116D41F6FE730B4013659E
:1032C40002B070BD02340194019B2D0C1D804FF49B
:1032D4000050FFF753FD326941F6FE73134033612A
:1032E400AAE71C4C1C4B226D42F00102226501939B
:1032F400019B2D0C1D804FF40050FFF7EFFE226D53
:1033040041F6FE731340236596E7124E3269ABB261
:1033140042F0010232614FF400502380FFF7AEFE09
:10332400326941F6FE7313403361BDE70234019400
:10333400019B2D0C1D804FF40050FFF7CFFE326D22
:1033440041F6FE731340336576E700BFFCFF0708C0
:10335400FEFF0708002002400000080870B504467C
:103364004FF400500D46FFF709FD144B9C4202D860
:10337400042812D070BD0428FCD1114E336D43F0E3
:10338400010333654FF400502580FFF7A7FE326D2B
:1033940041F6FE7313403365ECE7094E336943F09D
:1033A400010333614FF400502580FFF767FE326953
:1033B40041F6FE731340336170BD00BFFEFF070882
:1033C4000020024010B44FF0204380B143F2D202F7
:1033D40043F82020441C4FF02041074A6FF070430B
:1033E40041F8243042F820305DF8044B704743F232
:1033F400DB021A60EEE700BF040100A010280CBF36
:10340400054B064B4FF0FC321820402118605960E0
:103414009A60DA60704700BF600000A0800000A0DE
:10342400054B4FF0FC3218200021186059609A6057
:10343400DA601A61704700BFA00000A02DE9F00710
:103444004368D0F80890C768066945698469C1690A
:10345400026AD0F800C0D0F82C8049EA030A4AEA8C
:1034640007073E4335432C4321430A43416A046B17
:1034740042EA0103826A4FEA8C01134343EA0803D8
:1034840001F120411C43B9F1080F0C6025D0436BB6
:1034940093E88200D3F818909E68DD681A695C6925
:1034A40049EA010141EA071141EA062141EA0541DD
:1034B40041EA02514FF020430CF1010241EA046158
:1034C400B8F5804F43F822100CD0124B6FF07042C5
:1034D40043F82C20BDE8F00770470B6843F0400325
:1034E4000B60D4E7836B0B4A9F691E685D689C6818
:1034F4001869596947EA060343EA051343EA0423B2
:1035040043EA005343EA016342F82C30BDE8F00774
:10351400704700BF040100A02DE9F00F46688568DC
:10352400C269036AC4689168D3F80480D0F810A013
:10353400D2F80490D0F814C01768D268354345F027
:1035440008052C439D68866900684FEA014B2904ED
:103554001D68DB6841EA082144EA0A044BEA092BA6
:10356400102841EA050545EA036544EA4C2C0CBFE2
:10357400064B074B4BEA07074CEA463647EA026715
:103584001E609F60DD60BDE8F00F7047600000A022
:10359400800000A0F0B407684668C4680169426905
:1035A4008568144B47F0100040EA462040EA453055
:1035B400186094E86000A068E468000440EA06200B
:1035C400284340EA0460986091E87000C8683104B8
:1035D40041EA0521214341EA0061D96092E83100C2
:1035E400D1682A0442EA0422024342EA01621A61CF
:1035F400F0BC7047A00000A0F0B4816B446B0223C0
:1036040043600F220023FF254FF480574FF40056E8
:103614004762866203608360C360036143618361C0
:10362400C3610362C3620363A36122606260E260F8
:1036340022616261A5608D600A604A60CA600A61A5
:103644004A618B61F0BC704710B4016AC4691023ED
:1036540003600022FC2342608260C2600261426116
:10366400826123606360A360E3600B604B608B60E6
:10367400CB605DF8044B704730B40169C46842699B
:10368400FC23002505604560856023606360A360BA
:10369400E3600B604B608B60CB6030BC13605360A5
:1036A4009360D360704700BF800000F1204021B9CF
:1036B4000268044B134003607047036843F001033E
:1036C40003607047FEFF0F0041B110280CBF084B88
:1036D400084B1A6842F004021A60704710280CBFA5
:1036E400034A044A044B11680B401360704700BF3F
:1036F400600000A0800000A0FBFF0F0028B9064A6C
:10370400064B11680B4013607047034B1A6842F074
:1037140004021A60704700BFA00000A0FBFF0F0066
:1037240041B110280CBF084B084B1A6842F0400204
:103734001A60704710280CBF034A044A044B1168EE
:103744000B401360704700BF600000A0800000A021
:10375400BFFF0F0010280CBF014B024B5869704784
:10376400600000A0800000A052B110281AD0B0F56B
:10377400807F0CBF0E4B0F4B5A6811435960704742
:10378400102809D0B0F5807F0CBF094B094B5A684B
:1037940022EA010159607047074B5A6822EA010185
:1037A40059607047044B5A6811435960704700BF11
:1037B400800000A0A00000A0600000A010280AD093
:1037C400B0F5807F0CBF054B054B5B680B420CBF0B
:1037D400002001207047034B5B68F7E7800000A0DE
:1037E400A00000A0600000A0102809D0B0F5807FE0
:1037F4000CBF064B064B5A6822EA01015960704718
:10380400044B5A6822EA010159607047800000A005
:10381400A00000A0600000A010280ED0B0F5807FAA
:103824000CBF074B074B5B6813EA010004D013EA93
:10383400D1010CBF002001207047034B5B68F3E704
:10384400800000A0A00000A0600000A0102809D003
:10385400B0F5807F0CBF064B064B5A6822EAD101B3
:1038640059607047044B5A6822EAD1015960704785
:10387400800000A0A00000A0600000A008B52F4BAD
:1038840098421ED02E4B984225D02E4B98422CD0D5
:103894002D4B984233D02D4B98423AD02C4B984222
:1038A40041D02C4B984200D008BD4FF480700121C8
:1038B40000F058FD4FF480700021BDE8084000F08E
:1038C40051BD0420012100F04DFD04200021BDE87C
:1038D400084000F047BD0820012100F043FD082006
:1038E4000021BDE8084000F03DBD1020012100F09A
:1038F40039FD10200021BDE8084000F033BD202030
:10390400012100F02FFD20200021BDE8084000F037
:1039140029BD4020012100F025FD40200021BDE803
:10392400084000F01FBD8020012100F01BFD802015
:103934000021BDE8084000F015BD00BF00080140AB
:10394400000C014000100140001401400018014027
:10395400001C01400020014008B50120014600F090
:1039640001FD01200021BDE8084000F0FBBC00BFC0
:103974002DE9F003CD78EB0648BF8B78098805F074
:103984000F0748BF1F4311F0FF0F23D0D0F800C02A
:10399400002301264FF00F0802E00133082B17D053
:1039A40006FA03F202EA01049442F6D19A0008FAF4
:1039B40002F92CEA090C07FA02F2282D4CEA020C4F
:1039C40035D0482D03F1010308BF0461082BE7D16A
:1039D400C0F800C0FF2925D9D0F804C0002301266F
:1039E4004FF00F0802E00133082B19D003F108024D
:1039F40006FA02F202EA01049442F4D19A0008FAA7
:103A040002F92CEA090C07FA02F2282D4CEA020CFE
:103A14000BD0482D03F1010308BF0461082BE5D145
:103A2400C0F804C0BDE8F00370474461DBE74461BB
:103A3400B3E700BF4FF6FF710222042301808270B6
:103A4400C3707047836819420CBF0020012070477F
:103A5400806880B2704700BFC36819420CBF002061
:103A640001207047C06880B2704700BF0161704791
:103A7400416170470AB9416170470161704700BFF5
:103A8400C160704741F480338361816183618369DC
:103A940083697047064B10B41C684FF6807222404D
:103AA400114341EA001018605DF8044B704700BFF1
:103AB40000000140014B1860704700BF1C00204209
:103AC4000028194B00F44012B4BFDB695B68B2F5FF
:103AD400401F30B484B21FD0C20214D5C0F30342D5
:103AE400032505FA02F223EA020343F0706319B1D5
:103AF400420D1201944023430B4A0028B4BFD36102
:103B0400536030BC7047420D120104FA02F223EAFA
:103B1400020343F07063EAE7034A556825F07065D1
:103B240023F070635560E2E70000014001F0FC03FC
:103B340003F1804303F5803301F0030110B48900DD
:103B44009C680F228A4024EA02029A609A685DF80F
:103B5400044B884002439A60704700BF014B1860D1
:103B6400704700BFDC00204208B50D4B98420BD0D3
:103B74004FF48000012100F001FC4FF4800000218B
:103B8400BDE8084000F0FABB4FF40010012100F03A
:103B9400F5FB4FF400100021BDE8084000F0EEBB37
:103BA40000540040F0B5044687B001A80D46A6882D
:103BB40000F06CFB039930482A68DFF8C4C0A0FB0E
:103BC400013026F03F063604800C360C87B23E43A3
:103BD400A680238823F001031B041B0C6245238069
:103BE40023D85300B1FBF3F39BB2032B07F1010776
:103BF40098BF04232784A38323886E89A8882989EE
:103C0400AA899BB243F001032380238823F48163B0
:103C140023F002031B0430431B0C03430A439BB2EF
:103C240092B22380228107B0F0BDEE884BF6FF7379
:103C34009E421AD002EB820202EB8202B1FBF2F343
:103C44009BB243F48043C3F30B020AB943F001036C
:103C54004FF49671094A01FB00F082FB00108009C1
:103C6400013043F400432084C5E702EB4202B1FB78
:103C7400F2F39BB2E7E700BF83DE1B43D34D621030
:103C8400A0860100002310B44BF6FF7141F2883482
:103C94004FF480420460C180828183800381438128
:103CA4005DF8044B704700BF038829B923F0010372
:103CB4001B041B0C038070479BB243F00103038079
:103CC400704700BF838829B923F400631B041B0CCD
:103CD400838070479BB243F400638380704700BFC6
:103CE400838829B923F480531B041B0C83807047F9
:103CF4009BB243F480538380704700BF038829B983
:103D040023F480731B041B0C038070479BB243F4A1
:103D140080730380704700BF038829B923F40073BC
:103D24001B041B0C038070479BB243F40073038095
:103D3400704700BF038829B923F480631B041B0C5C
:103D4400038070479BB243F480630380704700BFD5
:103D540083899BB201F0FE0123F0FE0319438181A4
:103D6400704700BF838929B923F001031B041B0C8E
:103D7400838170479BB243F001038381704700BF86
:103D8400038829B923F040031B041B0C03807047EC
:103D94009BB243F040030380704700BF83889BB20B
:103DA4001AB923EA01018180704719438180704761
:103DB40001827047008AC0B2704700BF1AB901F08F
:103DC400FE010182704741F001010182704700BF8A
:103DD40082B0002301930190019B19440191019B3E
:103DE400188880B202B07047038819B9C3F30E0370
:103DF400038070476FEA43436FEA53439BB20380E7
:103E0400704700BFB1F5006F038805D023F4006349
:103E14001B041B0C038070479BB243F400630380B4
:103E2400704700BFB1F5005F038805D023F4005349
:103E34001B041B0C038070479BB243F400530380A4
:103E4400704700BF038829B923F480531B041B0C5B
:103E5400038070479BB243F480530380704700BFD4
:103E6400B1F5006F038805D023F400631B041B0C19
:103E7400038070479BB243F400630380704700BF24
:103E8400038829B923F020031B041B0C038070470B
:103E94009BB243F020030380704700BF008BC0F344
:103EA40007207047038829B923F010031B041B0C57
:103EB400038070479BB243F010030380704700BF38
:103EC400038829B123F080031B041B0C0380704773
:103ED4009BB243F080030380704700BFB1F5804F6D
:103EE400838B05D023F480431B041B0C838370470E
:103EF4009BB243F480438383704700BF828A038B61
:103F040090B240EA034021F07F4318400B1A584214
:103F140058417047828A038B90B240EA034020F0F4
:103F24007F40704782B000230A0F009301930190F1
:103F34000092009B21F07F4153B1019B1433019304
:103F4400019B1B6819420CBF0020012002B070477E
:103F5400019B1833090C0193F2E700BFC94389B2EE
:103F6400818270478388808A80B208409BB206D0E1
:103F740001F0E06113EA11410CBF002001207047F9
:103F8400C94389B281827047014B1860704700BFF2
:103F940000300040014B5860704700BF00300040C3
:103FA400014B9860704700BF00300040024B4AF656
:103FB400AA221A60704700BF00300040024B4CF642
:103FC400CC421A60704700BF00300040034BDB68EE
:103FD40018420CBF00200120704700BF0030004091
:103FE40008B54FF08050012100F0C8F94FF080501F
:103FF4000021BDE8084000F0C1B900BF014B1860C2
:10400400704700BF20000E42014B1860704700BF8C
:1040140010000E42034B1A6822F0E00210431860AD
:10402400704700BF00700040014B1860704700BF2C
:10403400A0000E420C4A0D4B10B4146824F0030483
:10404400204310601A69012942F004021A6108D061
:1040540020BF064B5DF8044B1A6922F004021A6172
:10406400704730BFF5E700BF0070004000ED00E08E
:10407400074B084A196841F004011960196841F0B6
:1040840002011960136943F00403136130BF7047E0
:104094000070004000ED00E0034B5B6818420CBF69
:1040A40000200120704700BF00700040024B1A68D6
:1040B40042EA800018607047007000400D4B0E4AC1
:1040C400196841F00101196059680A405A601A6878
:1040D40022F0847222F480321A601A6822F4802258
:1040E4001A6059684FF41F0221F4FE0159609A6066
:1040F400704700BF001002400000FFF80C4B1A6824
:1041040022F480321A601A68B0F5803F22F48022CB
:104114001A6008D0B0F5802F04D11A6842F4A022A6
:104124001A60704770471A6842F480321A60704708
:104134000010024082B000230B4A019313689B03D2
:104144000CD4019B01330193019BB3F5A06FF5D10E
:10415400054B1868C0F3404002B07047019B01331F
:104164000193019BF4E700BF00100240034B1A685F
:1041740022F0F80242EAC0001860704700100240C2
:10418400014B1860704700BF00004242034B5A685D
:1041940022F47C1211430843586070470010024017
:1041A400014B1860704700BF60004242034B5A68DD
:1041B40022F0030210435860704700BF0010024011
:1041C400024B586800F00C00704700BF001002401A
:1041D400034B5A6822F0F00210435860704700BF46
:1041E40000100240034B5A6822F4E0621043586006
:1041F400704700BF00100240034B5A6822F460521B
:1042040042EAC0005860704700100240044B1A781C
:1042140019B922EA000018707047104318707047EB
:1042240009100240014B1860704700BFD800424299
:10423400034B5A6822F4404210435860704700BF51
:1042440000100240064B002201281A701A7005D093
:10425400042802D105221A707047704718707047FD
:1042640020100240014B1860704700BF8004424296
:10427400024B1A6A10431862704700BF00100240D4
:10428400014B1860704700BF3C0442421F4A536808
:1042940003F00C03042B10B401D0082B21D01C49CB
:1042A40001601A4A1B4B5468C4F303141C5DE140BB
:1042B40041605468C4F302241C5D21FA04F4846050
:1042C4005468C4F3C2241C5DE140C16052685DF8C7
:1042D400044BC2F3813213441B7CB1FBF3F1016143
:1042E400704751685368C1F38341DC0301F1020153
:1042F40007D553689B0304D4054B03FB01F101600C
:10430400CFE7054B03FB01F10160CAE7001002404F
:1043140000127A001000002000093D00044B5A6985
:1043240019B922EA00005861704710435861704778
:1043340000100240044B9A6919B922EA00009861FE
:10434400704710439861704700100240044BDA69CB
:1043540019B922EA0000D86170471043D861704748
:1043640000100240044BDA6819B922EA0000D86050
:1043740070471043D860704700100240044B1A691C
:1043840019B922EA00001861704710431861704798
:1043940000100240014B1860704700BF40044242C5
:1043A400014B1860704700BF4C004242014B18702B
:1043B400704700BF071002404309012B0BD0022BAA
:1043C400094B0CBF1B6A5B6A00F01F0023FA00F064
:1043D40000F001007047044B1B6800F01F0023FA33
:1043E40000F000F00100704700100240024B5A6ACE
:1043F40042F080725A62704700100240034B9B687F
:1044040018420CBF00200120704700BF001002407A
:10441400014B1870704700BF0A100240054B1A8800
:1044240092B219B922EA000018807047104318802C
:10443400704700BF00280040034B9A8892B242F0B4
:1044440010029A80704700BF00280040034A9388F6
:1044540023F010031B041B0C9380704700280040BA
:10446400034B9A8B188B93B243EA0040704700BF0A
:1044740000280040084B9A8892B242F01002010CC6
:1044840080B29A80198398839A8822F010021204C9
:10449400120C9A80704700BF00280040084B9A888D
:1044A40092B242F01002C0F3034180B29A801981A3
:1044B40098819A8822F010021204120C9A80704794
:1044C40000280040084B9A8892B242F01002010C76
:1044D40080B29A80198498849A8822F01002120477
:1044E400120C9A80704700BF00280040044B188AC1
:1044F4009B8A00F00F009BB243EA0040704700BF64
:1045040000280040024A93889B06FCD5704700BFF0
:1045140000280040054A938823F008031B041B0C61
:10452400938093881B07FCD5704700BF0028004088
:10453400034B9B8818420CBF00200120704700BF2A
:1045440000280040034B9A8892B222EA0000988027
:10455400704700BF00280040064B9A881B88034020
:1045640092B205D01040C0B2003018BF012070478D
:104574001846704700280040034B9A8892B222EAFA
:1045840000009880704700BF00280040064B074990
:1045940000221A605A609A60DA605A629A62DA6299
:1045A4009963DA63704700BF00800140FF07C000D1
:1045B400F0B40B4A8768D0F804C0C668056804697B
:1045C400017D53684CEA07003043284323F4FD433C
:1045D400204323F07F0303430B435360F0BC704735
:1045E4000080014000230375036043608360C3605F
:1045F40003617047014B1860704700BFA000304250
:10460400044B1A6822F003021A601A6810431860F7
:10461400704700BF00800140024B186800F003009F
:10462400704700BF00800140044BDA6B19B922EADD
:104634000000D86370471043D8637047008001407E
:10464400014B1860704700BF8C053042094B02686B
:1046540030B49A6085684168C468DA68006929439F
:10466400214322F4FF62014322F007020A43DA6085
:1046740030BC7047008001400023036043608360C6
:10468400C3600361704700BF014B1869C0B2704733
:1046940000800140044B82B0034400220192019344
:1046A400019B186802B0704714800140094B0268EE
:1046B40030B45A6242689A62C56882680469D96AE9
:1046C40040692A432243024321F0F7010A43DA6294
:1046D40030BC70470080014000234FF0FF3280E877
:1046E4000C008360C360036143617047014B186B26
:1046F400704700BF00800140014BD3F88000704731
:1047040000800140014BC3F88000704700800140E5
:10471400014B986C704700BF00800140014B18604A
:10472400704700BFA0053042014B1860704700BFBE
:10473400A4053042014B1860704700BFA805304201
:10474400014B1860704700BFAC053042014B186044
:10475400704700BFAC013042014B1860704700BF86
:10476400B001304200F00100024B80F001001860FB
:10477400704700BFB4013042014B1860704700BF5E
:10478400B8013042034B5B6B18420CBF0020012080
:10479400704700BF00800140014B9863704700BF21
:1047A40000800140034B5B6B18420CBF00200120CA
:1047B400704700BF00800140014B9863704700BF01
:1047C4000080014008B5174B984212D0164B98420E
:1047D4001BD0164B984200D008BD4FF40040012175
:1047E400FFF7CCFD4FF400400021BDE80840FFF77F
:1047F400C5BD4FF480500121FFF7B4FD4FF4805044
:104804000021BDE80840FFF7ADBD4FF48040012111
:10481400FFF7B4FD4FF480400021BDE80840FFF7E6
:10482400ADBD00BF0030014000380040003C0040F6
:104834002DE9F007B1F802A0B1F80090B1F80480B6
:104844000F894E898D89CC89B1F806C00A8A0388FC
:104854004AEA090141EA080141EA0C0139433143BA
:104864002943214303F441530B439BB20380838BBD
:1048740023F400631B041B0C8383BDE8F00702824E
:10488400704700BF838B8A6823F47B6323F00F0394
:10489400F0B51B040C461B0C022183830184868B18
:1048A4008A4287B00546B6B237D0A38801A8002B48
:1048B40014BF02270127FFF7E9FCE3880199B3F548
:1048C400007F2CD07A01B1FBF2F202EB8202A168E4
:1048D4005200B2FBF1F2053292B21649A1FB020278
:1048E400D2085108881E02F00102FD2894BF41EA53
:1048F400022202222188B4F802C0A788A089314389
:1049040041F4006141EA0C013943134301439BB272
:1049140089B22B84A98307B0F0BDE388EAE7090ACA
:1049240001EB8101A0684A00B2FBF0F2053292B2B9
:10493400D3E700BFCDCCCCCC002307220282038076
:1049440043808380C380038143818381C381704713
:10495400002302228260038043808380C38083819A
:10496400704700BF038829B923F040031B041B0CC4
:10497400038070479BB243F040030380704700BF3D
:10498400838B29B923F480631B041B0C8383704736
:104994009BB243F480638383704700BF01230909FA
:1049A40003FA01F1838889B29BB21AB923EA01019F
:1049B4008180704719438180704700BF83889BB210
:1049C4001AB923EA01018180704719438180704735
:1049D40081817047808980B2704700BF4FF6FF63C2
:1049E4009942038804D09BB243F4807303807047D8
:1049F40023F480731B041B0C03807047838829B93C
:104A040023F004031B041B0C838070479BB243F008
:104A140004038380704700BF038823F400631B04EE
:104A24001B0C038003889BB219430180704700BFAD
:104A340003889BB243F4805303807047038829B9E9
:104A440023F400531B041B0C038070479BB243F4F4
:104A540000530380704700BF012914BF008B808A74
:104A640080B27047008A80B2704700BFB1F5804FB2
:104A7400038805D023F480431B041B0C0380704778
:104A84009BB243F480430380704700BF03891942FB
:104A94000CBF002001207047C94389B201817047CF
:104AA40010B48488008901F00F03012280B202FA55
:104AB40003F31840A4B205D009098A4014420CBF7C
:104AC400002001205DF8044B704700BF01F00F0186
:104AD400012303FA01F1C94389B20181704700BF80
:104AE40070B4048C1A4D24F001042404240C0484AE
:104AF400068B048CB6B226F0F306324342EA031363
:104B0400A8429EB2A4B21AD0124B984217D0B0F168
:104B1400804F14D0A3F59833984210D003F58063E6
:104B240098420CD003F58063984208D024F00A041C
:104B340044F0010421430683018470BC704724F0CF
:104B4400020444F0010421430683018470BC7047CD
:104B5400002C01400034014070B4048C1C4D24F03E
:104B640010042404240C0484048B068C24F4407460
:104B74002405240D44EA022242EA0333A8429BB2EC
:104B8400B6B21AD0134A904217D0B0F1804F14D065
:104B9400A2F59832904210D002F5806290420CD077
:104BA40002F58062904208D026F0A00646F0100676
:104BB4003143038370BC0184704726F0200646F01D
:104BC400100646EA011189B2038370BC0184704760
:104BD400002C01400034014008B57C4B984250D071
:104BE400B0F1804F59D07A4B984260D0794B9842BB
:104BF40067D0794B98426ED0784B984275D0784BF9
:104C040098427CD0774B984200F08380764B984250
:104C140000F08B80754B984200F09380744B98425F
:104C240000F09B80734B984200F0A380724B984233
:104C340000F0A980714B984200F0AF80704B98420D
:104C440000F0B7806F4B984203D06F4B98420CD062
:104C540008BD4FF400300121FFF784FB4FF400300E
:104C64000021BDE80840FFF77DBB4FF480200121FF
:104C7400FFF778FB4FF480200021BDE80840FFF7E0
:104C840071BB4FF400600121FFF76CFB4FF400602F
:104C94000021BDE80840FFF765BB01200146FFF78E
:104CA4006DFB01200021BDE80840FFF767BB02202F
:104CB4000121FFF763FB02200021BDE80840FFF754
:104CC4005DBB04200121FFF759FB04200021BDE84E
:104CD4000840FFF753BB08200121FFF74FFB0820D2
:104CE4000021BDE80840FFF749BB10200121FFF770
:104CF40045FB10200021BDE80840FFF73FBB202002
:104D04000121FFF73BFB20200021BDE80840FFF70D
:104D140035BB4FF400500121FFF724FB4FF4005042
:104D24000021BDE80840FFF71DBB4FF4002001211E
:104D3400FFF718FB4FF400200021BDE80840FFF7FF
:104D440011BB4FF480100121FFF70CFB4FF48010CE
:104D54000021BDE80840FFF705BB4FF40010012116
:104D6400FFF700FB4FF400100021BDE80840FFF7F7
:104D7400F9BA40200121FFF701FB40200021BDE8E2
:104D84000840FFF7FBBA80200121FFF7F7FA8020E3
:104D94000021BDE80840FFF7F1BA4FF4807001210B
:104DA400FFF7ECFA4FF480700021BDE80840FFF7EC
:104DB400E5BA4FF480300121FFF7D4FA4FF4803084
:104DC4000021BDE80840FFF7CDBA00BF002C014028
:104DD4000004004000080040000C004000100040A7
:104DE4000014004000340140004C014000500140D8
:104DF4000054014000180040001C00400020004006
:104E0400004001400044014000480140294A038811
:104E1400904270B49BB212D002F5006290420ED060
:104E2400B0F1804F0BD0A2F59832904207D002F532
:104E34008062904203D002F58062904203D14A8896
:104E440023F0700313431C4A90422AD002F5806277
:104E5400904226D0CE888D880C8823F4407302F5C6
:104E64008C329BB23343904203808585048512D0F3
:104E7400124B98420FD003F5406398420BD003F5D0
:104E84008063984207D003F58063984203D00123DE
:104E9400838270BC70470B7A03860123838270BCC3
:104EA400704703808B8883850B8803850123838265
:104EB40070BC7047002C01400010004000340140D9
:104EC400F0B4048CB1F802C00F890E88214D24F08F
:104ED40001042404240C0484028C8488038B22F0AF
:104EE400020223F0730312044CEA07071B04120C9A
:104EF400BFB21B0CA84247EA0202A4B243EA06036B
:104F040016D005F50065A84212D005F54065A84203
:104F14000ED005F58065A8420AD005F58065A84243
:104F240006D0C98884800383F0BC818602847047DC
:104F3400B1F80AC0CF898D898E8822F0080242EA2E
:104F44000C023D4324F4407422F00402ADB2324317
:104F54002C43E6E7002C0140F0B4048CB1F808C0FF
:104F64004F880E881F4D24F010042404240C04845C
:104F7400028C8488038B22F02002120423F4E6437B
:104F8400120C1B0442EA0C121B0C42EA071243EAFD
:104F94000623A84292B2A4B29BB20AD005F50065DA
:104FA400A84206D0C98884800383F0BC01870284A8
:104FB40070474D89B1F80CC08F88CE8922F08002E9
:104FC40092B242EA051224F440644FF6BF751540CC
:104FD40044EA8C0445EA071244EA860492B2A4B275
:104FE400E0E700BF002C0140F0B4048CB1F808C025
:104FF4004F880E881E4D24F480742404240C0484E9
:10500400028C8488838B22F400721204120C23F025
:10501400730342EA0C221B0442EA07221B0CA84237
:1050240092B2A4B243EA06030AD005F50065A84289
:1050340006D0C98884808383F0BC8187028470474A
:105044004D89B1F80CC08F88CE8922F4006292B2E7
:1050540042EA052224F440544FF6FF35154044EA51
:105064000C1445EA072244EA061492B2A4B2E0E71B
:10507400002C0140F0B4048CB1F808C04F880E88AD
:10508400174D24F480542404240C0484028C848852
:10509400838B22F40052120423F4E643120C1B0403
:1050A40042EA0C321B0C42EA073243EA0623A842C6
:1050B40092B2A4B29BB20BD005F50065A84207D00A
:1050C400C98884808383F0BCA0F8401002847047B0
:1050D4008D8924F4804444EA8514A4B2F0E700BF27
:1050E400002C0140F8B50B880D460446002B4DD02A
:1050F400042B00F09980082B59D0028CB1F804C01D
:105104000F894888564E22F480521204120C2284CD
:10511400A38B218C23F440731B051B0D43EA0C2342
:1051240043EA0733B4429BB289B227D04D4A944232
:1051340024D0B4F1804F21D0A2F5983294421DD0EE
:1051440002F58062944219D002F58062944215D02F
:1051540047F6FF5240F480500A400243A38322845E
:10516400A38BEA8823F440631B041B0CA383A38B47
:105174009BB243EA02239BB2A383F8BD21F40052FD
:1051840042EA003292B242F48052E7E7AA882B89BD
:105194004988FFF7A5FC238BEA8823F00C031B0442
:1051A4001B0C2383238B9BB213432383F8BD038CF3
:1051B4000E8988884F882A4A23F480731B041B0CA9
:1051C4002384A38B218C9BB223F0F30343EA0613BD
:1051D4009BB2944243EA000389B238D002F50062DC
:1051E400944234D0B4F1804F31D0A2F59832944235
:1051F4002DD002F58062944229D002F58062944257
:1052040025D021F4206147F480770F43A3832784BA
:10521400A38BEA8823F00C031B041B0CA383A38B2E
:105224009BB21343A383F8BDAA882B894988FFF74F
:1052340093FC238BEA8823F440631B041B0C238315
:10524400238B9BB243EA02239BB22383F8BD21F450
:10525400007141EA0727BFB247F48077D6E700BF61
:10526400002C014000340140F8B50D464988AB8854
:105274002A88002914BF00270227012B044614BFE3
:105284000126022612B31A462B89FFF765FC208BF0
:10529400EA882B8920F440600004000C2083208BD2
:1052A40080B240EA022080B232462083394620464A
:1052B400FFF716FC238BEA8823F00C031B041B0C5A
:1052C4002383238B9BB213432383F8BD1A462B8974
:1052D400FFF706FC208BEA882B8920F00C000004E1
:1052E400000C2083208B80B2104320833246394641
:1052F4002046FFF731FC238BEA8823F440631B0428
:105304001B0C2383238B9BB243EA02239BB223838C
:10531400F8BD00BFB1F802C00B888A89F0B48F8849
:10532400CE880D894C894CEA03033B4333432B431A
:10533400234313439BB2A0F84430F0BC704700BF32
:1053440000234FF6FF7282800380C3804380037280
:10535400704700BF0023038043808380C3800381A0
:1053640043818381C38170470023012282800380AB
:105374004380C3800381704700230380438083807C
:10538400C380038143818381704700BF038829B9A7
:1053940023F001031B041B0C038070479BB243F0F2
:1053A40001030380704700BFB0F8443021B9C3F350
:1053B4000E03A0F8443070476FEA43436FEA534347
:1053C4009BB2A0F84430704783899BB21AB923EA90
:1053D400010181817047194381817047818270473F
:1053E4000A43A0F84820704783899BB21AB923EA7C
:1053F400010181817047194381817047038923F03A
:1054040007031B041B0C0381704700BF038923F0AF
:1054140070031B041B0C1943018103899BB243F0E5
:1054240007030381704700BF38B50D46602D114650
:1054340004464FF001020ED0FFF752FB238923F0FC
:1054440070031B041B0C2B43238123899BB243F061
:105454000703238138BDFFF77FFBEFE710B404890E
:1054640042EA0323E4B223439BB219430181038933
:105474005DF8044B23F077031B041B0C43F0770304
:105484000381704710B4048942EA0323E4B223433E
:105494009BB21943018103895DF8044B9BB243F429
:1054A40080430381704700BF10B40489E4B22143F0
:1054B4000A4342EA03239CB204815DF8044B70471B
:1054C40001858282704700BF038823F070031B04A8
:1054D4001B0C194301807047038923F070031B04DC
:1054E4001B0C19430181704770B40589048B068C29
:1054F40024F4407424F00304B6B226F0220625F006
:105504000705240432432D04240C2D0C44F4807428
:1055140042EA0313294344F001049EB20181048347
:10552400068470BC704700BF038B23F070031B0418
:105534001B0C194301837047038B23F4E0431B04C2
:105544001B0C43EA01218BB203837047838B23F046
:1055540070031B041B0C194381837047838B23F452
:10556400E0431B041B0C43EA01218BB28383704785
:10557400038829B923F080031B041B0C03807047A4
:105584009BB243F080030380704700BF838829B92E
:1055940023F004031B041B0C838070479BB243F06D
:1055A40004038380704700BF838829B923F008036C
:1055B4001B041B0C838070479BB243F00803838059
:1055C400704700BF838829B923F001031B041B0C17
:1055D400838070479BB243F001038380704700BF10
:1055E400038B23F008031B041B0C1943018370472E
:1055F400038B23F400631B041B0C43EA01218BB2CD
:1056040003837047838B23F008031B041B0C19438B
:1056140081837047838B23F400631B041B0C43EAD0
:1056240001218BB283837047038B23F004031B0493
:105634001B0C194301837047038B23F480631B0401
:105644001B0C43EA01218BB203837047838B23F045
:1056540004031B041B0C194381837047838B23F4BD
:1056640080631B041B0C43EA01218BB283837047C4
:10567400038B23F080031B041B0C19430183704725
:10568400038BC3F30E0343EA01218BB203837047F8
:10569400838B23F080031B041B0C19438183704705
:1056A400838BC3F30E0343EA01218BB283837047D8
:1056B400038C23F002031B041B0C19430184704761
:1056C400038C23F008031B041B0C1943018470474B
:1056D400038C23F020031B041B0C43EA01118BB23F
:1056E40003847047038C23F080031B041B0C43EAE0
:1056F40001118BB203847047038C23F400731B04E1
:105704001B0C43EA01218BB203847047038C23F4FE
:1057140000631B041B0C43EA01218BB20384704712
:10572400038C23F400531B041B0C43EA01318BB29A
:1057340003847047038C10B401248C409BB223EA89
:1057440004030384038C5DF8044B8A4013439BB227
:1057540003847047038C10B404248C409BB223EA66
:1057640004030384038C5DF8044B8A4013439BB207
:1057740003847047038C10B401249BB28C4023EA49
:10578400040421F008030484183073B10439C1F30C
:105794004E0112020B585DF8044B23F4E0430B5006
:1057A4000B5892B21A430A50704749085DF8044BEB
:1057B400435823F07003435043581A4342507047F0
:1057C400038829B923F002031B041B0C03807047D0
:1057D4009BB243F002030380704700BF038829B9DA
:1057E40023F004031B041B0C038070479BB243F09B
:1057F40004030380704700BF838829B923F0800322
:105804001B041B0C838070479BB243F0800383808E
:10581400704700BF038823F008031B041B0C03809C
:1058240003889BB219430180704700BF838823F02B
:1058340070031B041B0C838083889BB219438180F3
:10584400704700BF038923F007031B041B0C03816B
:1058540003899BB219430181704700BF038923F078
:1058640080031B041B0C038103899BB21943018130
:10587400704700BF81847047818570478186704777
:105884000187704781877047A0F84010704700BFB8
:10589400038B23F00C031B041B0C0383038B9BB2AD
:1058A40019430183704700BF038B23F440631B0437
:1058B4001B0C0383038B9BB243EA01218BB203834A
:1058C400704700BF838B23F00C031B041B0C8383E2
:1058D400838B9BB219438183704700BF838B23F46E
:1058E40040631B041B0C8383838B9BB243EA01211B
:1058F4008BB28383704700BF038823F440731B0477
:105904001B0C038003889BB219430180704700BFBE
:10591400808E80B2704700BF008F80B2704700BF96
:10592400808F80B2704700BFB0F8400080B27047EB
:10593400808C80B2704700BF008D80B2704700BF7A
:10594400038A19420CBF002001207047C94389B261
:1059540001827047038A828911EA030092B203D05C
:1059640011420CBF00200120704700BFC94389B217
:105974000182704708B5264B984218D0254B9842AF
:1059840021D0254B98422AD0244B984233D0244B23
:10599400984200D008BD4FF480100121FEF7EEFCC0
:1059A4004FF480100021BDE80840FEF7E7BC4FF437
:1059B40080400121FEF7D6FC4FF480400021BDE871
:1059C4000840FEF7CFBC4FF400300121FEF7D6FCAF
:1059D4004FF400300021BDE80840FEF7CFBC4FF47F
:1059E40080200121FEF7CAFC4FF480200021BDE88D
:1059F4000840FEF7C3BC4FF400200121FEF7BEFCB3
:105A04004FF400200021BDE80840FEF7B7BC00BFFA
:105A1400003801400044004000480040004C004071
:105A240000500040F0B50D46018AEF88AA892B8901
:105A3400AE8889B2044621F44051394368892182F1
:105A4400A18989B221F4B051334321F00C010343FD
:105A54000B439BB2A381A38A9BB223F4407387B008
:105A64001343A38201A8FEF711FCA189049A1A48E2
:105A7400039B09B2844208BF13462A68A0890029FF
:105A840003EB8303B4BF5200920003EB8303134977
:105A9400B3FBF2F3A1FB035200B2520964250028C0
:105AA40002FB15334FEA02120ADB1B013233A1FB5E
:105AB4000351C1F343110A4392B2228107B0F0BDEE
:105AC400DB003233A1FB0301C1F342110A4392B25A
