:020000040800F2
:100000000855002045010008B57A000811300008A5
:10001000495B0008090A0008199700080000000061
:10002000000000000000000000000000C18800087F
:10003000C90A000800000000697B0008B58D0008AF
:100040005F0100085F0100085F0100085F01000810
:100050005F0100085F0100085F0100085F01000800
:100060005F0100085F0100085F0100085F010008F0
:100070005F0100085F0100085F0100085F010008E0
:100080005F0100085F0100085F0100085F010008D0
:100090005F0100085F0100085F0100080D270008EC
:1000A0005F0100085F0100085F0100085F010008B0
:1000B000198E0008298E00085F0100085F01000802
:1000C0005F0100085F0100085F0100085F01000890
:1000D0005F0100085F0100085F0100085F01000880
:1000E0005F0100085F0100085F0100085F01000870
:1000F0005F0100085F0100085F0100085F01000860
:100100005F0100085F0100085F0100085F0100084F
:10011000DD9300085F0100085F0100085F0100082F
:100120005F0100085F0100085F0100085F0100082F
:10013000DFF80CD000F050F800480047119B000891
:10014000085500200648804706480047FEE7FEE7BE
:10015000FEE7FEE7FEE7FEE7FEE7FEE7FEE7FEE777
:10016000B98D00083101000840EA01039B0703D064
:1001700009E008C9121F08C0042AFAD203E011F8E6
:10018000013B00F8013B521EF9D27047D2B201E0A8
:1001900000F8012B491EFBD270470022F6E710B58C
:1001A00013460A4604461946FFF7F0FF204610BDE5
:1001B000421C10F8011B0029FBD1801A704730B592
:1001C00004460020034600E05B1C934203D2E05C3F
:1001D000CD5C401BF8D030BD064C074D06E0E06812
:1001E00040F0010394E8070098471034AC42F6D37E
:1001F000FFF7A2FFC87B0F08E87B0F0870B501EB83
:10020000020410F8015B15F0070301D110F8013B5F
:100210002A1106D110F8012B03E010F8016B01F848
:10022000016B5B1EF9D12B0705D40023521E0FD49E
:1002300001F8013BFAE710F8013B02F10202A1EBE1
:10024000030303E013F8015B01F8015B521EF9D5CB
:10025000A142D6D3002070BD10B51F2003F06EF967
:10026000002003F0BFF809F059FA1F2003F0A8FCA2
:100270004FF6FF7003F092FD002003F077F917A10D
:10028000012003F0A9F91BA1022003F0A5F91FA189
:10029000032003F0A1F9042003F068F921A105204F
:1002A00003F09AF925A1062003F096F929A1072069
:1002B00003F092F9082003F059F92CA1092003F06A
:1002C0008BF909F033FA4FF6FF7003F037F901F0BC
:1002D0006FF9012003F086F810BD000020202020D7
:1002E0002020204D32345352202020202020202056
:1002F0000000000020202044656D6F6E73747261F1
:1003000074696F6E202020200000000020202056FD
:10031000657273696F6E20312E332E3020202020BD
:10032000000000002020202020204D4D5920546541
:10033000616D20202020202000000000202020438C
:100340004F505952494748542032303134202020F0
:10035000000000002053544D6963726F656C656343
:1003600074726F6E696373200000000020777777E6
:100370002E73742E636F6D2F6E66632D72666964C3
:100380000000000010B51F2003F0D8F8002003F093
:1003900029F809F0C3F91F2003F012FC4FF6FF7093
:1003A00003F0FCFC18A1032003F016F91CA10420A3
:1003B00003F012F920A1052003F00EF924A1062074
:1003C00003F00AF94FF4FA6009F05CFB4FF4A073F4
:1003D000F0220021084603F09FFC234A0021084632
:1003E00003F0EEFC214A0021A02003F0E9FC09F013
:1003F0009DF94FF6FF7003F0A1F801F0D9F8012044
:1004000002F0F0FF10BD000020202020596F75720F
:1004100020616E74656E6E61202020200000000057
:10042000202064657369676E206D61646520656175
:100430007379202000000000202020202020207739
:100440006974682020202020202020200000000047
:10045000202020204D41545249582D4D32345352C2
:100460002020202000000000440C0D0849380E0810
:1004700010B5FF2400BF322009F004FB601EC4B297
:1004800006480078012801D0002CF4D10CB90020D6
:1004900010BD0020014908700120F9E7040900207F
:1004A00010B50121142007F0BFFC0121C80407F09A
:1004B0009BFC10BD0EB5F4210648FFF76EFE06A0AA
:1004C00000F08CFAFFF7D4FF0021684600F046F8F0
:1004D0000EBD00004409002041542A50300D000098
:1004E0000EB5FFF7E7FF05A000F078FAFFF7C0FFB1
:1004F0000021684600F032F80EBD000041542A5039
:100500000D00000008B54FF40060ADF800000420B5
:100510008DF8030069460F4802F0D8FC4FF4806064
:10052000ADF8000003208DF8020018208DF80300BC
:100530006946084802F0CAFC0820ADF80000032014
:100540008DF8020010208DF803006946024802F081
:10055000BDFC08BD001001400008014070B5054613
:100560000C4605480068001B821E044801192846F5
:10057000FFF7FAFD70BD000008090020BD0800204B
:1005800010B5044604A000F029FAFFF771FF062118
:100590002046FFF7E3FF10BD41542A423F0D000003
:1005A00010B50446032295A12046FFF708FE08B9BE
:1005B000012010BD032292A12046FFF700FE08B9DA
:1005C0000220F6E704228FA12046FFF7F8FD08B9C4
:1005D0000320EEE704228DA12046FFF7F0FD08B9C5
:1005E0000420E6E704228BA12046FFF7E8FD08B9C6
:1005F0000520DEE7022289A12046FFF7E0FD08B9C9
:100600000620D6E7032286A12046FFF7D8FD08B9C9
:100610000720CEE7042283A12046FFF7D0FD08B9CA
:100620000820C6E7042281A12046FFF7C8FD08B9CB
:100630000920BEE704227FA12046FFF7C0FD08B9CC
:100640000A20B6E704227DA12046FFF7B8FD28B9AD
:10065000F4217C48FFF7A1FD0B20AAE704227AA130
:100660002046FFF7ACFD08B90C20A2E7042278A1D0
:100670002046FFF7A4FD48B9241D77480068021FF3
:1006800021467048FFF770FD0D2092E7042273A108
:100690002046FFF794FD50B9241D6F480068021FE3
:1006A000214668483430FFF75FFD0E2081E70422C1
:1006B0006CA12046FFF783FD50B9241D66480068F1
:1006C000021F21465F486830FFF74EFD0F2070E79C
:1006D000042266A12046FFF772FD50B9241D5E4832
:1006E0000068021F214657489C30FFF73DFD10204F
:1006F0005FE704225FA12046FFF761FD50B9241D8A
:1007000055480068021F21464E48A430FFF72CFDD3
:1007100011204EE7042259A12046FFF750FD50B9A1
:10072000241D4D480068021F21464648AC30FFF7A3
:100730001BFD12203DE7042252A12046FFF73FFD9A
:1007400050B9241D44480068021F21463D48E0304E
:10075000FFF70AFD13202CE704224CA12046FFF7E7
:100760002EFD08B9142024E704224AA12046FFF7F1
:1007700026FD08B915201CE7042248A12046FFF7F2
:100780001EFD08B9162014E7032246A12046FFF7F4
:1007900016FD08B917200CE7032243A12046FFF7F6
:1007A0000EFD08B9182004E7032240A12046FFF7F8
:1007B00006FD08B91920FCE604223DA12046FFF7FA
:1007C000FEFC08B91A20F4E604223BA12046FFF7FC
:1007D000F6FC08B91B20ECE6032239A12046FFF7FE
:1007E000EEFC08B91C20E4E6032236A12046FFF700
:1007F000E6FC08B91D20DCE60020DAE62A503100CC
:100800002A5030003A2A4330000000003A2A43318F
:10081000000000003A2A4332000000002A4E000087
:100820003A2A42003A2A5A30000000003A2A5A3145
:10083000000000003A2A5A32000000003A2D4D31E3
:1008400000000000440900203A2D4D300000000057
:100850003A2D413100000000000900203A2D4132BC
:10086000000000003A2D4133000000003A2D4134D1
:10087000000000003A2D4135000000003A2D4136BD
:10088000000000003A2D4137000000003A2D4331AE
:10089000000000003A2D4332000000003A2D43339F
:1008A000000000003A2B43003A2B49003A2B4F003E
:1008B0003A2B4230000000003A2B42310000000089
:1008C0003A2B56003A2B530000B595B0FFF7E8FDE0
:1008D000FFF718FE00F074F84FF4964011900020D6
:1008E000ADF84800ADF84A00ADF84C00ADF8500046
:1008F0000C20ADF84E0011A9154808F03BFE01226E
:1009000040F22551124808F010FE0121104808F06D
:10091000C9FD40F2DC5009F0B5F800F02BF80128D1
:100920000FD10C4908700CA000F058F8FFF7A0FD9B
:10093000002101A8FFF712FEF4210D48FFF72DFC5E
:1009400004E000200349087015B000BD0120FBE75A
:10095000004C0040BC08002041542A414D32345321
:10096000522D444953434F564552590D0000000043
:100970004409002030B591B0FF250EA000F02EF8FC
:1009800000BF042009F07EF8681EC5B20B4800784D
:10099000012801D0002DF4D10DB9002407E000207A
:1009A000064908700124002101A8FFF7D7FD204661
:1009B00011B030BD41542A50300D00000409002010
:1009C00010B5082004490860012009F05BF80820F0
:1009D0000149091D086010BD1008014010B504460A
:1009E0000BE000BF8021074808F068FD0028F9D01F
:1009F00014F8011B034808F02EFE20780028F0D1DF
:100A000010BD0000004C004000BFFEE7FEB50246EE
:100A10000B4600200021002400BF17E0002010E05A
:100A2000555C154E16F81060B54208D1124D05EB15
:100A300040056D780DF80450651CECB203E0451CD0
:100A4000E8B21028ECDB00BF4D1CE9B29942E5D3B7
:100A500000200EE01DF8105005F00F0645006D1C3B
:100A60001DF8055066F31F15C0F105069555451C88
:100A7000E8B20628EEDBFEBD4E640F0830B595B037
:100A80000020149000246D4614A808F0A7FB122241
:100A900008A12846FFF768FB284608F047FA0446F5
:100AA000012C02D100F062F901E000F0F9FA15B072
:100AB00030BD0000636F6D2E6E66632E6D32347331
:100AC0007264656D6F0000007047000001B582B070
:100AD000002001904FF0E020006940F001004FF04D
:100AE000E02108610A490298086002E007F0FAFB79
:100AF00001900748006840B10198022805D001988C
:100B0000032802D001980128F0D101980EBD000001
:100B10000C00002010B50E4807F06CFE0446012CB6
:100B200012D100200B4908700B48007840B90B48DF
:100B3000007828B90A48007810B9002003F02EFA8E
:100B4000012000F065FE02E0002000F061FE10BD13
:100B50003409002000030020FE020020FF020020D4
:100B60000103002010B50E4802F0A3FB0446012C3F
:100B700012D100200B4908700B48007840B90B488F
:100B8000007828B90A48007810B9002003F006FA66
:100B9000012001F0AFF802E0002001F0ABF810BD39
:100BA00034090020FE020020FF0200200003002084
:100BB0000103002010B50E4807F030FE0446012C5A
:100BC00012D100200B4908700B48007840B90B483F
:100BD000007828B90A48007810B9002003F0DEF93F
:100BE000012000F015FE02E0002000F011FE10BD13
:100BF0003409002001030020FE020020FF02002033
:100C00000003002010B50E4802F067FB0446012CDB
:100C100012D100200B4908700B48007840B90B48EE
:100C2000007828B90A48007810B9002003F0B6F916
:100C3000012001F05FF802E0002001F05BF810BD38
:100C400034090020FF020020FE02002000030020E3
:100C50000103002010B5002004F002FB012003F086
:100C60009DF91F2002F06AFC002002F0BBFB08F097
:100C700055FD002002F0A4FF4FF6FF7003F08EF840
:100C800016A1002002F0A8FC1F2002F099FF4FF6E9
:100C9000FF7003F083F817A1032002F09DFC1BA155
:100CA000042002F099FC1FA1052002F095FC23A16D
:100CB000062002F091FC002002F082FF25A109200D
:100CC00002F08AFC08F032FD4FF6FF7002F036FCAD
:100CD00000F06EFC012002F085FB10BD20204D329B
:100CE0003453522D444953434F56455259202020E6
:100CF000000000002020202020204D3234535220BC
:100D00005246202020202020000000002020686182
:100D100073206265656E2064697361626C6564202E
:100D2000000000002020202067657420636C6F7332
:100D30006520746F202020200000000020616E7468
:100D4000656E6E61206973206E6F2075736520205B
:100D5000000000005072657373206B657920746F1A
:100D60002072657475726E200000000010B50020BE
:100D700002F026FF4FF6FF7003F010F81F2002F07C
:100D8000DDFB1CA1002002F027FC1F2002F018FF51
:100D90004FF6FF7003F002F81CA1022002F01CFCC9
:100DA00020A1032002F018FC24A1042002F014FC6E
:100DB00028A1052002F010FC2CA1062002F00CFC5A
:100DC00030A1072002F008FC002002F0F9FE33A158
:100DD000092002F001FC012002F004FB08F0A6FC4F
:100DE000002002F0FFFA4FF6FF7002F0A7FB00F0C0
:100DF000DFFB10BD20204D323453522D4449534364
:100E00004F5645525920202000000000202020414C
:100E10004152207265636F726420686173202020E4
:100E200000000000206265656E20646F776E6C6F55
:100E30006164656420696E2000000000204D32343A
:100E400053522E20506C6561736520776176652062
:100E5000000000002020796F75722070686F6E6549
:100E6000206E65617220202000000000616E7465B4
:100E70006E6E6120746F206C61756E6368206F7296
:100E80000000000020646F776E6C6F6164204D324B
:100E9000345352204170702000000000507265737E
:100EA00073206B657920746F2072657475726E2083
:100EB000000000002DE9F04104460025002600272F
:100EC0001F2002F03BFB002002F07AFE4FF6FF707D
:100ED00002F064FF002002F085FA08F01FFC58A120
:100EE000002002F079FB1F2002F06AFE4FF4FC6044
:100EF00002F054FF58A1012002F06EFB5CA1042017
:100F000002F06AFB60A1072002F066FB4FF6FF705B
:100F100002F044FF84E02046FFF74AF910B3204670
:100F2000FFF746F9142812D92046FFF741F90F3888
:100F3000A8420CD92046FFF73BF9401B00F0FF0800
:100F400061194246022002F05FFB6D1C0AE0204658
:100F5000FFF72EF900F0FF0842462146022002F07A
:100F600053FB002504F14000FFF722F948B304F1D8
:100F70004000FFF71DF9142816D904F14000FFF7CF
:100F800017F90F38B0420FD904F14000FFF710F9FC
:100F9000801B00F0FF0804F1400081194246052043
:100FA00002F032FB761C0CE004F14000FFF700F980
:100FB00000F0FF08424604F14001052002F024FB46
:100FC000002604F1A400FFF7F3F848B304F1A400ED
:100FD000FFF7EEF8142816D904F1A400FFF7E8F89B
:100FE0000F38B8420FD904F1A400FFF7E1F8C01B95
:100FF00000F0FF0804F1A400C1194246082002F0E5
:1010000003FB7F1C0CE004F1A400FFF7D1F800F013
:10101000FF08424604F1A401082002F0F5FA002777
:1010200007F060F900283FF476AF4FF6FF7002F04A
:1010300085FA00F0BDFA012002F0D4F9BDE8F08194
:101040002020202020202020456D61696C20202058
:101050002020202020200000546F3A202020202033
:1010600020202020202020202020202020200000C0
:101070005375626A6563743A202020202020202066
:1010800020202020202000004D6573736167653AA1
:101090002020202020202020202020202020000090
:1010A00010B5002002F08CFD4FF6FF7002F076FEC6
:1010B0001F2002F043FA1CA1002002F08DFA1F202D
:1010C00002F07EFD4FF6FF7002F068FE1CA10220C8
:1010D00002F082FA20A1032002F07EFA24A104206B
:1010E00002F07AFA28A1052002F076FA2CA1062057
:1010F00002F072FA30A1072002F06EFA002002F02E
:101100005FFD33A1092002F067FA012002F06AF9BD
:1011100008F00CFB002002F065F94FF6FF7002F0BA
:101120000DFA00F045FA10BD20204D323453522DF7
:10113000444953434F564552592020200000000097
:1011400020204E444546206E6F742073746F726584
:1011500064202020000000002020506C6561736531
:1011600020636865636B20746865202000000000C0
:1011700020204E46432070686F6E65206973206E94
:101180006F74202000000000202020636C6F7365C6
:1011900020746F204D323453522020200000000074
:1011A00020616E74656E6E612C206C656176696E6F
:1011B0006720524600000000202020736573736989
:1011C0006F6E206F70656E65642020200000000047
:1011D0005072657373206B657920746F207265742B
:1011E00075726E20000000002DE9F04104460025D4
:1011F000002600271F2002F0A1F9002002F0E0FCE9
:101200004FF6FF7002F0CAFD002002F0EBF808F084
:1012100085FA58A1002002F0DFF91F2002F0D0FC6F
:101220004FF4FC6002F0BAFD58A1022002F0D4F99C
:101230005CA1052002F0D0F960A1082002F0CCF9F1
:101240004FF6FF7002F0AAFD84E02046FEF7B0FFE3
:1012500010B32046FEF7ACFF142812D92046FEF743
:10126000A7FF0F38A8420CD92046FEF7A1FF401B6C
:1012700000F0FF0861194246032002F0C5F96D1C19
:101280000AE02046FEF794FF00F0FF0842462146A0
:10129000032002F0B9F9002504F11400FEF788FFDD
:1012A00048B304F11400FEF783FF142816D904F1A3
:1012B0001400FEF77DFF0F38B0420FD904F114007F
:1012C000FEF776FF801B00F0FF0804F1140081197F
:1012D0004246062002F098F9761C0CE004F1140056
:1012E000FEF766FF00F0FF08424604F114010620F5
:1012F00002F08AF9002604F12800FEF759FF48B3EE
:1013000004F12800FEF754FF142816D904F1280030
:10131000FEF74EFF0F38B8420FD904F12800FEF750
:1013200047FFC01B00F0FF0804F12800C119424626
:10133000092002F069F97F1C0CE004F12800FEF797
:1013400037FF00F0FF08424604F12801092002F0AF
:101350005BF9002706F0C6FF00283FF476AF4FF692
:10136000FF7002F0EBF800F023F9012002F03AF8E8
:10137000BDE8F0812020202047656F6C6F636174A9
:10138000696F6E2020202020000000004C617469ED
:10139000747564653A202020202020202020202001
:1013A000000000004C6F6E6769747564653A202018
:1013B000202020202020202000000000496E666FA1
:1013C000726D6174696F6E3A2020202020202020E9
:1013D0000000000010B5002400BF19E0042C02D169
:1013E00002F07EF898B10C4850F8340078B10A4BFE
:1013F00053F83420094B03EB84035B88DB1C99B260
:10140000064B33F824309B1C98B202F0D9FC641CC4
:101410000C2CE3D310BD0000100000207000002051
:1014200030B589B004460D461F2002F087F8002031
:1014300002F0C6FB4FF6FF7002F0B0FC002001F096
:10144000D1FF08F06BF924A1002002F0C5F81F209D
:1014500002F0B6FBBCB101AA1021284601F0DAFD6A
:1014600023A1032002F0B8F8102201A9042002F001
:10147000CBF8102205A9052002F0C6F822A106200B
:1014800002F0AAF813E026A1032002F0A5F82AA191
:10149000042002F0A1F82EA1052002F09DF832A14F
:1014A000062002F099F836A1072002F095F80020F6
:1014B00002F086FB38A1092002F08EF808F036F918
:1014C0004FF6FF7002F03AF800F072F8012001F0D8
:1014D00089FF09B030BD000020204D323453522D19
:1014E000444953434F5645525920202000000000E4
:1014F000202020204E65772050617373776F7264CF
:101500002020202000000000202020202061637483
:10151000697661746564202020202020000000008E
:1015200020202020416374696F6E2061626F7274A5
:101530006564202000000000202054686520706150
:101540007373776F7264206861732020000000005D
:101550006265656E206D6F646966696564206F6E93
:101560002052462000000000736964652C207573CA
:101570006520537570657255736572200000000018
:101580006D6F646520746F20756E6C6F636B204D9A
:1015900032345352000000005072657373206B6543
:1015A0007920746F2072657475726E2000000000DF
:1015B00070B5002400251F2002F002FB4FF6FF70DB
:1015C00002F0ECFB4FF6FF7001F0B8FF1C4A126806
:1015D0002046116802F000F8A41C4FF6FF7002F0DC
:1015E000EFFA1F2002F0DAFB0AE0154800684068B5
:1015F00000EB0516A0B2316801F0EEFF6D1CA41CD3
:101600000F480068007AA842EFD84FF4FC6002F05F
:10161000D7FA4FF6FF7002F0C1FB09480068406836
:101620000849097800EB0110074908600A4612686A
:101630001168044A1278521C500001F0CDFF70BDB1
:101640006C080020030300206408002070B50446E5
:10165000002002F0B5FA4FF6FF7002F09FFB1F204A
:1016600001F06CFF1AA1002001F0B6FF1F2002F06C
:10167000A7FA4FF6FF7002F091FB2046FEF798FDA7
:10168000C5B22A462146022001F0BEFF16A1032062
:1016900001F0A2FF1AA1052001F09EFF1EA1062065
:1016A00001F09AFF002002F08BFA21A1092001F03D
:1016B00093FF012001F096FE08F038F8002001F0B9
:1016C00091FE4FF6FF7001F039FFFFF771FF70BD1B
:1016D00020204D323453522D444953434F564552E6
:1016E0005920202000000000202073746F72656470
:1016F00020696E204D32345352202020000000001B
:101700002020202057616974696E6720666F7220FF
:10171000202020200000000020202020204E4643D2
:101720002070686F6E6520202020202000000000BF
:101730005072657373206B657920746F20726574C5
:1017400075726E200000000010B5002002F038FA1B
:101750004FF6FF7002F022FB1F2001F0EFFE0EA1FA
:10176000002001F039FF1F2002F02AFA4FF6FF7027
:1017700002F014FB0EA1032001F02EFF12A10420A1
:1017800001F02AFF16A1052001F026FF1AA106206C
:1017900001F022FF10BD000020204D323453522DA5
:1017A000444953434F564552592020200000000021
:1017B0002020202053746F72696E6720376B42209F
:1017C0002020202000000000202020202020205663
:1017D000636172642020202020202020000000006F
:1017E000202020202020696E204D323453522020AA
:1017F0002020202000000000202020202020202069
:101800002E2E2E202020202020202020000000002E
:1018100010B504461F2001F091FE002002F0D0F91F
:101820004FF6FF7002F0BAFA002001F0DBFD07F07E
:1018300075FF16A1002001F0CFFE1F2002F0C0F9B5
:10184000012C08D117A1042001F0C6FE1BA1052020
:1018500001F0C2FE07E01FA1042001F0BDFE23A19C
:10186000052001F0B9FE002002F0AAF925A1092007
:1018700001F0B2FE07F05AFF4FF6FF7001F05EFE76
:10188000FFF796FE012001F0ADFD10BD20204D3286
:101890003453522D444953434F564552592020202A
:1018A000000000004C696D69746174696F6E206896
:1018B0006173206265656E200000000020202020FA
:1018C000202072656D6F7665642020202020202006
:1018D00000000000204C696D69746174696F6E20AE
:1018E000686173206E6F74200000000020202020AB
:1018F0006265656E2072656D6F76656420202020BC
:10190000000000005072657373206B657920746F5E
:101910002072657475726E20000000002DE9F041A0
:1019200004460025002600271F2001F007FE0020A6
:1019300002F046F94FF6FF7002F030FA002001F095
:1019400051FD07F0EBFE58A1002001F045FE1F20DD
:1019500002F036F94FF4FC6002F020FA58A10220A0
:1019600001F03AFE5CA1052001F036FE60A10820DE
:1019700001F032FE4FF6FF7002F010FA84E02046CC
:10198000FEF716FC10B32046FEF712FC142812D9FD
:101990002046FEF70DFC0F38A8420CD92046FEF772
:1019A00007FC401B00F0FF0861194246032001F0CC
:1019B0002BFE6D1C0AE02046FEF7FAFB00F0FF0844
:1019C00042462146032001F01FFE002504F11000CD
:1019D000FEF7EEFB48B304F11000FEF7E9FB142814
:1019E00016D904F11000FEF7E3FB0F38B0420FD90F
:1019F00004F11000FEF7DCFB801B00F0FF0804F18F
:101A0000100081194246062001F0FEFD761C0CE014
:101A100004F11000FEF7CCFB00F0FF08424604F191
:101A20001001062001F0F0FD002604F1D800FEF7B9
:101A3000BFFB48B304F1D800FEF7BAFB142816D94F
:101A400004F1D800FEF7B4FB0F38B8420FD904F107
:101A5000D800FEF7ADFBC01B00F0FF0804F1D80072
:101A6000C1194246092001F0CFFD7F1C0CE004F1B2
:101A7000D800FEF79DFB00F0FF08424604F1D801B4
:101A8000092001F0C1FD002706F02CFC00283FF4DE
:101A900076AF4FF6FF7001F051FDFFF789FD012091
:101AA00001F0A0FCBDE8F081202020202020202093
:101AB000534D532020202020202020200000000013
:101AC00050686F6E65204E756D6265723A202020F9
:101AD0002020202000000000534D53206D657373BB
:101AE0006167653A2020202020202020000000008F
:101AF000496E737472756374696F6E3A202020208A
:101B000020202020000000002DE9F041044600259F
:101B1000002600271F2001F011FD002002F050F8E0
:101B20004FF6FF7002F03AF9002001F05BFC07F07D
:101B3000F5FD58A1002001F04FFD1F2002F040F8F4
:101B40004FF4FC6002F02AF958A1012001F044FD95
:101B50005CA1042001F040FD60A1072001F03CFDE4
:101B60004FF6FF7002F01AF984E02046FEF720FBE2
:101B700010B32046FEF71CFB142812D92046FEF7AE
:101B800017FB0F38A8420CD92046FEF711FB401B6B
:101B900000F0FF0861194246022001F035FD6D1C7E
:101BA0000AE02046FEF704FB00F0FF08424621460B
:101BB000022001F029FD002504F15000FEF7F8FA9B
:101BC00048B304F15000FEF7F3FA142816D904F1D3
:101BD0005000FEF7EDFA0F38B0420FD904F1500073
:101BE000FEF7E6FA801B00F0FF0804F150008119AF
:101BF0004246052001F008FD761C0CE004F150007F
:101C0000FEF7D6FA00F0FF08424604F15001052025
:101C100001F0FAFC002604F5F070FEF7C9FA48B3AB
:101C200004F5F070FEF7C4FA142816D904F5F07024
:101C3000FEF7BEFA0F38B8420FD904F5F070FEF780
:101C4000B7FAC01B00F0FF0804F5F070C119424656
:101C5000082001F0D9FC7F1C0CE004F5F070FEF7C1
:101C6000A7FA00F0FF08424604F5F071082001F0E1
:101C7000CBFC002706F036FB00283FF476AF4FF68A
:101C8000FF7001F05BFCFFF793FC012001F0AAFB61
:101C9000BDE8F0812020202020202020205552491E
:101CA00020202020202020202020000055524920E4
:101CB00070726F746F636F6C3A2020202020202098
:101CC0000000000055524920636F6E74656E743ACF
:101CD00020202020202020200000000055524920F4
:101CE000696E666F726D6174696F6E3A2020202094
:101CF0000000000010B504461F2001F01FFC00206A
:101D000001F05EFF4FF6FF7002F048F8002001F08E
:101D100069FB07F003FD1CA1002001F05DFC1F2002
:101D200001F04EFF44B11EA1042001F055FC22A198
:101D3000052001F051FC13E025A1032001F04CFC2B
:101D400029A1042001F048FC2DA1052001F044FC4C
:101D500031A1062001F040FC35A1072001F03CFC38
:101D6000002001F02DFF38A1092001F035FC07F01B
:101D7000DDFC4FF6FF7001F0E1FBFFF719FC0120DD
:101D800001F030FB10BD000020204D323453522DA5
:101D9000444953434F56455259202020000000002B
:101DA00020202020202050617373776F72642020E0
:101DB00020202020000000002068617320626565FB
:101DC0006E2064697361626C65642020000000000D
:101DD00020202020416374696F6E2061626F7274ED
:101DE0006564202000000000202054686520706198
:101DF0007373776F726420686173202000000000A5
:101E00006265656E206D6F646966696564206F6EDA
:101E10002052462000000000736964652C20757311
:101E2000652053757065725573657220000000005F
:101E30006D6F646520746F20756E6C6F636B204DE1
:101E400032345352000000005072657373206B658A
:101E50007920746F2072657475726E200000000026
:101E600070B504461F2001F069FB002001F0A8FEB8
:101E70004FF6FF7001F092FF002001F0B3FA07F077
:101E80004DFC6CA1002001F0A7FB1F2001F098FE83
:101E90004FF4FC6001F082FF03226CA12046FEF7A4
:101EA0008EF978B914226AA1022001F0ADFB142248
:101EB0006DA1032001F0A8FB142271A1032001F001
:101EC000A3FBABE004F10A00FEF772F9C5B22A46A3
:101ED00004F10A01022001F097FB14226EA104F123
:101EE0000A00FEF76CF9002873D04FF6FF7001F07E
:101EF00055FF04F15A00FEF75BF9C5B22A4604F11A
:101F00005A01042001F080FB04F1AA00FEF750F909
:101F1000C5B22A4604F1AA01052001F075FB04F5BB
:101F2000F570FEF745F9E0B904F5E170FEF740F908
:101F300058B904F5CD70FEF73BF9C5B22A4604F551
:101F4000CD71072001F060FB16E004F5E170FEF7AB
:101F50002FF9C5B22A4604F5E171072001F054FBC0
:101F60000AE004F5F570FEF723F9C5B22A4604F538
:101F7000F571072001F048FB04F5A570FEF718F98C
:101F800058B904F1FA00FEF713F9C5B22A4604F174
:101F9000FA01082001F038FB0AE004F5A570FEF70D
:101FA00007F9C5B22A4604F5A571082001F02CFBFB
:101FB00004F26220FEF7FCF860B904F21220FEF78A
:101FC000F7F8C5B22A4604F21221092001F01CFBE1
:101FD0000BE022E004F26220FEF7EAF8C5B22A46DE
:101FE00004F26221092001F00FFB3148FEF7E0F80E
:101FF00005462A462E4904F10A00FEF7E0F830B9FA
:102000002C4A19214FF4827001F0DAFE05E02A4AC9
:1020100019214FF4827001F0D3FE00BF07F086FB58
:102020004FF6FF7001F08AFAFFF7C2FA012001F0C3
:10203000D9F970BD20202020202020564341524451
:10204000202020202020202000000000332E3000FF
:10205000202056636172642056657273696F6E202A
:10206000332E302000000000206E6F7420737570D6
:10207000706F7274656420776974682000000000D6
:102080002020202074686973206669726D77617200
:1020900065202020000000004E4445462069732042
:1020A0006E6F74206120566361726420000000002E
:1020B000E5010020F78F0308B15503082DE9F0432F
:1020C00099B000240025002600271F2001F036FAD1
:1020D000002001F087F907F021FB002001F070FDDE
:1020E0004FF6FF7001F05AFED7A1002001F074FAFC
:1020F000DBA1092001F070FA1F2001F061FD92E1DF
:10210000DD48FEF755F8002839D0DCA001680091C1
:102110008188ADF8041080798DF80600D648FEF766
:1021200047F880464246D4490DF10700FEF71CF8F7
:10213000D148FEF73DF80D2814D9CF48FEF738F8FE
:102140000838A0420ED9CC48FEF732F8C01D001B5B
:1021500000F0FF080DEB04014246022001F054FAA2
:10216000641C10E00024C448FEF722F8C01D00F0F3
:10217000FF0842466946022001F046FA03E0C1A189
:10218000022001F029FABC483430FEF711F800288B
:1021900039D0C2A103C9CDE90001B7483430FEF7F8
:1021A00007F880464246B449343102A8FDF7DCFF07
:1021B000B1483430FDF7FCFF0C2816D9AE48343056
:1021C000FDF7F6FFC01FA8420FD9AB483430FDF72A
:1021D000EFFF0830401B00F0FF080DEB0501424601
:1021E000032001F011FA6D1C11E00025A2483430E3
:1021F000FDF7DEFF083000F0FF0842466946032085
:1022000001F002FA03E0A8A1032001F0E5F99A48E1
:102210006830FDF7CDFF00283FD0A9A001680091EC
:102220008188ADF8041080798DF8060092486830F6
:10223000FDF7BEFF804642468F4968310DF1070029
:10224000FDF792FF8C486830FDF7B2FF0D2816D9D4
:1022500089486830FDF7ACFF0838B0420FD986488E
:102260006830FDF7A5FFC01D801B00F0FF080DEBD7
:1022700006014246042001F0C7F9761C11E0002651
:102280007D486830FDF794FFC01D00F0FF0842460E
:102290006946042001F0B8F903E08BA1042001F0A5
:1022A0009BF975489C30FDF783FF002845D08CA032
:1022B000016800918188ADF8041080798DF80600DE
:1022C0006D489C30FDF774FF804642466A499C3158
:1022D0000DF10700FDF748FF67489C30FDF768FFE8
:1022E000C01D6946084480A1097801706248A43085
:1022F000FDF75EFF814660489C30FDF759FF0830CE
:10230000694600EB01084A465B49A4314046FDF7A7
:102310002BFF5948A430FDF74BFF00F10109564847
:102320009C30FDF745FF4844C01D00F0FF084246C1
:102330006946052001F068F903E06CA1052001F071
:102340004BF94D48AC30FDF733FF88B36DA0016801
:1023500000918188ADF8041080798DF80600464818
:10236000AC30FDF725FF804642464349AC310DF1C4
:102370000700FDF7F9FE4048AC30FDF719FF0D28C6
:1023800017D93D48AC30FDF713FF0838B84210D9D3
:102390003948AC30FDF70CFFC01DC01B00F0FF0832
:1023A0000DEB07014246062001F02EF97F1C12E0DA
:1023B0000DE000273048AC30FDF7FAFEC01D00F0FC
:1023C000FF0842466946062001F01EF903E04FA1CE
:1023D000062001F001F92848E030FDF7E9FEF0B1F0
:1023E00050A0016800918088ADF804002248E030D8
:1023F000FDF7DEFE804642461F49E0310DF1060042
:10240000FDF7B2FE1C48E030FDF7D2FE801D00F063
:10241000FF0842466946072001F0F6F803E043A1B1
:10242000072001F0D9F805F05DFF00283FF468AE01
:102430004FF6FF7001F082F8FFF7BAF8012000F0C4
:10244000D1FF19B0BDE8F0832020536F6E6720499B
:102450006E666F726D6174696F6E202000000000FF
:102460005072657373206B657920746F2072657488
:1024700075726E2000000000440900205469746CDD
:10248000653A20005469746C653A20202020202091
:1024900020202020202020200000000041727469AC
:1024A00073743A20000000004172746973743A201A
:1024B000202020202020202020202020000000009C
:1024C000416C62756D3A2000416C62756D3A202056
:1024D000202020202020202020202020000000007C
:1024E00050697374653A20002F00000050697374BE
:1024F000653A20202020202020202020202020207D
:102500000000000047656E72653A200047656E72F4
:10251000653A20202020202020202020202020205C
:102520000000000054696D653A20000054696D6533
:102530003A20202020202020202020202020202081
:102540000000000010B504461F2000F0F7FF002037
:1025500001F036FB4FF6FF7001F020FC002000F088
:1025600041FF07F0DBF816A1002001F035F81F202D
:1025700001F026FB012C08D117A1042001F02CF852
:102580001BA1052001F028F807E01FA1042001F09D
:1025900023F823A1052001F01FF8002001F010FB13
:1025A00025A1092001F018F807F0C0F84FF6FF70D8
:1025B00000F0C4FFFEF7FCFF012000F013FF10BD88
:1025C00020204D323453522D444953434F564552E7
:1025D00059202020000000004C696D697461746905
:1025E0006F6E20686173206265656E2000000000D8
:1025F000202020202020656E61626C6564202020F0
:102600002020202000000000204C696D6974617456
:10261000696F6E20686173206E6F74200000000087
:1026200020202020206265656E20656E61626C65E9
:1026300064202020000000005072657373206B65D9
:102640007920746F2072657475726E20000000002E
:1026500010B52848007800B910BD4FF6FF7001F0A2
:10266000AFFA1F2001F09AFB234800684068234915
:10267000097800EB0110224908600A4612681168C7
:102680001E4A1278521C500000F0A6FF1A4800683B
:10269000007A401E19490978884203DC0020174956
:1026A000087004E015480078401C144908704FF485
:1026B000FC6001F085FA4FF6FF7001F06FFB0E48E9
:1026C000006840680D49097800EB01100C4908606A
:1026D0000A4612681168094A1278521C500000F02C
:1026E0007BFF064800780749074A1278885400BFE4
:1026F000B2E70000020300206C0800200303002062
:1027000064080020600800200403002010B5402069
:1027100000F024F828B101200C490860402000F0A6
:1027200017F8802000F01AF820B1FFF791FF802001
:1027300000F00EF84FF4007000F010F828B106F029
:102740008FFF4FF4007000F003F810BD0000002070
:102750000149086070470000140401400146002050
:102760000022074B1B6803EA0102054B14331B6868
:102770000B4202D00AB1012000E0002070470000A7
:1027800000040140002123498279002A3AD00A46F8
:10279000126803689A430B461A600A1D12680368A0
:1027A0009A430B1D1A60027911440A6803681A43A0
:1027B0000A60184A0832126803689A43154B0833B6
:1027C0001A601A1D126803689A43124B0C331A6080
:1027D0004279102A0ED11A1F126803681A430D4B52
:1027E00008331A601A1D126803681A43094B0C3328
:1027F0001A600DE00749427911440A6803681A43D8
:102800000A6005E0027911440A6803689A430A6085
:1028100070470000000401400021016001710C219B
:10282000417100218171704710B5094806F00AF81E
:102830000446012C08D107490870002001F0C6FBAE
:102840000120FFF77FFE02E00020FFF77BFE10BDB6
:1028500034090020000300207FB500F0D3FB0546BB
:10286000002414E0E8B20DF80400C5F30721601C51
:102870000DF80010C5F30741A01C0DF80010290E3B
:10288000E01C0DF8001005EB0525201D84B2102C6E
:10289000E8DB69460F4800F034FD0646012E13D1EF
:1028A0000D490870002001F091FB002405E01DF89F
:1028B00004000A490855601C84B2102CF7DB6946F5
:1028C0000120FEF7ADFD03E069460020FEF7A8FDFC
:1028D0007FBD000034090020FE02002024090020F2
:1028E00010B5094805F0C2FF0446012C08D107497C
:1028F0000870002001F06AFB0120FFF723FE02E0D0
:102900000020FFF71FFE10BD340900200103002046
:102910007FB500F077FB0546002414E0E8B20DF81F
:102920000400C5F30721601C0DF80010C5F3074132
:10293000A01C0DF80010290EE01C0DF8001005EB8E
:102940000525201D84B2102CE8DB69460F4800F0F5
:10295000EEFC0646012E13D10D490870002001F04F
:1029600035FB002405E01DF8040008490855601CEB
:1029700084B2102CF7DB69460120FEF751FD03E01D
:1029800069460020FEF74CFD7FBD000034090020A1
:10299000FF02002010B5FDF7A3FD022001F016FB99
:1029A0001F2000F0CBFD002000F01CFD06F0B6FE5D
:1029B000002001F005F94FF6FF7001F0EFF911A1C9
:1029C000002000F009FE15A1092000F005FE1F20DF
:1029D00001F0F6F84FF6FF7001F0E0F915A10420C0
:1029E00000F0FAFD19A1052000F0F6FD06F09EFEAC
:1029F0004FF6FF7000F0A2FDFEF7DAFD012000F0B7
:102A0000F1FC10BD20204D323453522D4449534324
:102A10004F56455259202020000000005072657327
:102A200073206B657920746F2072657475726E20E7
:102A3000000000002020204E6577206465766963E1
:102A4000652063616E2020200000000020202020EF
:102A5000206265207061697265642020202020203A
:102A60000000000070B596B00020159000240025ED
:102A700001AE15A806F0B2FB12227FA13046FDF789
:102A800073FB304606F052FA0021052005F002FFE4
:102A90001F2000F053FD002000F0A4FC06F03EFED5
:102AA000002001F08DF84FF6FF7001F077F977A163
:102AB000002000F091FD7BA1092000F08DFD1F207A
:102AC00001F07EF84FF6FF7001F068F97BA102205B
:102AD00000F082FD7FA1032000F07EFD83A1042091
:102AE00000F07AFD87A1052000F076FD4FF47840D4
:102AF00001F054F94123402291210C2000F00AFEFC
:102B0000412340229121582000F004FE412340221D
:102B10009121A42000F0FEFD412340229121F020CC
:102B200000F0F8FD95E005E000F086F90546022D7D
:102B300000D105E04021794800F051FA0028F3D196
:102B400000BF022D00D187E014F0070F0AD14FF427
:102B5000FC6001F023F94123402291210C2000F078
:102B6000D9FD67E004F0070001280AD14FF4FC60AA
:102B700001F014F9412340229121582000F0CAFDB0
:102B800058E004F0070002280AD14FF4FC6001F07D
:102B900005F9412340229121A42000F0BBFD49E02A
:102BA00004F0070003280AD14FF4FC6001F0F6F8A6
:102BB000412340229121F02000F0ACFD3AE004F0E6
:102BC000070004280AD14FF4784001F0E7F84123C8
:102BD000402291210C2000F09DFD2BE004F0070025
:102BE00005280AD14FF4784001F0D8F8412340225B
:102BF0009121582000F08EFD1CE004F0070006280B
:102C00000AD14FF4784001F0C9F8412340229121C4
:102C1000A42000F07FFD0DE004F00700072809D193
:102C20004FF4784001F0BAF8412340229121F0207E
:102C300000F070FD641C05E000F0FEF80546022D72
:102C400000D105E04021354800F0C9F90128F3D151
:102C500000BF022D7FF467AF00BF0021012005F007
:102C600019FE4FF6FF7000F069FCFEF7A1FC012091
:102C700000F0B8FB16B070BD636F6D2E6E66632EEC
:102C80006D3234737264656D6F00000020204D3228
:102C90003453522D444953434F5645525920202016
:102CA000000000005072657373206B657920746FAB
:102CB0002072657475726E200000000020202020B4
:102CC00057616974696E6720666F7220202020202A
:102CD000000000002020206170706C6963617469DD
:102CE0006F6E20746F202020000000002067656E4A
:102CF000657261746520696E746572727570742096
:102D00000000000077697468204D32345352204728
:102D1000504F206C696E65200000000000080140E3
:102D200010B5012002F09CFA012001F04FF91F209C
:102D300000F004FC002000F055FB06F0EFFC002042
:102D400000F03EFF4FF6FF7001F028F816A10020BA
:102D500000F042FC1F2000F033FF4FF6FF7001F03F
:102D60001DF817A1032000F037FC1BA1042000F080
:102D700033FC1FA1052000F02FFC23A1062000F04A
:102D80002BFC002000F01CFF25A1092000F024FCF2
:102D900006F0CCFC4FF6FF7000F0D0FBFEF708FC0D
:102DA000012000F01FFB10BD20204D323453522D66
:102DB000444953434F5645525920202000000000FB
:102DC0002020202020204D323453522052462020F3
:102DD0002020202000000000202068617320626510
:102DE000656E20656E61626C6564202000000000E5
:102DF0002020202067657420636C6F736520746FDA
:102E0000202020200000000020616E74656E6E613D
:102E100020666F7220616374696F6E20000000008D
:102E20005072657373206B657920746F20726574BE
:102E300075726E200000000010B500244021054886
:102E400000F0CDF800B9012405F04CFA00B10224DD
:102E5000204610BD000801400549096821F0100115
:102E6000034A116011460968014311607047000070
:102E70000020024001460020034A106800F038009C
:102E800008431060704700000020024030B5002267
:102E90008B071C0F0F2303FA04F20B4B8C1053F813
:102EA00024309343084C8D1044F8253023468C1071
:102EB00053F824308C07240F00FA04F42343024C07
:102EC0008D1044F8253030BD080001402DE9F04157
:102ED000024600250026002000230024002791F848
:102EE00003C00CF00F0591F803C01CF0100F03D0C5
:102EF00091F802C04CEA050591F800C0BCF1000F42
:102F000031D0146800202BE04FF0010C0CFA00F3D4
:102F1000B1F800C00CEA03069E4220D183004FF0B6
:102F20000F0C0CFA03F7BC4305FA03FC4CEA04044B
:102F300091F803C0BCF1280F06D14FF0010C0CFA38
:102F400000FCC2F814C00AE091F803C0BCF1480FBD
:102F500005D14FF0010C0CFA00FCC2F810C0401C67
:102F60000828D1D31460B1F800C0BCF1FF0F34DDE4
:102F7000546800202EE000F1080C4FF0010808FA18
:102F80000CF3B1F800C00CEA03069E4221D1830085
:102F90004FF00F0C0CFA03F7BC4305FA03FC4CEAA4
:102FA000040491F803C0BCF1280F05D100F1080C0E
:102FB00008FA0CF8C2F8148091F803C0BCF1480F6D
:102FC00007D100F1080C4FF0010808FA0CF8C2F81C
:102FD0001080401C0828CED35460BDE8F081024622
:102FE000002093680B4201D0012000E000207047D0
:102FF00041617047016170470AB1016100E04161C0
:103000007047000001480068704700007408002005
:1030100000BFFEE730B50346002400BF1BE01D786B
:1030200028090A2803DA00F13005157002E000F1E2
:1030300037051570521C1D7805F00F000A2803DAB9
:1030400000F13005157002E000F137051570521CD3
:103050005B1C651CECB28C42E1DB30BD21B1028807
:1030600042F48062028004E002884FF6FF331A4087
:103070000280704770B5024600240025002300201E
:10308000958A138B1B0445EA030626F07F4404EA65
:1030900001068E4201D1012000E0002070BD002217
:1030A00021F07F42D3438382704721B1028842F0EE
:1030B0000102028004E002884FF6FE731A4002808B
:1030C0007047000010B504460B48844209D1012125
:1030D000480504F099FE00214FF4001004F094FE1E
:1030E00008E00121880504F08FFE00214FF48000E4
:1030F00004F08AFE10BD00000054004021B1028897
:1031000042F48072028004E002884FF6FF631A40A6
:103110000280704721B1028842F40072028004E00C
:1031200002884FF6FF531A40028070470CB50246E2
:10313000002000230193009300920B0F019321F0D4
:103140007F41019B1BB1009B1433009303E0090CEA
:10315000009B18330093009B1B680B4201D0012099
:1031600000E000200CBD00002DE9F04385B00446CE
:103170000D460026B1460427DFF8CC80A6884FF61E
:10318000C0700640684604F06FFEDDF808802F48E6
:10319000B8FBF0F01FFA80F946EA0906A6802088FD
:1031A0004FF6FE7108402080002629492868884291
:1031B0000CD828684000B8FBF0F087B2042F00DA82
:1031C00004273E4309F10100208427E0E888A0F5A8
:1031D0003F41FF3906D1286800EB4000B8FBF0F012
:1031E00087B209E0286800EBC00101EB0010B8FBD2
:1031F000F0F087B247F480473805000D01D147F061
:10320000010747F4004006434FF4967009FB00F0B5
:103210004FF47A7190FBF1F0401C2084A683208843
:1032200040F00100208026884FF6F5300640A8883F
:103230006989084306432680A88929890843208193
:1032400005B0BDE8F083000000127A0040420F0094
:10325000A086010008B50246002000900092009868
:10326000084400900098008808BD0146088AC0B252
:10327000704712B141F0010102E04FF6FE731940B0
:10328000018270470182704738B50446684601F0F4
:103290002BFD4FF6FF71BDF8000001F023FF204623
:1032A00001F0B4FA0546BDF8000001F03BFA2846EB
:1032B00038BD38B50446684601F016FD0021BDF85A
:1032C000000001F00FFF204601F028FB0546BDF885
:1032D000000001F027FA284638BD38B50446684694
:1032E00001F002FD0021BDF8000001F0FBFE2046C8
:1032F00001F08AFB0546BDF8000001F013FA2846EC
:1033000038BDF8B504460D46684601F0EDFC0021D5
:10331000BDF8000001F0E6FE2946204601F0E4FB7E
:103320000646BDF8000001F0FDF93046F8BDF8B5DD
:1033300004460D46684601F0D7FC0021BDF80000A8
:1033400001F0D0FE2946204601F044FC0646BDF8B7
:10335000000001F0E7F93046F8BD704708B50121DB
:10336000082004F061FD4020ADF8000004208DF835
:10337000030069461A48FFF7A9FD8020ADF8000058
:1033800069461748FFF7A2FD2020ADF80000694606
:103390001348FFF79BFD4FF48070ADF800006946BD
:1033A0000F48FFF793FD4FF40070ADF80000694639
:1033B0000B48FFF78BFD08210120FFF767FD052172
:1033C0000120FFF763FD07210120FFF75FFD0921C1
:1033D0000120FFF75BFD06210120FFF757FD08BD27
:1033E000000C01401CB504466846FFF715FA4CB9BD
:1033F0004FF43070009000208DF806006846FFF70B
:10340000C1F912E04FF43070FFF7A2F900208DF8F7
:1034100004004FF4307000900C208DF8050001205E
:103420008DF806006846FFF7ADF91CBD08B54FF4EE
:10343000C06004F07BFB1C208DF8000002208DF89A
:1034400001008DF8020001208DF80300684604F0A9
:1034500033FB1D208DF8000002208DF801008DF84F
:10346000020001208DF80300684604F025FB34209B
:103470008DF8000001208DF801008DF802008DF814
:103480000300684604F018FB14208DF800000120AA
:103490008DF801008DF802008DF80300684604F0F5
:1034A0000BFB13208DF8000001208DF80100002097
:1034B0008DF8020001208DF80300684604F0FCFA44
:1034C00017208DF8000002208DF8010000208DF8F3
:1034D000020001208DF80300684604F0EDFA08BDF3
:1034E0000148007870470000BC08002001460448ED
:1034F00050F82100012800D170470020FCE70000AF
:10350000F83400200146087800F0C000C02801D13E
:10351000002070471020FCE710B504462CB94FF48A
:1035200080510548FFF764FD04E04FF480510248E4
:10353000FFF760FD10BD0000000C014070B50546AE
:103540000024F0234FF4A0720021084600F0E4FBB1
:1035500000F0CCFC00BF03E0284600F0B1FC641C86
:10356000B4F5963FF8D300F0B1FC70BDF8B506464F
:10357000002408A000680090002508E09DF80020C5
:103580002946304600F014F8681C85B2641C142CDF
:10359000F4D3F8BD20000000704770B504460D4616
:1035A0001646324629462046FFF726FD70BD00002C
:1035B00070B505460E461446A4F12000C4B204EBD3
:1035C0004400044901EB00123146284600F046F859
:1035D00070BD0000E0640F082DE9F04107460C467D
:1035E0000025002608E0227831463846FFF7E0FF44
:1035F000701C86B2641C6D1C20780028F3D1142D39
:10360000F1D3BDE8F08100002DE9F84380460D4676
:103610001646002410A0006800900027142E00DD3C
:10362000142608E02A7839464046FFF7C1FF781C87
:1036300087B26D1C641CB442F4D300BF9DF8002017
:1036400039464046FFF7B4FF781C87B2641C142C3F
:10365000F4D3BDE8F8830000200000002DE9F04716
:1036600080460E46174600250024A146A24608EBD8
:1036700048004FF6FF7101EAC00A084600EA061941
:1036800000224FF480512048FFF787FF51464846FB
:1036900000F09EFA00F02AFC00BF2CE0B9F5987FFC
:1036A00014D000240FE037F815000121A140084292
:1036B00004D11648008800F003FC03E01448008899
:1036C00000F0FEFB641C112CEDD313E000240FE08E
:1036D00037F815000121A140084204D10B480088A9
:1036E00000F0EEFB03E00A48008800F0E9FB641CF0
:1036F000102CEDD36D1C192DD0D3012211030248DB
:10370000FFF74BFFBDE8F087000C0140BA0800202E
:10371000B80800202DE9F04107460D4690461E46A8
:10372000002408E0281981B200234246384600F000
:1037300007F8601C84B2B442F4DDBDE8F0810000FB
:103740002DE9F0478046894614461E46002701258C
:1037500036B92B4622464946404600F071FA06E04B
:10376000601C83B22A464946404600F069FA00F0E0
:10377000BDFB002704E00548008800F0A1FB7F1C8A
:10378000601C6843B842F6D8BDE8F087B80800204E
:103790002DE9F04105460E4617461C4600233A46E1
:1037A00031462846FFF7CCFF301981B200233A4654
:1037B0002846FFF7C5FF0123224631462846FFF77A
:1037C000BFFFE91988B2012322463146FFF7B8FF4F
:1037D000BDE8F08110B5FFF7DFFE00F091F932206F
:1037E00006F040F900F002F810BD000010B500200E
:1037F000FFF792FE782006F035F9CA2000F024FB8E
:10380000C32000F03FFB782006F02CF9112000F0D7
:103810001BFB782006F026F9CF2000F015FB0020D6
:1038200000F030FBAA2000F02DFBB02000F02AFBB6
:10383000782006F017F9EF2000F006FB032000F0D7
:1038400021FB802000F01EFB022000F01BFB7820F3
:1038500006F008F9ED2000F0F7FA672000F012FBFF
:10386000032000F00FFB122000F00CFB812000F081
:1038700009FB782006F0F6F8E82000F0E5FA84204D
:1038800000F000FB112000F0FDFA7A2000F0FAFAB7
:10389000782006F0E7F8CB2000F0D6FA392000F0C7
:1038A000F1FA2C2000F0EEFA002000F0EBFA3420C0
:1038B00000F0E8FA022000F0E5FA782006F0D2F8ED
:1038C000EA2000F0C1FA662000F0DCFA002000F0E7
:1038D000D9FA782006F0C6F8F72000F0B5FA2020D3
:1038E00000F0D0FA782006F0BDF8CA2000F0ACFA5B
:1038F000832000F0C7FA022000F0C4FA002000F094
:10390000C1FA782006F0AEF8EA2000F09DFA002017
:1039100000F0B8FA002000F0B5FA782006F0A2F81E
:10392000C02000F091FA182000F0ACFA782006F0E0
:1039300099F8C12000F088FA112000F0A3FAC52000
:1039400000F082FA3E2000F09DFA152000F09AFA6D
:10395000782006F087F8362000F076FA282000F06C
:1039600091FA782006F07EF8B12000F06DFA002080
:1039700000F088FA1B2000F085FA102000F082FA8F
:10398000342000F061FA782006F06CF8B62000F0E0
:103990005BFA0A2000F076FA822000F073FA272002
:1039A00000F070FA262000F04FFA012000F06AFAC9
:1039B000F22000F049FA002000F064FAE02000F064
:1039C00043FA0F2000F05EFA3A2000F05BFA36204E
:1039D00000F058FA0B2000F055FA0D2000F052FAD2
:1039E000062000F04FFA4C2000F04CFA912000F035
:1039F00049FA312000F046FA082000F043FA10207E
:103A000000F040FA042000F03DFA112000F03AFAEC
:103A10000C2000F037FA002000F034FAE12000F02A
:103A200013FA002000F02EFA062000F02BFA0A20EC
:103A300000F028FA052000F025FA122000F022FA02
:103A4000092000F01FFA2C2000F01CFA922000F050
:103A500019FA3F2000F016FA082000F013FA0E20A1
:103A600000F010FA0B2000F00DFA2E2000F00AFAF8
:103A7000332000F007FA0F2000F004FA3A2000F09B
:103A8000E3F9552000F0FEF9782005F0EBFF2A203D
:103A900000F0DAF9002000F0F5F9002000F0F2F96A
:103AA000012000F0EFF93F2000F0ECF92B2000F0AE
:103AB000CBF9002000F0E6F9002000F0E3F9002047
:103AC00000F0E0F9EF2000F0DDF92C2000F0BCF967
:103AD0004FF40061084804F023FE002404E0074886
:103AE000008800F0CFF9641CB4F5963FF7DB29207D
:103AF00000F0AAF910BD000000380040BA0800200C
:103B000000B587B00121082004F08EF901211020B2
:103B100004F08AF90121880304F066F94FF460404B
:103B2000ADF8040003208DF8060018208DF807007A
:103B300001A92048FFF7CAF94FF48050ADF80400FE
:103B400010208DF8070001A91A48FFF7BFF940209F
:103B5000ADF8040003208DF8060010208DF8070052
:103B600001A91548FFF7B2F9144804F0E3FD4FF43A
:103B70004040ADF808004FF48270ADF80A00002014
:103B8000ADF80C000220ADF80E000120ADF81000D9
:103B90004002ADF812000020ADF81400ADF8160098
:103BA00002A9064804F0FDFD0121044804F0ACFD23
:103BB00007B000BD000C014000100140003800407B
:103BC00001B5BDF800000149088008BDBA08002011
:103BD00070B504460D460021184804F0A1FD2A20C6
:103BE00000F032F9200A00F04DF9E0B200F04AF995
:103BF00004F11000C0F3072000F044F904F11001B3
:103C0000C8B200F03FF92B2000F01EF9280A00F09E
:103C100039F9E8B200F036F905F11800C0F30720D1
:103C200000F030F905F11801C8B200F02BF9292095
:103C300000F00AF92C2000F007F970BD00380040B0
:103C40002DE9F04704460D4616461F464FF4A0786E
:103C50004FF0F00900212F4804F062FD2A2000F007
:103C6000F3F8444501DA214600E04146080A00F035
:103C700009F9444501DA214600E04146C8B200F0A6
:103C800001F9A119491E414502DAA119491E00E0B6
:103C90004146C1F3072000F0F5F8A119491E41453E
:103CA00002DAA119491E00E04146C8B200F0EAF864
:103CB0002B2000F0C9F84D4501DA294600E04946BD
:103CC000080A00F0DFF84D4501DA294600E04946D0
:103CD000C8B200F0D7F8E919491E494502DAE919D6
:103CE000491E00E04946C1F3072000F0CBF8E9196E
:103CF000491E494502DAE919491E00E04946C8B2A1
:103D000000F0C0F8292000F09FF82C2000F09CF86B
:103D1000BDE8F087003800402DE9F04104460D462B
:103D200016461F4600211C4804F0FAFC3019401EBC
:103D3000B0F5A07F2EDA7819401EF0282ADA2A2062
:103D400000F082F8200A00F09DF8E0B200F09AF846
:103D50003119491EC1F3072000F094F83119491EAA
:103D6000C8B200F08FF82B2000F06EF8280A00F09F
:103D700089F8E8B200F086F87919491EC1F30720E6
:103D800000F080F87919491EC8B200F07BF80120D4
:103D9000BDE8F0810020FBE70038004001B5BDF828
:103DA00000000149088008BDB808002010B5F023C4
:103DB0004FF4A07200210846FFF7AEFF10BD0000CF
:103DC0002DE9F74F824614464FF00008C346002500
:103DD000002600272078451C6078461C05FB06FB62
:103DE00000F084F833462A4650460199FFF794FFC5
:103DF00028B900F06BF8FFF7D9FFBDE8FE8F2C2043
:103E000000F022F84FF400610E4804F089FC671DB1
:103E10004FF000080DE038884FEA1029387809EB98
:103E200000201FFA80F9484600F02CF8BF1C08F16A
:103E30000108D845EFD300F049F8FFF7B7FF00BFFE
:103E4000DBE700000038004010B5044600224021A6
:103E50000A48FFF7A2FB0020FFF75EFB2146084857
:103E600004F09DFC00BF8021054804F08FFC002871
:103E7000F9D10120FFF750FB10BD000000100140F8
:103E80000038004010B50446012240210A48FFF7DF
:103E900084FB0020FFF740FB2146084804F07FFC2C
:103EA00000BF8021054804F071FC0028F9D10120F1
:103EB000FFF732FB10BD0000001001400038004049
:103EC00010B504462046FFF7DDFF10BD10B50122F6
:103ED00011030448FFF790F80021034804F020FC88
:103EE00010BD0000000C01400038004010B500215A
:103EF000054804F015FC2920FFF7A6FF2C20FFF74A
:103F0000A3FF00F003F810BD0038004010B50021F9
:103F1000074804F005FC00224FF480510548FFF7E4
:103F20006BF84FF40061024804F0FAFB10BD00008A
:103F300000380040000C014038B504460D4951F8E6
:103F40002400012103F070FF0B4830F81400ADF895
:103F5000000003208DF8020010208DF803000749AF
:103F600051F824006946FEF7B1FF0020044941F8EA
:103F7000240038BDC8640F08D8640F08A4080020C6
:103F8000F834002010B5002404E02046FFF7D4FFE9
:103F9000601CC4B2042CF8DB10BD0000084951F8C5
:103FA000201001290AD1074931F81010064A52F8A9
:103FB000202051610021024A42F820107047000081
:103FC000F8340020D8640F08A4080020074951F8ED
:103FD000201051B9064931F81010064A52F8202035
:103FE00011610121014A42F820107047F834002085
:103FF000D8640F08A408002010B500240AE0204669
:10400000FFF7E4FF642005F03DFD2046FFF7C6FF03
:10401000601CC4B2042CF2DB10BD00002DE9F04F8F
:10402000CBB04FF0000B00204A90002700266D46D1
:1040300000240CE02046FFF759FA18B101208F49FF
:10404000085502E000208D490855601CC4B2042CBC
:10405000F0DB0DF1D80A4AA805F0C0F8122288A1B9
:104060005046FCF781F8504604F060FF0021022022
:1040700004F010FC1F20FFF761FA0020FFF7A0FDFD
:104080004FF6FF70FFF78AFE0020FFF7ABF981A122
:104090000020FFF7A1FA85A10920FFF79DFA05F09E
:1040A0003DFB1F20FFF78CFD4FF6FF70FFF776FEFC
:1040B00084A10320FFF790FA88A10420FFF78CFA6F
:1040C0008CA10520FFF788FA284604F0CBFF834631
:1040D0000026AFE0012E08D14FF47A7005F0D2FC33
:1040E000284604F0BFFF83460026BBF1010F17D01E
:1040F000002612E04FF47A780BE0642005F0DEFC35
:10410000A8F101001FFA80F8FEF796FE064606B1F8
:1041100002E0B8F1000FF0D100BF002ED9D1E9E7DD
:10412000002726E007EB870101EBC702A91D01EB81
:1041300042014888FFF744FD07EB870101EBC70206
:10414000A91D01EB42018888FFF728FE07EB8702D3
:1041500002EBC703AA1D02EB4302911D07EB870286
:1041600002EBC703AA1D12F81300FFF735FA781CFB
:10417000C7B2082FD6DB287930B1012807D0022832
:1041800008D003280CD108E04FF0000908E041F204
:10419000883905E040F6C41902E04FF4FA7900BF0F
:1041A00000BF00240FE0285D10F0010F02D120466F
:1041B000FFF7F4FE285D10F0010F02D02046FFF754
:1041C00005FF601CC4B2042CEDDB002630E00024A7
:1041D0002BE0285D00F0020002281FD1B9F1000F8A
:1041E0001CD02046FFF782F918B12046FFF7D6FE13
:1041F00002E02046FFF7EAFEC8460BE0642005F027
:104200005DFCA8F101001FFA80F8FEF715FE0646D6
:1042100006B102E0B8F1000FF0D102E0FEF70CFEAB
:10422000064606B103E0601CC4B2042CD1DB00BF1B
:10423000002ECCD0022E7FF44DAF4FF6FF70FFF76B
:104240007DF9FDF7B5F90021012004F023FB0024DE
:104250000BE00A48005D18B12046FFF7B7FE02E008
:104260002046FFF79BFE601CC4B2042CF1DB01204A
:10427000FFF7B8F84BB0BDE8F08F000058080020F9
:10428000636F6D2E6E66632E6D3234737264656D6E
:104290006F00000020204D323453522D44495343C7
:1042A0004F5645525920202000000000507265737F
:1042B00073206B657920746F2072657475726E203F
:1042C000000000002020202057616974696E67207B
:1042D000666F722020202020000000002020206136
:1042E00070706C69636174696F6E20746F20202038
:1042F00000000000757064617465204D32345352C3
:1043000020636F6E74656E740000000030B589B074
:10431000FCF7E6F801A8FCF733F901A8FBF748FF22
:104320000546294601A8FCF771FB002406E001A818
:10433000015D04F12700274A1154641C062CF6D3B2
:10434000244804F04BFF1F20FFF7F8F80020FFF788
:1043500049F805F0E3F90020FFF732FC4FF6FF7053
:10436000FFF71CFD1CA10020FFF736F91F20FFF707
:1043700027FC4FF6FF70FFF711FD1DA10220FFF78C
:104380002BF921A10320FFF727F925A10420FFF72E
:1043900023F929A10520FFF71FF92DA10620FFF71A
:1043A0001BF931A10720FFF717F90020FFF708FCE0
:1043B00033A10920FFF710F905F0B8F94FF6FF70A7
:1043C000FFF7BCF8FDF7F4F80120FFF70BF809B090
:1043D00030BD00007C02002020204D323453522D8D
:1043E000444953434F5645525920202000000000B5
:1043F00020204D3234535220636F6E6669677572A8
:104400006564202000000000202020776974682067
:10441000426C7565746F6F74682020200000000086
:104420002020202020706172616D65746572732098
:1044300020202020000000002020506C6561736562
:104440002067657420636C6F736520200000000096
:104450002020746F20616E74656E6E6120666F72CD
:10446000202020200000000020202020202070613B
:104470006972696E67202020202020200000000043
:104480005072657373206B657920746F2072657448
:1044900075726E200000000030B5ADF55D7D002521
:1044A00001AC05220CA12046FBF75EFE0B220CA1FD
:1044B00004F15000FBF758FE204604F0BBFE054611
:1044C000012D03D109A0FDF7C1F801E0FCF7E8FDDB
:1044D0000DF55D7D30BD000074656C3A0000000094
:1044E0003036313233343536373800002020202042
:1044F00050686F6E65206E756D6265722020202099
:104500000000000070B5ADF55C7D00256C461148DB
:10451000FBF74EFE461C32460E492046FBF724FEB2
:104520000D48FBF745FE461C32460B4904F150008E
:10453000FBF71AFE204604F07DFE0546012D03D14F
:1045400006A0FDF783F801E0FCF7AAFD0DF55C7D00
:1045500070BD0000A0000020AC0000202020202022
:104560002020202055524C202020202020202020B8
:10457000000000000FB42DE9F0410646DDE90B45CF
:104580000020208016F0010F0FD03A48007808B9BB
:10459000012000E00020374908700846007840F00C
:1045A00002012288501C2080A9543248007810F063
:1045B000080F05D0304801782288501C2080A9546B
:1045C00016F0020F05D09DF81C102288501C208088
:1045D000A95416F0040F05D09DF81D102288501C18
:1045E0002080A95416F0080F05D09DF81E102288CF
:1045F000501C2080A95416F0100F05D09DF81F10F4
:104600002288501C2080A95416F0200F05D09DF858
:1046100020102288501C2080A95416F0400F0BD087
:104620009DF82020238858190999FBF79DFD2088C3
:104630009DF820100844208016F0800F05D007A8B0
:10464000017B2288501C2080A95416F4807F0DD055
:104650002178284600F08CF807462288501C2080DC
:10466000AF54390A2288501C2080A954BDE8F001BB
:104670005DF814FB7A080020790800202DE9FF413D
:1046800005460F46254E032D03DD142004B0BDE87A
:10469000F08100202249087024204870280A887080
:1046A000CD7010200871102288683946FBF75CFD38
:1046B00003A8CDE901061A48C068009018480EC842
:1046C00040F27F10FFF756FFBDF80C10C8B231461C
:1046D00001F0B0F884B20CB1012000E0002000B17C
:1046E0001AE000F00DFC84B20CB1012000E00020C3
:1046F00000B111E03146052000F046FE84B20CB155
:10470000012000E0002000B106E00521304600F065
:104710002FFC04462046B9E71120B7E7570B0020CD
:10472000480A002070B5044600250F480068A042E2
:104730000FD100F03BF80546B5F5104F01D0012030
:1047400000E0002000B10CE00848074908600120A3
:1047500070BD054800680549884201D10120F7E78E
:1047600000BF0020F4E700007C080020EFBEADDEB3
:10477000F8B504460D4646F26330009000BF14F8C9
:10478000016B6946304601F035F9681EC0B205007C
:10479000F5D1BDF80000F8BD1FB5002000900190D4
:1047A000029003906846FEF76FFD1FBD38B515A057
:1047B000006800906946032001F03CF804460CB103
:1047C000012000E0002000B116E000F099FB044653
:1047D0000CB1012000E0002000B10DE0694603208B
:1047E00000F0D2FD04460CB1012000E0002000B131
:1047F00002E04FF4104038BD01210348FEF78AFC67
:104800001120F8E7C2E0B4000058004070B504463B
:10481000012522461021032001F0FEF8B0F5104FCB
:1048200014D1012000F016F8022000F013F8012046
:1048300000F086F8022000F083F821460120FFF7FF
:104840001DFF21460220FFF719FF00E00025284642
:1048500070BD00007FB50446224E012C04D0022C0E
:1048600002D0142004B070BDA2201F490870262079
:104870004870200A8870CC7003A8CDE9010608466C
:10488000C068009008460EC840F21F10FFF772FE85
:10489000BDF80C10C8B2314600F0CCFF85B20DB1A6
:1048A000012000E0002000B11AE000F029FB85B2F1
:1048B0000DB1012000E0002000B111E031460520DB
:1048C00000F062FD85B20DB1012000E0002000B1D2
:1048D00006E00521304600F04BFB05462846C1E7BF
:1048E0001120BFE7570B0020480A002070B505468D
:1048F0000124094A1021032001F08EF8B0F5104F71
:1049000006D10220FFF7A6FF022000F019F800E010
:104910000024204670BD0000560C002070B50446EF
:10492000012522461021022001F076F8B0F5104F43
:1049300003D1012000F004F800E00025284670BDF6
:104940007FB50446224E012C04D0022C02D0142044
:1049500004B070BD00201F49087026204870200A4E
:104960008870CC7003A8CDE901060846C0680090A5
:1049700008460EC840F21F10FFF7FCFDBDF80C10F2
:10498000C8B2314600F056FF85B20DB1012000E0FB
:10499000002000B11AE000F0B3FA85B20DB1012099
:1049A00000E0002000B111E03146052000F0ECFCF1
:1049B00085B20DB1012000E0002000B106E0052124
:1049C000304600F0D5FA05462846C1E71120BFE77A
:1049D000570B0020480A002070B505460124094AFB
:1049E0001021032001F018F8B0F5104F06D1012076
:1049F000FFF730FF0120FFF7A3FF00E0002420466F
:104A000070BD0000560C002070B5044601252246FA
:104A10001021022001F000F8B0F5104F03D1022060
:104A2000FFF78EFF00E00025284670BD7FB50446E5
:104A3000224E012C04D0022C02D0142004B070BDF0
:104A4000A2201F49087028204870200A8870CC7066
:104A500003A8CDE901060846C068009008460EC8C4
:104A600040F21F10FFF786FDBDF80C10C8B23146AA
:104A700000F0E0FE85B20DB1012000E0002000B1A1
:104A80001AE000F03DFA85B20DB1012000E00020EF
:104A900000B111E03146052000F076FC85B20DB181
:104AA000012000E0002000B106E00521304600F0C2
:104AB0005FFA05462846C1E71120BFE7570B0020E3
:104AC000480A002070B50446012522461021022024
:104AD00000F0A2FFB0F5104F03D10220FFF7A6FFB0
:104AE00000E00025284670BD70B504460D4601263D
:104AF00022461021022000F08FFFB0F5104F07D1A1
:104B000029460120FFF7BAFD012000F005F800E07A
:104B10000026304670BD00007FB50446224E012CB1
:104B200004D0022C02D0142004B070BD00201F4914
:104B3000087028204870200A8870CC7003A8CDE93E
:104B400001060846C068009008460EC840F21F10D3
:104B5000FFF710FDBDF80C10C8B2314600F06AFE38
:104B600085B20DB1012000E0002000B11AE000F094
:104B7000C7F985B20DB1012000E0002000B111E0BD
:104B80003146052000F000FC85B20DB1012000E0A7
:104B9000002000B106E00521304600F0E9F90546A5
:104BA0002846C1E71120BFE7570B0020480A002024
:104BB00070B50446012522461021022000F02CFF8A
:104BC000B0F5104F03D10120FFF730FF00E00025C2
:104BD000284670BD70B505460E462A4610210220B3
:104BE00000F01AFFB0F5104F08D131460220FFF750
:104BF00045FD0220FFF790FF012400E0002420463D
:104C000070BD2DE9FC4106460024F2222146641CB9
:104C10000DF801202146641C0DF801600221684650
:104C2000FFF7A6FD0746FAB22146641C0DF80120E5
:104C30003A0A2146641C0DF801202046694600F01E
:104C4000F9FD85B20DB1012000E0002000B11BE0AC
:104C500000F056F985B20DB1012000E0002000B14E
:104C600012E06946052000F08FFB85B20DB10120EE
:104C700000E0002000B107E00521684600F078F967
:104C800005462846BDE8FC811120FBE72DE9F041EF
:104C900006460C461746F62C1DDD00BF3A46F621A7
:104CA000304600F00BFC054606F1F60086B2F637FA
:104CB000A4F1F60084B2F62C02DDB5F5104FEDD06C
:104CC000B5F5104F0DD164B1E1B23A46304600F06F
:104CD000F5FB054605E0E1B23A46304600F0EEFB52
:104CE00005462846BDE8F081014606480088A0F543
:104CF0005E42AD3A04D00348008808800120704726
:104D00000020FCE78008002038B526200090694686
:104D1000012000F08FFD044600F038FA04460CB183
:104D2000012000E0002000B105E014B94FF410406C
:104D300038BDA0B2FCE701210248FEF7EBF91120D3
:104D4000F6E700000058004000B585B001210D20B5
:104D500003F06AF80121880503F046F84FF440603B
:104D6000ADF8100003208DF812001C208DF8130000
:104D700004A91E48FEF7AAF84020ADF81000032051
:104D80008DF8120048208DF8130004A91848FEF78A
:104D90009DF88020ADF8100003208DF8120010203F
:104DA0008DF8130004A91248FEF790F81148FEF799
:104DB00089F90020ADF804004BF6FF70ADF806004D
:104DC0000020ADF808004FF48060ADF80A00000143
:104DD000ADF80C000848009069460648FEF7C4F993
:104DE00001210448FEF761F905B000BD000C014047
:104DF0000008014000580040801A060010B5FFF777
:104E0000A3FF00F009F800F0D9F8032000F00BF937
:104E1000FFF7CCFC10BD0000002006490870487068
:104E20008870C870087100210248017302498160CE
:104E300070470000480A0020580A00202DE9F04180
:104E400005460F4600244FF47A76FFF7D7FFFFF7A9
:104E50005BFF044607E0012004F014FEFFF754FF57
:104E60000446701E86B2B4F5104F01D0002EF2D168
:104E7000B4F5104F02D00020BDE8F08100F072FBC5
:104E80000446B4F5104F01D0012000E0002000B12D
:104E900031E000F0C9FB0446B4F5104F01D0012009
:104EA00000E0002000B126E02A460F21002000F09B
:104EB0003DFAB0F5104F12D1A87A697A40EA012084
:104EC0000E490880FFF772FC0446B4F5104F01D07C
:104ED000012000E0002000B10DE00120CCE7FFF749
:104EE00065FC0446B4F5104F01D0012000E000201D
:104EF00000B100E000BF0020BEE7000080080020F5
:104F000070B5184D002618480078012804D00228F2
:104F10000DD0032821D10FE000F038F904460CB180
:104F2000012000E0002000B119E0002070BD5020F9
:104F300004F0A8FD0020F9E700BF40210B48FEF770
:104F40004EF808B9701CC6B26D1E052E01DA002D90
:104F5000F3D105B903E00020E8E71020E6E71020D0
:104F6000E4E70000FFFF030078080020000801408C
:104F700070B504460D46002625B129462046FFF7A8
:104F8000F7FB06464EB9281F205C4FF47F4101EA2B
:104F90000020E91E615C084370BD00260521204603
:104FA000FFF7E6FB06460EB11220F5E760784FF4F6
:104FB0007F4101EA0020A1780843EDE738B510A051
:104FC000006800906946012000F034FC04460CB1F2
:104FD000012000E0002000B10BE000F0D7F804460B
:104FE0000CB1012000E0002000B102E04FF41040BD
:104FF00038BD01210348FEF78DF81120F8E70000C5
:10500000520000000058004070B506460D4625B914
:10501000304600F03BF8044603E0304600F003F869
:105020000446204670BD30B585B00446002000908F
:10503000019002900390052C02DD142005B030BDD4
:10504000012000F071FC00F08DFA00F09BFB04AA37
:105050000121042000F016F99DF8100000F0F00086
:105060002043049000F08EFB6A461021032000F0DC
:10507000D3FC04AA0121042000F05CFC0546032CAB
:1050800002D1032000F050FC2846D7E730B585B0A8
:10509000044600200090019002900390052C02DD50
:1050A000142005B030BD00F05DFA00F06BFB04AADF
:1050B0000121042000F0E6F89DF8100064F31F10B1
:1050C000C0B2049000F05EFB6A461021032000F09D
:1050D000A3FC04AA0121042000F02CFC054628466C
:1050E000DFE700002DE9F04105460E4600244FF4AD
:1050F0007A77244800682449884239D1A6F57F4050
:10510000FF3803D1FFF75AFF044610E0FFF7FCFD1C
:10511000044607E0012004F0B5FCFFF7F5FD044666
:10512000781E87B2B4F5104F01D0002FF2D1B4F53C
:10513000104F02D00020BDE8F08100F013FA0446C1
:10514000B4F5104F01D0012000E0002000B116E0BE
:10515000284600F0C1FA0446B4F5104F01D00120F2
:1051600000E0002000B10AE0064805600120E2E707
:1051700004480068A84201D10120DCE700BF0020FC
:10518000D9E700007C080020EFBEADDE70B5002539
:1051900040F6FF76002400BF012004F08FFC40257C
:1051A0002C492D48FDF77BFF00212B48FDF756FFCA
:1051B00001212948FDF7A2FF00BF28492648FDF735
:1051C000B5FF10B9681E0500F7D10022AC212248B6
:1051D000FEF74FF8402514211F48FEF73BF8044620
:1051E00007E014211C48FEF735F8044640F28240DF
:1051F0000440B4F5806F06D004F00200022802D00B
:10520000681E0500EDD101211348FDF783FF0DB99C
:10521000152070BD022C13D100210F48FDF745FF6A
:1052200000BF14210C48FEF715F8044604F00200F4
:105230000228F6D001210848FDF737FF0020E8E7F3
:105240001CB1701E80B2061EA6DC0EB91520E0E768
:105250001320DEE700040010005800400100001099
:1052600010B50446204600F001F810BD18B18021A9
:10527000034A116003E08021014A121F1160704748
:10528000140801402DE9FF4107460C469046254D84
:10529000002025490870B0204870380A8870CF7007
:1052A0000846047303A8CDE901050846C0680090CC
:1052B00008460EC840F29F10FFF75CF9BDF80C10CD
:1052C000C8B2294600F0B6FA86B20EB1012000E05D
:1052D000002000B123E0FFF713FE86B20EB10120DB
:1052E00000E0002000B11AE0611DC8B2294600F0BC
:1052F0004BF886B20EB1012000E0002000B10EE0B4
:10530000601DC1B22846FFF733FE06462246691CDF
:105310004046FAF729FF304604B0BDE8F08111207D
:10532000FAE70000570B0020480A00202DE9F04161
:1053300006460C461746F62C1DDD00BF3A46F62100
:105340003046FFF79FFF054606F1F60086B2F637B6
:10535000A4F1F60084B2F62C02DDB5F5104FEDD0C5
:10536000B5F5104F0DD164B1E1B23A463046FFF7C2
:1053700089FF054605E0E1B23A463046FFF782FF75
:1053800005462846BDE8F0812DE9F04107460E4666
:10539000444C4FF0000844494448FDF780FE012189
:1053A0004248FDF7ABFE00214048FDF757FE04E000
:1053B0002000A4F1010400D16EE03D493B48FDF717
:1053C000B5FE08B9002CF3D10122AC213748FDF716
:1053D00050FF4FF4704404E02000A4F1010400D118
:1053E0005AE034493148FDF745FE0028F4D0012148
:1053F0002E48FDF733FE2D48FDF737FF4FF470447C
:1054000004E02000A4F1010400D145E028493F3127
:105410002648FDF78BFE0028F3D03D4624E0022D00
:1054200009D12248008820F48060204908800121A9
:105430001E48FDF76FFE1D48FDF717FF41464A1C49
:1054400002F0FF0870544FF4704404E02000A4F10F
:10545000010400D120E016493F311448FDF766FEF3
:105460000028F3D0681EC5B2012DD8DC0F48FDF727
:10547000FCFE41464A1C02F0FF0870540E4C00BF6F
:105480000A48008810F4007F03D02000A4F1010432
:10549000F6D10020BDE8F08101210448FDF73AFE75
:1054A0001120F7E7FFFF0100000400100058004042
:1054B0000100001002000300FFFF03002DE9FF417F
:1054C00007460C469046254DA22025490870B0207D
:1054D0004870380A8870CF700846047303A8CDE975
:1054E00001050846C068009008460EC840F29F10AB
:1054F000FFF740F8BDF80C10C8B2294600F09AF941
:1055000086B20EB1012000E0002000B123E0FFF7D9
:10551000F7FC86B20EB1012000E0002000B11AE0D5
:10552000611DC8B22946FFF72FFF86B20EB10120D8
:1055300000E0002000B10EE0601DC1B22846FFF778
:1055400017FD06462246691C4046FAF70DFE304616
:1055500004B0BDE8F0811120FAE70000570B0020ED
:10556000480A00202DE9F04387B02B4D0526072778
:105570002AA103C9CDE905014FF000094FF4806865
:10558000002028490870A42048704FEA182088702D
:1055900081F80380084607713A46886805A9FAF73A
:1055A000E3FD204880F80C9004A8CDE901051D48D2
:1055B000C06800901B480EC840F2FF10FEF7DAFFEB
:1055C000BDF81010C8B2294600F034F984B20CB10D
:1055D000012000E0002000B11CE0FFF791FC84B244
:1055E0000CB1012000E0002000B113E02946304654
:1055F000FFF7CAFE84B20CB1012000E0002000B128
:1056000008E031462846FFF7B3FC0446204607B0C1
:10561000BDE8F0831120FAE7570B0020D276000096
:1056200085010100480A00202DE9FF47284D052784
:105630004FF002090C264EF203180020254908708D
:10564000A4204870300A88700846C67080F804901C
:105650004FEA1821806801701E48806880F8018038
:1056600003A8CDE901051B48C068009019480EC881
:1056700040F27F10FEF77EFFBDF80C10C8B229463D
:1056800000F0D8F884B20CB1012000E0002000B195
:105690001CE0FFF735FC84B20CB1012000E00020D3
:1056A00000B113E029463846FFF76EFE84B20CB114
:1056B000012000E0002000B108E039462846FFF74D
:1056C00057FC0446204604B0BDE8F0871120FAE7F5
:1056D000570B0020480A00202DE9FF470546274EBA
:1056E0004FF005084FF002090C27002024490870EC
:1056F000A4204870380A88700846C77080F8049063
:10570000290A806801701E488068457003A8CDE9A9
:1057100001061B48C068009019480EC840F27F106F
:10572000FEF728FFBDF80C10C8B2314600F082F831
:1057300084B20CB1012000E0002000B11CE0FFF7B2
:10574000DFFB84B20CB1012000E0002000B113E0C7
:1057500031464046FFF718FE84B20CB1012000E04C
:10576000002000B108E041463046FFF701FC044646
:10577000204604B0BDE8F0871120FAE7570B00205F
:10578000480A00202DE9FF47284D05274FF0020960
:105790000C264EF20118002025490870A4204870FC
:1057A000300A88700846C67080F804904FEA1821C5
:1057B000806801701E48806880F8018003A8CDE9E8
:1057C00001051B48C068009019480EC840F27F10C0
:1057D000FEF7D0FEBDF80C10C8B2294600F02AF83A
:1057E00084B20CB1012000E0002000B11CE0FFF702
:1057F00087FB84B20CB1012000E0002000B113E06F
:1058000029463846FFF7C0FD84B20CB1012000E004
:10581000002000B108E039462846FFF7A9FB0446FE
:10582000204604B0BDE8F0871120FAE7570B0020AE
:10583000480A00202DE9F04106460F46354C002568
:1058400035493648FDF72BFC01213448FDF706FCAD
:1058500001213248FDF752FC04E02000A4F10104CC
:1058600000D151E02E492D48FDF760FC08B9002C0D
:10587000F3D1284C0022AC212848FDF7FAFC03E0C4
:10588000601E040000D13FE026492448FDF7F2FBEA
:1058900008B9002CF4D100251AE0795D1F48FDF706
:1058A000F1FC4FF4704404E02000A4F1010400D1A5
:1058B0002AE01B497F311948FDF738FC30B91849F7
:1058C000C91C1648FDF732FC0028EDD0681CC5B293
:1058D000B542E2DB01211148FDF71CFC0D4C00BF75
:1058E0000E48008810F4007F03D02000A4F10104CA
:1058F000F6D10A481430008810F4806F02D01620C8
:10590000BDE8F0810020FBE701210448FDF702FC1F
:105910001120F5E7FFFF03000004001000580040CD
:105920000100001082000700014908707047000064
:10593000780800202DE9FF4106460F4690462B4C83
:1059400000202B490870D6204870300A8870CE702D
:10595000084607713A4688684146FAF705FC03A8ED
:10596000CDE901042248C068009021480EC840F2E9
:105970007F10FEF7FFFDBDF80C10C8B22146FFF7FF
:1059800059FF85B20DB1012000E0002000B12BE0ED
:10599000FFF7B6FA85B20DB1012000E0002000B19A
:1059A00022E021460520FFF7EFFC85B20DB1012072
:1059B00000E0002000B117E02046FDF7A3FD50B93C
:1059C00004212046FFF7D4FA122809D06078FFF7A7
:1059D00018F9054604E005212046FFF7C9FA0546F7
:1059E000284604B0BDE8F0811120FAE7570B0020EB
:1059F000480A002002460878424082EA0210C2B2F9
:105A00000888001280EA022080EAC20080EA2210A0
:105A100008800888704700002DE9FF4105460C46C4
:105A20009046304E0027032D03DD142004B0BDE85E
:105A3000F0811CB1102C01D01420F7E700202A4976
:105A4000087020204870280A8870CD7008460471BC
:105A5000102C11D1224688684146FAF785FB03A82D
:105A6000CDE901062048C06800901F480EC840F2EA
:105A70007F10FEF77FFD0BE003A8CDE901061A4871
:105A8000C068009018480EC840F23F10FEF772FD43
:105A9000BDF80C10C8B23146FFF7CCFE87B20FB18B
:105AA000012000E0002000B11AE0FFF729FA87B2D8
:105AB0000FB1012000E0002000B111E031460520C7
:105AC000FFF762FC87B20FB1012000E0002000B1B7
:105AD00006E005213046FFF74BFA07463846A5E7B2
